{
	"docs.chain.link/samples/VRF/VRFv2Consumer.sol": {
		"VRFv2Consumer": {
			"abi": [
				{
					"inputs": [
						{
							"internalType": "uint64",
							"name": "subscriptionId",
							"type": "uint64"
						}
					],
					"stateMutability": "nonpayable",
					"type": "constructor"
				},
				{
					"inputs": [
						{
							"internalType": "address",
							"name": "have",
							"type": "address"
						},
						{
							"internalType": "address",
							"name": "want",
							"type": "address"
						}
					],
					"name": "OnlyCoordinatorCanFulfill",
					"type": "error"
				},
				{
					"anonymous": false,
					"inputs": [
						{
							"indexed": true,
							"internalType": "address",
							"name": "from",
							"type": "address"
						},
						{
							"indexed": true,
							"internalType": "address",
							"name": "to",
							"type": "address"
						}
					],
					"name": "OwnershipTransferRequested",
					"type": "event"
				},
				{
					"anonymous": false,
					"inputs": [
						{
							"indexed": true,
							"internalType": "address",
							"name": "from",
							"type": "address"
						},
						{
							"indexed": true,
							"internalType": "address",
							"name": "to",
							"type": "address"
						}
					],
					"name": "OwnershipTransferred",
					"type": "event"
				},
				{
					"anonymous": false,
					"inputs": [
						{
							"indexed": false,
							"internalType": "uint256",
							"name": "requestId",
							"type": "uint256"
						},
						{
							"indexed": false,
							"internalType": "uint256[]",
							"name": "randomWords",
							"type": "uint256[]"
						}
					],
					"name": "RequestFulfilled",
					"type": "event"
				},
				{
					"anonymous": false,
					"inputs": [
						{
							"indexed": false,
							"internalType": "uint256",
							"name": "requestId",
							"type": "uint256"
						},
						{
							"indexed": false,
							"internalType": "uint32",
							"name": "numWords",
							"type": "uint32"
						}
					],
					"name": "RequestSent",
					"type": "event"
				},
				{
					"inputs": [],
					"name": "acceptOwnership",
					"outputs": [],
					"stateMutability": "nonpayable",
					"type": "function"
				},
				{
					"inputs": [
						{
							"internalType": "uint256",
							"name": "_requestId",
							"type": "uint256"
						}
					],
					"name": "getRequestStatus",
					"outputs": [
						{
							"internalType": "bool",
							"name": "fulfilled",
							"type": "bool"
						},
						{
							"internalType": "uint256[]",
							"name": "randomWords",
							"type": "uint256[]"
						}
					],
					"stateMutability": "view",
					"type": "function"
				},
				{
					"inputs": [],
					"name": "lastRequestId",
					"outputs": [
						{
							"internalType": "uint256",
							"name": "",
							"type": "uint256"
						}
					],
					"stateMutability": "view",
					"type": "function"
				},
				{
					"inputs": [],
					"name": "owner",
					"outputs": [
						{
							"internalType": "address",
							"name": "",
							"type": "address"
						}
					],
					"stateMutability": "view",
					"type": "function"
				},
				{
					"inputs": [
						{
							"internalType": "uint256",
							"name": "requestId",
							"type": "uint256"
						},
						{
							"internalType": "uint256[]",
							"name": "randomWords",
							"type": "uint256[]"
						}
					],
					"name": "rawFulfillRandomWords",
					"outputs": [],
					"stateMutability": "nonpayable",
					"type": "function"
				},
				{
					"inputs": [
						{
							"internalType": "uint256",
							"name": "",
							"type": "uint256"
						}
					],
					"name": "requestIds",
					"outputs": [
						{
							"internalType": "uint256",
							"name": "",
							"type": "uint256"
						}
					],
					"stateMutability": "view",
					"type": "function"
				},
				{
					"inputs": [],
					"name": "requestRandomWords",
					"outputs": [
						{
							"internalType": "uint256",
							"name": "requestId",
							"type": "uint256"
						}
					],
					"stateMutability": "nonpayable",
					"type": "function"
				},
				{
					"inputs": [
						{
							"internalType": "uint256",
							"name": "",
							"type": "uint256"
						}
					],
					"name": "s_requests",
					"outputs": [
						{
							"internalType": "bool",
							"name": "fulfilled",
							"type": "bool"
						},
						{
							"internalType": "bool",
							"name": "exists",
							"type": "bool"
						}
					],
					"stateMutability": "view",
					"type": "function"
				},
				{
					"inputs": [
						{
							"internalType": "address",
							"name": "to",
							"type": "address"
						}
					],
					"name": "transferOwnership",
					"outputs": [],
					"stateMutability": "nonpayable",
					"type": "function"
				}
			],
			"devdoc": {
				"kind": "dev",
				"methods": {},
				"version": 1
			},
			"evm": {
				"assembly": "    /* \"docs.chain.link/samples/VRF/VRFv2Consumer.sol\":733:4301  contract VRFv2Consumer is VRFConsumerBaseV2, ConfirmedOwner {... */\n  mstore(0x40, 0xa0)\n    /* \"docs.chain.link/samples/VRF/VRFv2Consumer.sol\":1675:1741  0x474e34a077df58807dbe9c96d3c009b23b3c6d0cce433e59bbf5b34f823bc56c */\n  0x474e34a077df58807dbe9c96d3c009b23b3c6d0cce433e59bbf5b34f823bc56c\n    /* \"docs.chain.link/samples/VRF/VRFv2Consumer.sol\":1649:1741  bytes32 keyHash =... */\n  0x06\n  sstore\n    /* \"docs.chain.link/samples/VRF/VRFv2Consumer.sol\":2158:2190  uint32 callbackGasLimit = 100000 */\n  0x07\n  dup1\n  sload\n  not(sub(shl(0x50, 0x01), 0x01))\n    /* \"docs.chain.link/samples/VRF/VRFv2Consumer.sol\":2408:2427  uint32 numWords = 2 */\n  and\n  0x020003000186a0\n  or\n  swap1\n  sstore\n    /* \"docs.chain.link/samples/VRF/VRFv2Consumer.sol\":2542:2865  constructor(... */\n  callvalue\n  dup1\n  iszero\n  tag_1\n  jumpi\n  0x00\n  dup1\n  revert\ntag_1:\n  pop\n  mload(0x40)\n  sub(codesize, bytecodeSize)\n  dup1\n  bytecodeSize\n  dup4\n  codecopy\n  dup2\n  add\n  0x40\n  dup2\n  swap1\n  mstore\n  tag_2\n  swap2\n  tag_3\n  jump\t// in\ntag_2:\n    /* \"docs.chain.link/samples/VRF/VRFv2Consumer.sol\":2617:2659  0x8103B0A8A00be2DDC778e6e7eaa21791Cd364625 */\n  0x8103b0a8a00be2ddc778e6e7eaa21791cd364625\n    /* \"@chainlink/contracts/src/v0.8/VRFConsumerBaseV2.sol\":5599:5631  vrfCoordinator = _vrfCoordinator */\n  0x80\n  mstore\n    /* \"docs.chain.link/samples/VRF/VRFv2Consumer.sol\":2684:2694  msg.sender */\n  caller\n  dup1\n    /* \"@chainlink/contracts/src/v0.8/ConfirmedOwner.sol\":345:346  0 */\n  0x00\n    /* \"docs.chain.link/samples/VRF/VRFv2Consumer.sol\":2684:2694  msg.sender */\n  dup2\n    /* \"@chainlink/contracts/src/v0.8/ConfirmedOwnerWithProposal.sol\":544:603  require(newOwner != address(0), \"Cannot set owner to zero\") */\n  tag_10\n  jumpi\n  mload(0x40)\n  shl(0xe5, 0x461bcd)\n  dup2\n  mstore\n    /* \"#utility.yul\":509:511   */\n  0x20\n    /* \"@chainlink/contracts/src/v0.8/ConfirmedOwnerWithProposal.sol\":544:603  require(newOwner != address(0), \"Cannot set owner to zero\") */\n  0x04\n  dup3\n  add\n    /* \"#utility.yul\":491:512   */\n  mstore\n    /* \"#utility.yul\":548:550   */\n  0x18\n    /* \"#utility.yul\":528:546   */\n  0x24\n  dup3\n  add\n    /* \"#utility.yul\":521:551   */\n  mstore\n    /* \"#utility.yul\":587:613   */\n  0x43616e6e6f7420736574206f776e657220746f207a65726f0000000000000000\n    /* \"#utility.yul\":567:585   */\n  0x44\n  dup3\n  add\n    /* \"#utility.yul\":560:614   */\n  mstore\n    /* \"#utility.yul\":631:649   */\n  0x64\n  add\n    /* \"@chainlink/contracts/src/v0.8/ConfirmedOwnerWithProposal.sol\":544:603  require(newOwner != address(0), \"Cannot set owner to zero\") */\ntag_11:\n  mload(0x40)\n  dup1\n  swap2\n  sub\n  swap1\n  revert\ntag_10:\n    /* \"@chainlink/contracts/src/v0.8/ConfirmedOwnerWithProposal.sol\":610:617  s_owner */\n  0x00\n    /* \"@chainlink/contracts/src/v0.8/ConfirmedOwnerWithProposal.sol\":610:628  s_owner = newOwner */\n  dup1\n  sload\n  not(sub(shl(0xa0, 0x01), 0x01))\n  and\n  sub(shl(0xa0, 0x01), 0x01)\n  dup5\n  dup2\n  and\n  swap2\n  swap1\n  swap2\n  or\n  swap1\n  swap2\n  sstore\n    /* \"@chainlink/contracts/src/v0.8/ConfirmedOwnerWithProposal.sol\":638:664  pendingOwner != address(0) */\n  dup2\n  and\n  iszero\n    /* \"@chainlink/contracts/src/v0.8/ConfirmedOwnerWithProposal.sol\":634:713  if (pendingOwner != address(0)) {... */\n  tag_14\n  jumpi\n    /* \"@chainlink/contracts/src/v0.8/ConfirmedOwnerWithProposal.sol\":674:706  _transferOwnership(pendingOwner) */\n  tag_14\n    /* \"@chainlink/contracts/src/v0.8/ConfirmedOwnerWithProposal.sol\":693:705  pendingOwner */\n  dup2\n    /* \"@chainlink/contracts/src/v0.8/ConfirmedOwnerWithProposal.sol\":674:692  _transferOwnership */\n  tag_15\n    /* \"@chainlink/contracts/src/v0.8/ConfirmedOwnerWithProposal.sol\":674:706  _transferOwnership(pendingOwner) */\n  jump\t// in\ntag_14:\n  pop\n  pop\n    /* \"docs.chain.link/samples/VRF/VRFv2Consumer.sol\":2710:2721  COORDINATOR */\n  0x03\n    /* \"docs.chain.link/samples/VRF/VRFv2Consumer.sol\":2710:2815  COORDINATOR = VRFCoordinatorV2Interface(... */\n  dup1\n  sload\n  sub(shl(0x40, 0x01), 0x01)\n    /* \"docs.chain.link/samples/VRF/VRFv2Consumer.sol\":2825:2858  s_subscriptionId = subscriptionId */\n  swap1\n  swap4\n  and\n  shl(0xa0, 0x01)\n  mul\n  not(sub(shl(0xe0, 0x01), 0x01))\n  swap1\n  swap4\n  and\n  swap3\n  swap1\n  swap3\n  or\n    /* \"docs.chain.link/samples/VRF/VRFv2Consumer.sol\":2763:2805  0x8103B0A8A00be2DDC778e6e7eaa21791Cd364625 */\n  0x8103b0a8a00be2ddc778e6e7eaa21791cd364625\n    /* \"docs.chain.link/samples/VRF/VRFv2Consumer.sol\":2825:2858  s_subscriptionId = subscriptionId */\n  or\n  swap1\n  swap2\n  sstore\n  pop\n    /* \"docs.chain.link/samples/VRF/VRFv2Consumer.sol\":733:4301  contract VRFv2Consumer is VRFConsumerBaseV2, ConfirmedOwner {... */\n  jump(tag_23)\n    /* \"@chainlink/contracts/src/v0.8/ConfirmedOwnerWithProposal.sol\":1497:1685  function _transferOwnership(address to) private {... */\ntag_15:\n    /* \"@chainlink/contracts/src/v0.8/ConfirmedOwnerWithProposal.sol\":1565:1575  msg.sender */\n  caller\n  sub(shl(0xa0, 0x01), 0x01)\n    /* \"@chainlink/contracts/src/v0.8/ConfirmedOwnerWithProposal.sol\":1559:1575  to != msg.sender */\n  dup3\n  and\n  sub\n    /* \"@chainlink/contracts/src/v0.8/ConfirmedOwnerWithProposal.sol\":1551:1603  require(to != msg.sender, \"Cannot transfer to self\") */\n  tag_20\n  jumpi\n  mload(0x40)\n  shl(0xe5, 0x461bcd)\n  dup2\n  mstore\n    /* \"#utility.yul\":862:864   */\n  0x20\n    /* \"@chainlink/contracts/src/v0.8/ConfirmedOwnerWithProposal.sol\":1551:1603  require(to != msg.sender, \"Cannot transfer to self\") */\n  0x04\n  dup3\n  add\n    /* \"#utility.yul\":844:865   */\n  mstore\n    /* \"#utility.yul\":901:903   */\n  0x17\n    /* \"#utility.yul\":881:899   */\n  0x24\n  dup3\n  add\n    /* \"#utility.yul\":874:904   */\n  mstore\n    /* \"#utility.yul\":940:965   */\n  0x43616e6e6f74207472616e7366657220746f2073656c66000000000000000000\n    /* \"#utility.yul\":920:938   */\n  0x44\n  dup3\n  add\n    /* \"#utility.yul\":913:966   */\n  mstore\n    /* \"#utility.yul\":983:1001   */\n  0x64\n  add\n    /* \"@chainlink/contracts/src/v0.8/ConfirmedOwnerWithProposal.sol\":1551:1603  require(to != msg.sender, \"Cannot transfer to self\") */\n  tag_11\n    /* \"#utility.yul\":660:1007   */\n  jump\n    /* \"@chainlink/contracts/src/v0.8/ConfirmedOwnerWithProposal.sol\":1551:1603  require(to != msg.sender, \"Cannot transfer to self\") */\ntag_20:\n    /* \"@chainlink/contracts/src/v0.8/ConfirmedOwnerWithProposal.sol\":1610:1624  s_pendingOwner */\n  0x01\n    /* \"@chainlink/contracts/src/v0.8/ConfirmedOwnerWithProposal.sol\":1610:1629  s_pendingOwner = to */\n  dup1\n  sload\n  not(sub(shl(0xa0, 0x01), 0x01))\n  and\n  sub(shl(0xa0, 0x01), 0x01)\n  dup4\n  dup2\n  and\n  swap2\n  dup3\n  or\n  swap1\n  swap3\n  sstore\n  0x00\n    /* \"@chainlink/contracts/src/v0.8/ConfirmedOwnerWithProposal.sol\":1668:1675  s_owner */\n  dup1\n  sload\n    /* \"@chainlink/contracts/src/v0.8/ConfirmedOwnerWithProposal.sol\":1641:1680  OwnershipTransferRequested(s_owner, to) */\n  mload(0x40)\n    /* \"@chainlink/contracts/src/v0.8/ConfirmedOwnerWithProposal.sol\":1610:1629  s_pendingOwner = to */\n  swap3\n  swap4\n    /* \"@chainlink/contracts/src/v0.8/ConfirmedOwnerWithProposal.sol\":1668:1675  s_owner */\n  and\n  swap2\n    /* \"@chainlink/contracts/src/v0.8/ConfirmedOwnerWithProposal.sol\":1641:1680  OwnershipTransferRequested(s_owner, to) */\n  0xed8889f560326eb138920d842192f0eb3dd22b4f139c87a2c57538e05bae1278\n  swap2\n  swap1\n  log3\n    /* \"@chainlink/contracts/src/v0.8/ConfirmedOwnerWithProposal.sol\":1497:1685  function _transferOwnership(address to) private {... */\n  pop\n  jump\t// out\n    /* \"#utility.yul\":14:302   */\ntag_3:\n    /* \"#utility.yul\":83:89   */\n  0x00\n    /* \"#utility.yul\":136:138   */\n  0x20\n    /* \"#utility.yul\":124:133   */\n  dup3\n    /* \"#utility.yul\":115:122   */\n  dup5\n    /* \"#utility.yul\":111:134   */\n  sub\n    /* \"#utility.yul\":107:139   */\n  slt\n    /* \"#utility.yul\":104:156   */\n  iszero\n  tag_25\n  jumpi\n    /* \"#utility.yul\":152:153   */\n  0x00\n    /* \"#utility.yul\":149:150   */\n  dup1\n    /* \"#utility.yul\":142:154   */\n  revert\n    /* \"#utility.yul\":104:156   */\ntag_25:\n    /* \"#utility.yul\":178:194   */\n  dup2\n  mload\n  sub(shl(0x40, 0x01), 0x01)\n    /* \"#utility.yul\":223:253   */\n  dup2\n  and\n    /* \"#utility.yul\":213:254   */\n  dup2\n  eq\n    /* \"#utility.yul\":203:272   */\n  tag_26\n  jumpi\n    /* \"#utility.yul\":268:269   */\n  0x00\n    /* \"#utility.yul\":265:266   */\n  dup1\n    /* \"#utility.yul\":258:270   */\n  revert\n    /* \"#utility.yul\":203:272   */\ntag_26:\n    /* \"#utility.yul\":291:296   */\n  swap4\n    /* \"#utility.yul\":14:302   */\n  swap3\n  pop\n  pop\n  pop\n  jump\t// out\n    /* \"#utility.yul\":660:1007   */\ntag_23:\n    /* \"docs.chain.link/samples/VRF/VRFv2Consumer.sol\":733:4301  contract VRFv2Consumer is VRFConsumerBaseV2, ConfirmedOwner {... */\n  mload(0x80)\n  codecopy(0x00, dataOffset(sub_0), dataSize(sub_0))\n  0x00\n  assignImmutable(\"0xa75e2cf51d42f4164e4624f425e61448777a748393b6f6a5bcb1d94d1e8e5e98\")\n  return(0x00, dataSize(sub_0))\nstop\n\nsub_0: assembly {\n        /* \"docs.chain.link/samples/VRF/VRFv2Consumer.sol\":733:4301  contract VRFv2Consumer is VRFConsumerBaseV2, ConfirmedOwner {... */\n      mstore(0x40, 0x80)\n      callvalue\n      dup1\n      iszero\n      tag_1\n      jumpi\n      0x00\n      dup1\n      revert\n    tag_1:\n      pop\n      jumpi(tag_2, lt(calldatasize, 0x04))\n      shr(0xe0, calldataload(0x00))\n      dup1\n      0xa168fa89\n      gt\n      tag_12\n      jumpi\n      dup1\n      0xa168fa89\n      eq\n      tag_7\n      jumpi\n      dup1\n      0xd8a4676f\n      eq\n      tag_8\n      jumpi\n      dup1\n      0xe0c86289\n      eq\n      tag_9\n      jumpi\n      dup1\n      0xf2fde38b\n      eq\n      tag_10\n      jumpi\n      dup1\n      0xfc2a88c3\n      eq\n      tag_11\n      jumpi\n      0x00\n      dup1\n      revert\n    tag_12:\n      dup1\n      0x1fe543e3\n      eq\n      tag_3\n      jumpi\n      dup1\n      0x79ba5097\n      eq\n      tag_4\n      jumpi\n      dup1\n      0x8796ba8c\n      eq\n      tag_5\n      jumpi\n      dup1\n      0x8da5cb5b\n      eq\n      tag_6\n      jumpi\n    tag_2:\n      0x00\n      dup1\n      revert\n        /* \"@chainlink/contracts/src/v0.8/VRFConsumerBaseV2.sol\":6618:6874  function rawFulfillRandomWords(uint256 requestId, uint256[] memory randomWords) external {... */\n    tag_3:\n      tag_13\n      tag_14\n      calldatasize\n      0x04\n      tag_15\n      jump\t// in\n    tag_14:\n      tag_16\n      jump\t// in\n    tag_13:\n      stop\n        /* \"@chainlink/contracts/src/v0.8/ConfirmedOwnerWithProposal.sol\":1016:1281  function acceptOwnership() external override {... */\n    tag_4:\n      tag_13\n      tag_18\n      jump\t// in\n        /* \"docs.chain.link/samples/VRF/VRFv2Consumer.sol\":1350:1377  uint256[] public requestIds */\n    tag_5:\n      tag_19\n      tag_20\n      calldatasize\n      0x04\n      tag_21\n      jump\t// in\n    tag_20:\n      tag_22\n      jump\t// in\n    tag_19:\n      mload(0x40)\n        /* \"#utility.yul\":1665:1690   */\n      swap1\n      dup2\n      mstore\n        /* \"#utility.yul\":1653:1655   */\n      0x20\n        /* \"#utility.yul\":1638:1656   */\n      add\n        /* \"docs.chain.link/samples/VRF/VRFv2Consumer.sol\":1350:1377  uint256[] public requestIds */\n    tag_23:\n      mload(0x40)\n      dup1\n      swap2\n      sub\n      swap1\n      return\n        /* \"@chainlink/contracts/src/v0.8/ConfirmedOwnerWithProposal.sol\":1332:1413  function owner() public view override returns (address) {... */\n    tag_6:\n        /* \"@chainlink/contracts/src/v0.8/ConfirmedOwnerWithProposal.sol\":1379:1386  address */\n      0x00\n        /* \"@chainlink/contracts/src/v0.8/ConfirmedOwnerWithProposal.sol\":1401:1408  s_owner */\n      sload\n        /* \"@chainlink/contracts/src/v0.8/ConfirmedOwnerWithProposal.sol\":1332:1413  function owner() public view override returns (address) {... */\n      mload(0x40)\n      sub(shl(0xa0, 0x01), 0x01)\n        /* \"@chainlink/contracts/src/v0.8/ConfirmedOwnerWithProposal.sol\":1401:1408  s_owner */\n      swap1\n      swap2\n      and\n        /* \"#utility.yul\":1847:1898   */\n      dup2\n      mstore\n        /* \"#utility.yul\":1835:1837   */\n      0x20\n        /* \"#utility.yul\":1820:1838   */\n      add\n        /* \"@chainlink/contracts/src/v0.8/ConfirmedOwnerWithProposal.sol\":1332:1413  function owner() public view override returns (address) {... */\n      tag_23\n        /* \"#utility.yul\":1701:1904   */\n      jump\n        /* \"docs.chain.link/samples/VRF/VRFv2Consumer.sol\":1123:1182  mapping(uint256 => RequestStatus)... */\n    tag_7:\n      tag_29\n      tag_30\n      calldatasize\n      0x04\n      tag_21\n      jump\t// in\n    tag_30:\n      mstore(0x20, 0x02)\n      0x00\n      swap1\n      dup2\n      mstore\n      0x40\n      swap1\n      keccak256\n      sload\n      0xff\n      dup1\n      dup3\n      and\n      swap2\n      0x0100\n      swap1\n      div\n      and\n      dup3\n      jump\n    tag_29:\n      0x40\n      dup1\n      mload\n        /* \"#utility.yul\":2096:2110   */\n      swap3\n      iszero\n        /* \"#utility.yul\":2089:2111   */\n      iszero\n        /* \"#utility.yul\":2071:2112   */\n      dup4\n      mstore\n        /* \"#utility.yul\":2155:2169   */\n      swap1\n      iszero\n        /* \"#utility.yul\":2148:2170   */\n      iszero\n        /* \"#utility.yul\":2143:2145   */\n      0x20\n        /* \"#utility.yul\":2128:2146   */\n      dup4\n      add\n        /* \"#utility.yul\":2121:2171   */\n      mstore\n        /* \"#utility.yul\":2044:2062   */\n      add\n        /* \"docs.chain.link/samples/VRF/VRFv2Consumer.sol\":1123:1182  mapping(uint256 => RequestStatus)... */\n      tag_23\n        /* \"#utility.yul\":1909:2177   */\n      jump\n        /* \"docs.chain.link/samples/VRF/VRFv2Consumer.sol\":3974:4299  function getRequestStatus(... */\n    tag_8:\n      tag_34\n      tag_35\n      calldatasize\n      0x04\n      tag_21\n      jump\t// in\n    tag_35:\n      tag_36\n      jump\t// in\n    tag_34:\n      mload(0x40)\n      tag_23\n      swap3\n      swap2\n      swap1\n      tag_38\n      jump\t// in\n        /* \"docs.chain.link/samples/VRF/VRFv2Consumer.sol\":2927:3602  function requestRandomWords()... */\n    tag_9:\n      tag_19\n      tag_40\n      jump\t// in\n        /* \"@chainlink/contracts/src/v0.8/ConfirmedOwnerWithProposal.sol\":826:924  function transferOwnership(address to) public override onlyOwner {... */\n    tag_10:\n      tag_13\n      tag_43\n      calldatasize\n      0x04\n      tag_44\n      jump\t// in\n    tag_43:\n      tag_45\n      jump\t// in\n        /* \"docs.chain.link/samples/VRF/VRFv2Consumer.sol\":1383:1411  uint256 public lastRequestId */\n    tag_11:\n      tag_19\n      sload(0x05)\n      dup2\n      jump\n        /* \"@chainlink/contracts/src/v0.8/VRFConsumerBaseV2.sol\":6618:6874  function rawFulfillRandomWords(uint256 requestId, uint256[] memory randomWords) external {... */\n    tag_16:\n        /* \"@chainlink/contracts/src/v0.8/VRFConsumerBaseV2.sol\":6717:6727  msg.sender */\n      caller\n      sub(shl(0xa0, 0x01), 0x01)\n        /* \"@chainlink/contracts/src/v0.8/VRFConsumerBaseV2.sol\":6731:6745  vrfCoordinator */\n      immutable(\"0xa75e2cf51d42f4164e4624f425e61448777a748393b6f6a5bcb1d94d1e8e5e98\")\n        /* \"@chainlink/contracts/src/v0.8/VRFConsumerBaseV2.sol\":6717:6745  msg.sender != vrfCoordinator */\n      and\n      eq\n        /* \"@chainlink/contracts/src/v0.8/VRFConsumerBaseV2.sol\":6713:6822  if (msg.sender != vrfCoordinator) {... */\n      tag_50\n      jumpi\n        /* \"@chainlink/contracts/src/v0.8/VRFConsumerBaseV2.sol\":6762:6815  OnlyCoordinatorCanFulfill(msg.sender, vrfCoordinator) */\n      mload(0x40)\n      shl(0xe2, 0x073e64fd)\n      dup2\n      mstore\n        /* \"@chainlink/contracts/src/v0.8/VRFConsumerBaseV2.sol\":6788:6798  msg.sender */\n      caller\n        /* \"@chainlink/contracts/src/v0.8/VRFConsumerBaseV2.sol\":6762:6815  OnlyCoordinatorCanFulfill(msg.sender, vrfCoordinator) */\n      0x04\n      dup3\n      add\n        /* \"#utility.yul\":3472:3506   */\n      mstore\n      sub(shl(0xa0, 0x01), 0x01)\n        /* \"@chainlink/contracts/src/v0.8/VRFConsumerBaseV2.sol\":6800:6814  vrfCoordinator */\n      immutable(\"0xa75e2cf51d42f4164e4624f425e61448777a748393b6f6a5bcb1d94d1e8e5e98\")\n        /* \"#utility.yul\":3542:3557   */\n      and\n        /* \"#utility.yul\":3522:3540   */\n      0x24\n      dup3\n      add\n        /* \"#utility.yul\":3515:3558   */\n      mstore\n        /* \"#utility.yul\":3407:3425   */\n      0x44\n      add\n        /* \"@chainlink/contracts/src/v0.8/VRFConsumerBaseV2.sol\":6762:6815  OnlyCoordinatorCanFulfill(msg.sender, vrfCoordinator) */\n    tag_51:\n      mload(0x40)\n      dup1\n      swap2\n      sub\n      swap1\n      revert\n        /* \"@chainlink/contracts/src/v0.8/VRFConsumerBaseV2.sol\":6713:6822  if (msg.sender != vrfCoordinator) {... */\n    tag_50:\n        /* \"@chainlink/contracts/src/v0.8/VRFConsumerBaseV2.sol\":6827:6869  fulfillRandomWords(requestId, randomWords) */\n      tag_53\n        /* \"@chainlink/contracts/src/v0.8/VRFConsumerBaseV2.sol\":6846:6855  requestId */\n      dup3\n        /* \"@chainlink/contracts/src/v0.8/VRFConsumerBaseV2.sol\":6857:6868  randomWords */\n      dup3\n        /* \"@chainlink/contracts/src/v0.8/VRFConsumerBaseV2.sol\":6827:6845  fulfillRandomWords */\n      tag_54\n        /* \"@chainlink/contracts/src/v0.8/VRFConsumerBaseV2.sol\":6827:6869  fulfillRandomWords(requestId, randomWords) */\n      jump\t// in\n    tag_53:\n        /* \"@chainlink/contracts/src/v0.8/VRFConsumerBaseV2.sol\":6618:6874  function rawFulfillRandomWords(uint256 requestId, uint256[] memory randomWords) external {... */\n      pop\n      pop\n      jump\t// out\n        /* \"@chainlink/contracts/src/v0.8/ConfirmedOwnerWithProposal.sol\":1016:1281  function acceptOwnership() external override {... */\n    tag_18:\n        /* \"@chainlink/contracts/src/v0.8/ConfirmedOwnerWithProposal.sol\":1089:1103  s_pendingOwner */\n      and(sub(shl(0xa0, 0x01), 0x01), sload(0x01))\n        /* \"@chainlink/contracts/src/v0.8/ConfirmedOwnerWithProposal.sol\":1075:1085  msg.sender */\n      caller\n        /* \"@chainlink/contracts/src/v0.8/ConfirmedOwnerWithProposal.sol\":1075:1103  msg.sender == s_pendingOwner */\n      eq\n        /* \"@chainlink/contracts/src/v0.8/ConfirmedOwnerWithProposal.sol\":1067:1130  require(msg.sender == s_pendingOwner, \"Must be proposed owner\") */\n      tag_56\n      jumpi\n      mload(0x40)\n      shl(0xe5, 0x461bcd)\n      dup2\n      mstore\n        /* \"#utility.yul\":3771:3773   */\n      0x20\n        /* \"@chainlink/contracts/src/v0.8/ConfirmedOwnerWithProposal.sol\":1067:1130  require(msg.sender == s_pendingOwner, \"Must be proposed owner\") */\n      0x04\n      dup3\n      add\n        /* \"#utility.yul\":3753:3774   */\n      mstore\n        /* \"#utility.yul\":3810:3812   */\n      0x16\n        /* \"#utility.yul\":3790:3808   */\n      0x24\n      dup3\n      add\n        /* \"#utility.yul\":3783:3813   */\n      mstore\n      shl(0x51, 0x26bab9ba10313290383937b837b9b2b21037bbb732b9)\n        /* \"#utility.yul\":3829:3847   */\n      0x44\n      dup3\n      add\n        /* \"#utility.yul\":3822:3874   */\n      mstore\n        /* \"#utility.yul\":3891:3909   */\n      0x64\n      add\n        /* \"@chainlink/contracts/src/v0.8/ConfirmedOwnerWithProposal.sol\":1067:1130  require(msg.sender == s_pendingOwner, \"Must be proposed owner\") */\n      tag_51\n        /* \"#utility.yul\":3569:3915   */\n      jump\n        /* \"@chainlink/contracts/src/v0.8/ConfirmedOwnerWithProposal.sol\":1067:1130  require(msg.sender == s_pendingOwner, \"Must be proposed owner\") */\n    tag_56:\n        /* \"@chainlink/contracts/src/v0.8/ConfirmedOwnerWithProposal.sol\":1137:1153  address oldOwner */\n      0x00\n        /* \"@chainlink/contracts/src/v0.8/ConfirmedOwnerWithProposal.sol\":1156:1163  s_owner */\n      dup1\n      sload\n        /* \"@chainlink/contracts/src/v0.8/ConfirmedOwnerWithProposal.sol\":1179:1189  msg.sender */\n      caller\n      not(sub(shl(0xa0, 0x01), 0x01))\n        /* \"@chainlink/contracts/src/v0.8/ConfirmedOwnerWithProposal.sol\":1169:1189  s_owner = msg.sender */\n      dup1\n      dup4\n      and\n      dup3\n      or\n      dup5\n      sstore\n      0x01\n        /* \"@chainlink/contracts/src/v0.8/ConfirmedOwnerWithProposal.sol\":1195:1222  s_pendingOwner = address(0) */\n      dup1\n      sload\n      swap1\n      swap2\n      and\n      swap1\n      sstore\n        /* \"@chainlink/contracts/src/v0.8/ConfirmedOwnerWithProposal.sol\":1234:1276  OwnershipTransferred(oldOwner, msg.sender) */\n      mload(0x40)\n      sub(shl(0xa0, 0x01), 0x01)\n        /* \"@chainlink/contracts/src/v0.8/ConfirmedOwnerWithProposal.sol\":1156:1163  s_owner */\n      swap1\n      swap3\n      and\n      swap3\n        /* \"@chainlink/contracts/src/v0.8/ConfirmedOwnerWithProposal.sol\":1179:1189  msg.sender */\n      swap1\n      swap2\n        /* \"@chainlink/contracts/src/v0.8/ConfirmedOwnerWithProposal.sol\":1156:1163  s_owner */\n      dup4\n      swap2\n        /* \"@chainlink/contracts/src/v0.8/ConfirmedOwnerWithProposal.sol\":1234:1276  OwnershipTransferred(oldOwner, msg.sender) */\n      0x8be0079c531659141344cd1fd0a4f28419497f9722a3daafe3b4186f6b6457e0\n      swap2\n      log3\n        /* \"@chainlink/contracts/src/v0.8/ConfirmedOwnerWithProposal.sol\":1061:1281  {... */\n      pop\n        /* \"@chainlink/contracts/src/v0.8/ConfirmedOwnerWithProposal.sol\":1016:1281  function acceptOwnership() external override {... */\n      jump\t// out\n        /* \"docs.chain.link/samples/VRF/VRFv2Consumer.sol\":1350:1377  uint256[] public requestIds */\n    tag_22:\n      0x04\n      dup2\n      dup2\n      sload\n      dup2\n      lt\n      tag_59\n      jumpi\n      0x00\n      dup1\n      revert\n    tag_59:\n      0x00\n      swap2\n      dup3\n      mstore\n      0x20\n      swap1\n      swap2\n      keccak256\n      add\n      sload\n      swap1\n      pop\n      dup2\n      jump\t// out\n        /* \"docs.chain.link/samples/VRF/VRFv2Consumer.sol\":3974:4299  function getRequestStatus(... */\n    tag_36:\n        /* \"docs.chain.link/samples/VRF/VRFv2Consumer.sol\":4057:4071  bool fulfilled */\n      0x00\n        /* \"docs.chain.link/samples/VRF/VRFv2Consumer.sol\":4121:4143  s_requests[_requestId] */\n      dup2\n      dup2\n      mstore\n        /* \"docs.chain.link/samples/VRF/VRFv2Consumer.sol\":4121:4131  s_requests */\n      0x02\n        /* \"docs.chain.link/samples/VRF/VRFv2Consumer.sol\":4121:4143  s_requests[_requestId] */\n      0x20\n      mstore\n      0x40\n      dup2\n      keccak256\n        /* \"docs.chain.link/samples/VRF/VRFv2Consumer.sol\":4121:4150  s_requests[_requestId].exists */\n      sload\n        /* \"docs.chain.link/samples/VRF/VRFv2Consumer.sol\":4073:4101  uint256[] memory randomWords */\n      0x60\n      swap1\n        /* \"docs.chain.link/samples/VRF/VRFv2Consumer.sol\":4121:4150  s_requests[_requestId].exists */\n      0x0100\n      swap1\n      div\n      0xff\n      and\n        /* \"docs.chain.link/samples/VRF/VRFv2Consumer.sol\":4113:4172  require(s_requests[_requestId].exists, \"request not found\") */\n      tag_63\n      jumpi\n      mload(0x40)\n      shl(0xe5, 0x461bcd)\n      dup2\n      mstore\n        /* \"#utility.yul\":4122:4124   */\n      0x20\n        /* \"docs.chain.link/samples/VRF/VRFv2Consumer.sol\":4113:4172  require(s_requests[_requestId].exists, \"request not found\") */\n      0x04\n      dup3\n      add\n        /* \"#utility.yul\":4104:4125   */\n      mstore\n        /* \"#utility.yul\":4161:4163   */\n      0x11\n        /* \"#utility.yul\":4141:4159   */\n      0x24\n      dup3\n      add\n        /* \"#utility.yul\":4134:4164   */\n      mstore\n      shl(0x7a, 0x1c995c5d595cdd081b9bdd08199bdd5b99)\n        /* \"#utility.yul\":4180:4198   */\n      0x44\n      dup3\n      add\n        /* \"#utility.yul\":4173:4220   */\n      mstore\n        /* \"#utility.yul\":4237:4255   */\n      0x64\n      add\n        /* \"docs.chain.link/samples/VRF/VRFv2Consumer.sol\":4113:4172  require(s_requests[_requestId].exists, \"request not found\") */\n      tag_51\n        /* \"#utility.yul\":3920:4261   */\n      jump\n        /* \"docs.chain.link/samples/VRF/VRFv2Consumer.sol\":4113:4172  require(s_requests[_requestId].exists, \"request not found\") */\n    tag_63:\n        /* \"docs.chain.link/samples/VRF/VRFv2Consumer.sol\":4182:4210  RequestStatus memory request */\n      0x00\n        /* \"docs.chain.link/samples/VRF/VRFv2Consumer.sol\":4213:4235  s_requests[_requestId] */\n      dup4\n      dup2\n      mstore\n        /* \"docs.chain.link/samples/VRF/VRFv2Consumer.sol\":4213:4223  s_requests */\n      0x02\n        /* \"docs.chain.link/samples/VRF/VRFv2Consumer.sol\":4213:4235  s_requests[_requestId] */\n      0x20\n      swap1\n      dup2\n      mstore\n      0x40\n      dup1\n      dup4\n      keccak256\n        /* \"docs.chain.link/samples/VRF/VRFv2Consumer.sol\":4182:4235  RequestStatus memory request = s_requests[_requestId] */\n      dup2\n      mload\n      0x60\n      dup2\n      add\n      dup4\n      mstore\n      dup2\n      sload\n      0xff\n      dup1\n      dup3\n      and\n      iszero\n      iszero\n      dup4\n      mstore\n      0x0100\n      swap1\n      swap2\n      div\n      and\n      iszero\n      iszero\n      dup2\n      dup6\n      add\n      mstore\n      0x01\n      dup3\n      add\n      dup1\n      sload\n      dup5\n      mload\n      dup2\n      dup8\n      mul\n      dup2\n      add\n      dup8\n      add\n      dup7\n      mstore\n      dup2\n      dup2\n      mstore\n      swap3\n      swap6\n        /* \"docs.chain.link/samples/VRF/VRFv2Consumer.sol\":4213:4235  s_requests[_requestId] */\n      swap4\n      swap5\n        /* \"docs.chain.link/samples/VRF/VRFv2Consumer.sol\":4182:4235  RequestStatus memory request = s_requests[_requestId] */\n      dup7\n      add\n      swap4\n      dup4\n      add\n      dup3\n      dup3\n      dup1\n      iszero\n      tag_66\n      jumpi\n      0x20\n      mul\n      dup3\n      add\n      swap2\n      swap1\n      0x00\n      mstore\n      keccak256(0x00, 0x20)\n      swap1\n    tag_67:\n      dup2\n      sload\n      dup2\n      mstore\n      0x20\n      add\n      swap1\n      0x01\n      add\n      swap1\n      dup1\n      dup4\n      gt\n      tag_67\n      jumpi\n    tag_66:\n      pop\n      pop\n      pop\n      pop\n      pop\n      dup2\n      mstore\n      pop\n      pop\n      swap1\n      pop\n        /* \"docs.chain.link/samples/VRF/VRFv2Consumer.sol\":4253:4260  request */\n      dup1\n        /* \"docs.chain.link/samples/VRF/VRFv2Consumer.sol\":4253:4270  request.fulfilled */\n      0x00\n      add\n      mload\n        /* \"docs.chain.link/samples/VRF/VRFv2Consumer.sol\":4272:4279  request */\n      dup2\n        /* \"docs.chain.link/samples/VRF/VRFv2Consumer.sol\":4272:4291  request.randomWords */\n      0x40\n      add\n      mload\n        /* \"docs.chain.link/samples/VRF/VRFv2Consumer.sol\":4245:4292  return (request.fulfilled, request.randomWords) */\n      swap3\n      pop\n      swap3\n      pop\n      pop\n        /* \"docs.chain.link/samples/VRF/VRFv2Consumer.sol\":3974:4299  function getRequestStatus(... */\n      swap2\n      pop\n      swap2\n      jump\t// out\n        /* \"docs.chain.link/samples/VRF/VRFv2Consumer.sol\":2927:3602  function requestRandomWords()... */\n    tag_40:\n        /* \"docs.chain.link/samples/VRF/VRFv2Consumer.sol\":3009:3026  uint256 requestId */\n      0x00\n        /* \"@chainlink/contracts/src/v0.8/ConfirmedOwnerWithProposal.sol\":1956:1976  _validateOwnership() */\n      tag_69\n        /* \"@chainlink/contracts/src/v0.8/ConfirmedOwnerWithProposal.sol\":1956:1974  _validateOwnership */\n      tag_70\n        /* \"@chainlink/contracts/src/v0.8/ConfirmedOwnerWithProposal.sol\":1956:1976  _validateOwnership() */\n      jump\t// in\n    tag_69:\n        /* \"docs.chain.link/samples/VRF/VRFv2Consumer.sol\":3116:3127  COORDINATOR */\n      sload(0x03)\n        /* \"docs.chain.link/samples/VRF/VRFv2Consumer.sol\":3160:3167  keyHash */\n      sload(0x06)\n        /* \"docs.chain.link/samples/VRF/VRFv2Consumer.sol\":3211:3231  requestConfirmations */\n      sload(0x07)\n        /* \"docs.chain.link/samples/VRF/VRFv2Consumer.sol\":3116:3293  COORDINATOR.requestRandomWords(... */\n      mload(0x40)\n      shl(0xe4, 0x05d3b1d3)\n      dup2\n      mstore\n        /* \"docs.chain.link/samples/VRF/VRFv2Consumer.sol\":3211:3231  requestConfirmations */\n      0x04\n        /* \"docs.chain.link/samples/VRF/VRFv2Consumer.sol\":3116:3293  COORDINATOR.requestRandomWords(... */\n      dup2\n      add\n        /* \"#utility.yul\":4517:4542   */\n      swap3\n      swap1\n      swap3\n      mstore\n      shl(0xa0, 0x01)\n        /* \"docs.chain.link/samples/VRF/VRFv2Consumer.sol\":3181:3197  s_subscriptionId */\n      dup4\n      div\n      0xffffffffffffffff\n      and\n        /* \"#utility.yul\":4558:4576   */\n      0x24\n      dup4\n      add\n        /* \"#utility.yul\":4551:4610   */\n      mstore\n        /* \"docs.chain.link/samples/VRF/VRFv2Consumer.sol\":3211:3231  requestConfirmations */\n      0x0100000000\n      dup2\n      div\n      0xffff\n      and\n        /* \"#utility.yul\":4626:4644   */\n      0x44\n      dup4\n      add\n        /* \"#utility.yul\":4619:4666   */\n      mstore\n        /* \"docs.chain.link/samples/VRF/VRFv2Consumer.sol\":3245:3261  callbackGasLimit */\n      0xffffffff\n      dup1\n      dup3\n      and\n        /* \"#utility.yul\":4711:4729   */\n      0x64\n      dup5\n      add\n        /* \"#utility.yul\":4704:4747   */\n      mstore\n        /* \"docs.chain.link/samples/VRF/VRFv2Consumer.sol\":3275:3283  numWords */\n      0x01000000000000\n      swap1\n      swap2\n      div\n      and\n        /* \"#utility.yul\":4763:4782   */\n      0x84\n      dup3\n      add\n        /* \"#utility.yul\":4756:4800   */\n      mstore\n      sub(shl(0xa0, 0x01), 0x01)\n        /* \"docs.chain.link/samples/VRF/VRFv2Consumer.sol\":3116:3127  COORDINATOR */\n      swap1\n      swap2\n      and\n      swap1\n        /* \"docs.chain.link/samples/VRF/VRFv2Consumer.sol\":3116:3146  COORDINATOR.requestRandomWords */\n      0x5d3b1d30\n      swap1\n        /* \"#utility.yul\":4489:4508   */\n      0xa4\n      add\n        /* \"docs.chain.link/samples/VRF/VRFv2Consumer.sol\":3116:3293  COORDINATOR.requestRandomWords(... */\n      0x20\n      mload(0x40)\n      dup1\n      dup4\n      sub\n      dup2\n      0x00\n      dup8\n      gas\n      call\n      iszero\n      dup1\n      iszero\n      tag_75\n      jumpi\n      returndatasize\n      0x00\n      dup1\n      returndatacopy\n      revert(0x00, returndatasize)\n    tag_75:\n      pop\n      pop\n      pop\n      pop\n      mload(0x40)\n      returndatasize\n      not(0x1f)\n      0x1f\n      dup3\n      add\n      and\n      dup3\n      add\n      dup1\n      0x40\n      mstore\n      pop\n      dup2\n      add\n      swap1\n      tag_76\n      swap2\n      swap1\n      tag_77\n      jump\t// in\n    tag_76:\n        /* \"docs.chain.link/samples/VRF/VRFv2Consumer.sol\":3327:3451  RequestStatus({... */\n      0x40\n      dup1\n      mload\n      0x60\n      dup2\n      add\n      dup3\n      mstore\n      0x00\n      dup1\n      dup3\n      mstore\n      0x01\n      0x20\n      dup1\n      dup5\n      add\n      dup3\n      dup2\n      mstore\n        /* \"docs.chain.link/samples/VRF/VRFv2Consumer.sol\":3368:3384  new uint256[](0) */\n      dup6\n      mload\n      dup5\n      dup2\n      mstore\n      dup1\n      dup4\n      add\n      dup8\n      mstore\n        /* \"docs.chain.link/samples/VRF/VRFv2Consumer.sol\":3327:3451  RequestStatus({... */\n      dup6\n      dup8\n      add\n      swap1\n      dup2\n      mstore\n        /* \"docs.chain.link/samples/VRF/VRFv2Consumer.sol\":3303:3324  s_requests[requestId] */\n      dup8\n      dup6\n      mstore\n        /* \"docs.chain.link/samples/VRF/VRFv2Consumer.sol\":3303:3313  s_requests */\n      0x02\n        /* \"docs.chain.link/samples/VRF/VRFv2Consumer.sol\":3303:3324  s_requests[requestId] */\n      dup4\n      mstore\n      swap6\n      swap1\n      swap4\n      keccak256\n        /* \"docs.chain.link/samples/VRF/VRFv2Consumer.sol\":3303:3451  s_requests[requestId] = RequestStatus({... */\n      dup5\n      mload\n      dup2\n      sload\n      swap5\n      mload\n      not(0xffff)\n      swap1\n      swap6\n      and\n      swap1\n      iszero\n      iszero\n      not(0xff00)\n      and\n      or\n      0x0100\n      swap5\n      iszero\n      iszero\n      swap5\n      swap1\n      swap5\n      mul\n      swap4\n      swap1\n      swap4\n      or\n      dup4\n      sstore\n      swap4\n      mload\n      dup1\n      mload\n        /* \"docs.chain.link/samples/VRF/VRFv2Consumer.sol\":3104:3293  requestId = COORDINATOR.requestRandomWords(... */\n      swap6\n      swap7\n      pop\n        /* \"docs.chain.link/samples/VRF/VRFv2Consumer.sol\":3327:3451  RequestStatus({... */\n      swap3\n      swap5\n        /* \"docs.chain.link/samples/VRF/VRFv2Consumer.sol\":3303:3324  s_requests[requestId] */\n      swap2\n      swap4\n        /* \"docs.chain.link/samples/VRF/VRFv2Consumer.sol\":3303:3451  s_requests[requestId] = RequestStatus({... */\n      tag_82\n      swap4\n      swap2\n      dup6\n      add\n      swap3\n      swap2\n      add\n      swap1\n      tag_83\n      jump\t// in\n    tag_82:\n      pop\n      pop\n        /* \"docs.chain.link/samples/VRF/VRFv2Consumer.sol\":3461:3471  requestIds */\n      0x04\n        /* \"docs.chain.link/samples/VRF/VRFv2Consumer.sol\":3461:3487  requestIds.push(requestId) */\n      dup1\n      sload\n      0x01\n      dup2\n      add\n      dup3\n      sstore\n      0x00\n      swap2\n      swap1\n      swap2\n      mstore\n      0x8a35acfbc15ff81a39ae7d344fd709f28e8600b4aa8c65c6b64bfe7fe36bd19b\n      add\n      dup3\n      swap1\n      sstore\n      pop\n        /* \"docs.chain.link/samples/VRF/VRFv2Consumer.sol\":3497:3510  lastRequestId */\n      0x05\n        /* \"docs.chain.link/samples/VRF/VRFv2Consumer.sol\":3497:3522  lastRequestId = requestId */\n      dup2\n      swap1\n      sstore\n        /* \"docs.chain.link/samples/VRF/VRFv2Consumer.sol\":3560:3568  numWords */\n      sload(0x07)\n        /* \"docs.chain.link/samples/VRF/VRFv2Consumer.sol\":3537:3569  RequestSent(requestId, numWords) */\n      0x40\n      dup1\n      mload\n        /* \"#utility.yul\":5172:5197   */\n      dup4\n      dup2\n      mstore\n        /* \"docs.chain.link/samples/VRF/VRFv2Consumer.sol\":3560:3568  numWords */\n      0x01000000000000\n      swap1\n      swap3\n      div\n      0xffffffff\n      and\n        /* \"#utility.yul\":5228:5230   */\n      0x20\n        /* \"#utility.yul\":5213:5231   */\n      dup4\n      add\n        /* \"#utility.yul\":5206:5257   */\n      mstore\n        /* \"docs.chain.link/samples/VRF/VRFv2Consumer.sol\":3537:3569  RequestSent(requestId, numWords) */\n      0xcc58b13ad3eab50626c6a6300b1d139cd6ebb1688a7cced9461c2f7e762665ee\n      swap2\n        /* \"#utility.yul\":5145:5163   */\n      add\n        /* \"docs.chain.link/samples/VRF/VRFv2Consumer.sol\":3537:3569  RequestSent(requestId, numWords) */\n      mload(0x40)\n      dup1\n      swap2\n      sub\n      swap1\n      log1\n        /* \"docs.chain.link/samples/VRF/VRFv2Consumer.sol\":2927:3602  function requestRandomWords()... */\n      swap1\n      jump\t// out\n        /* \"@chainlink/contracts/src/v0.8/ConfirmedOwnerWithProposal.sol\":826:924  function transferOwnership(address to) public override onlyOwner {... */\n    tag_45:\n        /* \"@chainlink/contracts/src/v0.8/ConfirmedOwnerWithProposal.sol\":1956:1976  _validateOwnership() */\n      tag_88\n        /* \"@chainlink/contracts/src/v0.8/ConfirmedOwnerWithProposal.sol\":1956:1974  _validateOwnership */\n      tag_70\n        /* \"@chainlink/contracts/src/v0.8/ConfirmedOwnerWithProposal.sol\":1956:1976  _validateOwnership() */\n      jump\t// in\n    tag_88:\n        /* \"@chainlink/contracts/src/v0.8/ConfirmedOwnerWithProposal.sol\":897:919  _transferOwnership(to) */\n      tag_90\n        /* \"@chainlink/contracts/src/v0.8/ConfirmedOwnerWithProposal.sol\":916:918  to */\n      dup2\n        /* \"@chainlink/contracts/src/v0.8/ConfirmedOwnerWithProposal.sol\":897:915  _transferOwnership */\n      tag_91\n        /* \"@chainlink/contracts/src/v0.8/ConfirmedOwnerWithProposal.sol\":897:919  _transferOwnership(to) */\n      jump\t// in\n    tag_90:\n        /* \"@chainlink/contracts/src/v0.8/ConfirmedOwnerWithProposal.sol\":826:924  function transferOwnership(address to) public override onlyOwner {... */\n      pop\n      jump\t// out\n        /* \"docs.chain.link/samples/VRF/VRFv2Consumer.sol\":3608:3968  function fulfillRandomWords(... */\n    tag_54:\n        /* \"docs.chain.link/samples/VRF/VRFv2Consumer.sol\":3745:3767  s_requests[_requestId] */\n      0x00\n      dup3\n      dup2\n      mstore\n        /* \"docs.chain.link/samples/VRF/VRFv2Consumer.sol\":3745:3755  s_requests */\n      0x02\n        /* \"docs.chain.link/samples/VRF/VRFv2Consumer.sol\":3745:3767  s_requests[_requestId] */\n      0x20\n      mstore\n      0x40\n      swap1\n      keccak256\n        /* \"docs.chain.link/samples/VRF/VRFv2Consumer.sol\":3745:3774  s_requests[_requestId].exists */\n      sload\n      0x0100\n      swap1\n      div\n      0xff\n      and\n        /* \"docs.chain.link/samples/VRF/VRFv2Consumer.sol\":3737:3796  require(s_requests[_requestId].exists, \"request not found\") */\n      tag_93\n      jumpi\n      mload(0x40)\n      shl(0xe5, 0x461bcd)\n      dup2\n      mstore\n        /* \"#utility.yul\":4122:4124   */\n      0x20\n        /* \"docs.chain.link/samples/VRF/VRFv2Consumer.sol\":3737:3796  require(s_requests[_requestId].exists, \"request not found\") */\n      0x04\n      dup3\n      add\n        /* \"#utility.yul\":4104:4125   */\n      mstore\n        /* \"#utility.yul\":4161:4163   */\n      0x11\n        /* \"#utility.yul\":4141:4159   */\n      0x24\n      dup3\n      add\n        /* \"#utility.yul\":4134:4164   */\n      mstore\n      shl(0x7a, 0x1c995c5d595cdd081b9bdd08199bdd5b99)\n        /* \"#utility.yul\":4180:4198   */\n      0x44\n      dup3\n      add\n        /* \"#utility.yul\":4173:4220   */\n      mstore\n        /* \"#utility.yul\":4237:4255   */\n      0x64\n      add\n        /* \"docs.chain.link/samples/VRF/VRFv2Consumer.sol\":3737:3796  require(s_requests[_requestId].exists, \"request not found\") */\n      tag_51\n        /* \"#utility.yul\":3920:4261   */\n      jump\n        /* \"docs.chain.link/samples/VRF/VRFv2Consumer.sol\":3737:3796  require(s_requests[_requestId].exists, \"request not found\") */\n    tag_93:\n        /* \"docs.chain.link/samples/VRF/VRFv2Consumer.sol\":3806:3828  s_requests[_requestId] */\n      0x00\n      dup3\n      dup2\n      mstore\n        /* \"docs.chain.link/samples/VRF/VRFv2Consumer.sol\":3806:3816  s_requests */\n      0x02\n        /* \"docs.chain.link/samples/VRF/VRFv2Consumer.sol\":3806:3828  s_requests[_requestId] */\n      0x20\n      swap1\n      dup2\n      mstore\n      0x40\n      swap1\n      swap2\n      keccak256\n        /* \"docs.chain.link/samples/VRF/VRFv2Consumer.sol\":3806:3845  s_requests[_requestId].fulfilled = true */\n      dup1\n      sload\n      not(0xff)\n      and\n        /* \"docs.chain.link/samples/VRF/VRFv2Consumer.sol\":3841:3845  true */\n      0x01\n        /* \"docs.chain.link/samples/VRF/VRFv2Consumer.sol\":3806:3845  s_requests[_requestId].fulfilled = true */\n      swap1\n      dup2\n      or\n      dup3\n      sstore\n        /* \"docs.chain.link/samples/VRF/VRFv2Consumer.sol\":3855:3904  s_requests[_requestId].randomWords = _randomWords */\n      dup4\n      mload\n      tag_95\n      swap4\n        /* \"docs.chain.link/samples/VRF/VRFv2Consumer.sol\":3855:3889  s_requests[_requestId].randomWords */\n      swap3\n      swap1\n      swap2\n      add\n      swap2\n        /* \"docs.chain.link/samples/VRF/VRFv2Consumer.sol\":3855:3904  s_requests[_requestId].randomWords = _randomWords */\n      dup5\n      add\n      swap1\n      tag_83\n      jump\t// in\n    tag_95:\n      pop\n        /* \"docs.chain.link/samples/VRF/VRFv2Consumer.sol\":3919:3961  RequestFulfilled(_requestId, _randomWords) */\n      0xfe2e2d779dba245964d4e3ef9b994be63856fd568bf7d3ca9e224755cb1bd54d\n        /* \"docs.chain.link/samples/VRF/VRFv2Consumer.sol\":3936:3946  _requestId */\n      dup3\n        /* \"docs.chain.link/samples/VRF/VRFv2Consumer.sol\":3948:3960  _randomWords */\n      dup3\n        /* \"docs.chain.link/samples/VRF/VRFv2Consumer.sol\":3919:3961  RequestFulfilled(_requestId, _randomWords) */\n      mload(0x40)\n      tag_96\n      swap3\n      swap2\n      swap1\n      tag_97\n      jump\t// in\n    tag_96:\n      mload(0x40)\n      dup1\n      swap2\n      sub\n      swap1\n      log1\n        /* \"docs.chain.link/samples/VRF/VRFv2Consumer.sol\":3608:3968  function fulfillRandomWords(... */\n      pop\n      pop\n      jump\t// out\n        /* \"@chainlink/contracts/src/v0.8/ConfirmedOwnerWithProposal.sol\":1730:1841  function _validateOwnership() internal view {... */\n    tag_70:\n        /* \"@chainlink/contracts/src/v0.8/ConfirmedOwnerWithProposal.sol\":1802:1809  s_owner */\n      and(sub(shl(0xa0, 0x01), 0x01), sload(0x00))\n        /* \"@chainlink/contracts/src/v0.8/ConfirmedOwnerWithProposal.sol\":1788:1798  msg.sender */\n      caller\n        /* \"@chainlink/contracts/src/v0.8/ConfirmedOwnerWithProposal.sol\":1788:1809  msg.sender == s_owner */\n      eq\n        /* \"@chainlink/contracts/src/v0.8/ConfirmedOwnerWithProposal.sol\":1780:1836  require(msg.sender == s_owner, \"Only callable by owner\") */\n      tag_99\n      jumpi\n      mload(0x40)\n      shl(0xe5, 0x461bcd)\n      dup2\n      mstore\n        /* \"#utility.yul\":5807:5809   */\n      0x20\n        /* \"@chainlink/contracts/src/v0.8/ConfirmedOwnerWithProposal.sol\":1780:1836  require(msg.sender == s_owner, \"Only callable by owner\") */\n      0x04\n      dup3\n      add\n        /* \"#utility.yul\":5789:5810   */\n      mstore\n        /* \"#utility.yul\":5846:5848   */\n      0x16\n        /* \"#utility.yul\":5826:5844   */\n      0x24\n      dup3\n      add\n        /* \"#utility.yul\":5819:5849   */\n      mstore\n      shl(0x51, 0x27b7363c9031b0b63630b1363290313c9037bbb732b9)\n        /* \"#utility.yul\":5865:5883   */\n      0x44\n      dup3\n      add\n        /* \"#utility.yul\":5858:5910   */\n      mstore\n        /* \"#utility.yul\":5927:5945   */\n      0x64\n      add\n        /* \"@chainlink/contracts/src/v0.8/ConfirmedOwnerWithProposal.sol\":1780:1836  require(msg.sender == s_owner, \"Only callable by owner\") */\n      tag_51\n        /* \"#utility.yul\":5605:5951   */\n      jump\n        /* \"@chainlink/contracts/src/v0.8/ConfirmedOwnerWithProposal.sol\":1780:1836  require(msg.sender == s_owner, \"Only callable by owner\") */\n    tag_99:\n        /* \"@chainlink/contracts/src/v0.8/ConfirmedOwnerWithProposal.sol\":1730:1841  function _validateOwnership() internal view {... */\n      jump\t// out\n        /* \"@chainlink/contracts/src/v0.8/ConfirmedOwnerWithProposal.sol\":1497:1685  function _transferOwnership(address to) private {... */\n    tag_91:\n        /* \"@chainlink/contracts/src/v0.8/ConfirmedOwnerWithProposal.sol\":1565:1575  msg.sender */\n      caller\n      sub(shl(0xa0, 0x01), 0x01)\n        /* \"@chainlink/contracts/src/v0.8/ConfirmedOwnerWithProposal.sol\":1559:1575  to != msg.sender */\n      dup3\n      and\n      sub\n        /* \"@chainlink/contracts/src/v0.8/ConfirmedOwnerWithProposal.sol\":1551:1603  require(to != msg.sender, \"Cannot transfer to self\") */\n      tag_103\n      jumpi\n      mload(0x40)\n      shl(0xe5, 0x461bcd)\n      dup2\n      mstore\n        /* \"#utility.yul\":6158:6160   */\n      0x20\n        /* \"@chainlink/contracts/src/v0.8/ConfirmedOwnerWithProposal.sol\":1551:1603  require(to != msg.sender, \"Cannot transfer to self\") */\n      0x04\n      dup3\n      add\n        /* \"#utility.yul\":6140:6161   */\n      mstore\n        /* \"#utility.yul\":6197:6199   */\n      0x17\n        /* \"#utility.yul\":6177:6195   */\n      0x24\n      dup3\n      add\n        /* \"#utility.yul\":6170:6200   */\n      mstore\n        /* \"#utility.yul\":6236:6261   */\n      0x43616e6e6f74207472616e7366657220746f2073656c66000000000000000000\n        /* \"#utility.yul\":6216:6234   */\n      0x44\n      dup3\n      add\n        /* \"#utility.yul\":6209:6262   */\n      mstore\n        /* \"#utility.yul\":6279:6297   */\n      0x64\n      add\n        /* \"@chainlink/contracts/src/v0.8/ConfirmedOwnerWithProposal.sol\":1551:1603  require(to != msg.sender, \"Cannot transfer to self\") */\n      tag_51\n        /* \"#utility.yul\":5956:6303   */\n      jump\n        /* \"@chainlink/contracts/src/v0.8/ConfirmedOwnerWithProposal.sol\":1551:1603  require(to != msg.sender, \"Cannot transfer to self\") */\n    tag_103:\n        /* \"@chainlink/contracts/src/v0.8/ConfirmedOwnerWithProposal.sol\":1610:1624  s_pendingOwner */\n      0x01\n        /* \"@chainlink/contracts/src/v0.8/ConfirmedOwnerWithProposal.sol\":1610:1629  s_pendingOwner = to */\n      dup1\n      sload\n      not(sub(shl(0xa0, 0x01), 0x01))\n      and\n      sub(shl(0xa0, 0x01), 0x01)\n      dup4\n      dup2\n      and\n      swap2\n      dup3\n      or\n      swap1\n      swap3\n      sstore\n      0x00\n        /* \"@chainlink/contracts/src/v0.8/ConfirmedOwnerWithProposal.sol\":1668:1675  s_owner */\n      dup1\n      sload\n        /* \"@chainlink/contracts/src/v0.8/ConfirmedOwnerWithProposal.sol\":1641:1680  OwnershipTransferRequested(s_owner, to) */\n      mload(0x40)\n        /* \"@chainlink/contracts/src/v0.8/ConfirmedOwnerWithProposal.sol\":1610:1629  s_pendingOwner = to */\n      swap3\n      swap4\n        /* \"@chainlink/contracts/src/v0.8/ConfirmedOwnerWithProposal.sol\":1668:1675  s_owner */\n      and\n      swap2\n        /* \"@chainlink/contracts/src/v0.8/ConfirmedOwnerWithProposal.sol\":1641:1680  OwnershipTransferRequested(s_owner, to) */\n      0xed8889f560326eb138920d842192f0eb3dd22b4f139c87a2c57538e05bae1278\n      swap2\n      swap1\n      log3\n        /* \"@chainlink/contracts/src/v0.8/ConfirmedOwnerWithProposal.sol\":1497:1685  function _transferOwnership(address to) private {... */\n      pop\n      jump\t// out\n    tag_83:\n      dup3\n      dup1\n      sload\n      dup3\n      dup3\n      sstore\n      swap1\n      0x00\n      mstore\n      keccak256(0x00, 0x20)\n      swap1\n      dup2\n      add\n      swap3\n      dup3\n      iszero\n      tag_108\n      jumpi\n      swap2\n      0x20\n      mul\n      dup3\n      add\n    tag_107:\n      dup3\n      dup2\n      gt\n      iszero\n      tag_108\n      jumpi\n      dup3\n      mload\n      dup3\n      sstore\n      swap2\n      0x20\n      add\n      swap2\n      swap1\n      0x01\n      add\n      swap1\n      jump(tag_107)\n    tag_108:\n      pop\n      tag_109\n      swap3\n      swap2\n      pop\n      tag_110\n      jump\t// in\n    tag_109:\n      pop\n      swap1\n      jump\t// out\n    tag_110:\n    tag_111:\n      dup1\n      dup3\n      gt\n      iszero\n      tag_109\n      jumpi\n      0x00\n      dup2\n      sstore\n      0x01\n      add\n      jump(tag_111)\n        /* \"#utility.yul\":14:141   */\n    tag_80:\n        /* \"#utility.yul\":75:85   */\n      0x4e487b71\n        /* \"#utility.yul\":70:73   */\n      0xe0\n        /* \"#utility.yul\":66:86   */\n      shl\n        /* \"#utility.yul\":63:64   */\n      0x00\n        /* \"#utility.yul\":56:87   */\n      mstore\n        /* \"#utility.yul\":106:110   */\n      0x41\n        /* \"#utility.yul\":103:104   */\n      0x04\n        /* \"#utility.yul\":96:111   */\n      mstore\n        /* \"#utility.yul\":130:134   */\n      0x24\n        /* \"#utility.yul\":127:128   */\n      0x00\n        /* \"#utility.yul\":120:135   */\n      revert\n        /* \"#utility.yul\":146:1329   */\n    tag_15:\n        /* \"#utility.yul\":239:245   */\n      0x00\n        /* \"#utility.yul\":247:253   */\n      dup1\n        /* \"#utility.yul\":300:302   */\n      0x40\n        /* \"#utility.yul\":288:297   */\n      dup4\n        /* \"#utility.yul\":279:286   */\n      dup6\n        /* \"#utility.yul\":275:298   */\n      sub\n        /* \"#utility.yul\":271:303   */\n      slt\n        /* \"#utility.yul\":268:320   */\n      iszero\n      tag_117\n      jumpi\n        /* \"#utility.yul\":316:317   */\n      0x00\n        /* \"#utility.yul\":313:314   */\n      dup1\n        /* \"#utility.yul\":306:318   */\n      revert\n        /* \"#utility.yul\":268:320   */\n    tag_117:\n        /* \"#utility.yul\":352:361   */\n      dup3\n        /* \"#utility.yul\":339:362   */\n      calldataload\n        /* \"#utility.yul\":329:362   */\n      swap2\n      pop\n        /* \"#utility.yul\":381:383   */\n      0x20\n        /* \"#utility.yul\":434:436   */\n      dup1\n        /* \"#utility.yul\":423:432   */\n      dup5\n        /* \"#utility.yul\":419:437   */\n      add\n        /* \"#utility.yul\":406:438   */\n      calldataload\n        /* \"#utility.yul\":457:475   */\n      0xffffffffffffffff\n        /* \"#utility.yul\":498:500   */\n      dup1\n        /* \"#utility.yul\":490:496   */\n      dup3\n        /* \"#utility.yul\":487:501   */\n      gt\n        /* \"#utility.yul\":484:518   */\n      iszero\n      tag_118\n      jumpi\n        /* \"#utility.yul\":514:515   */\n      0x00\n        /* \"#utility.yul\":511:512   */\n      dup1\n        /* \"#utility.yul\":504:516   */\n      revert\n        /* \"#utility.yul\":484:518   */\n    tag_118:\n        /* \"#utility.yul\":552:558   */\n      dup2\n        /* \"#utility.yul\":541:550   */\n      dup7\n        /* \"#utility.yul\":537:559   */\n      add\n        /* \"#utility.yul\":527:559   */\n      swap2\n      pop\n        /* \"#utility.yul\":597:604   */\n      dup7\n        /* \"#utility.yul\":590:594   */\n      0x1f\n        /* \"#utility.yul\":586:588   */\n      dup4\n        /* \"#utility.yul\":582:595   */\n      add\n        /* \"#utility.yul\":578:605   */\n      slt\n        /* \"#utility.yul\":568:623   */\n      tag_119\n      jumpi\n        /* \"#utility.yul\":619:620   */\n      0x00\n        /* \"#utility.yul\":616:617   */\n      dup1\n        /* \"#utility.yul\":609:621   */\n      revert\n        /* \"#utility.yul\":568:623   */\n    tag_119:\n        /* \"#utility.yul\":655:657   */\n      dup2\n        /* \"#utility.yul\":642:658   */\n      calldataload\n        /* \"#utility.yul\":677:679   */\n      dup2\n        /* \"#utility.yul\":673:675   */\n      dup2\n        /* \"#utility.yul\":670:680   */\n      gt\n        /* \"#utility.yul\":667:703   */\n      iszero\n      tag_121\n      jumpi\n        /* \"#utility.yul\":683:701   */\n      tag_121\n      tag_80\n      jump\t// in\n    tag_121:\n        /* \"#utility.yul\":729:731   */\n      dup1\n        /* \"#utility.yul\":726:727   */\n      0x05\n        /* \"#utility.yul\":722:732   */\n      shl\n        /* \"#utility.yul\":761:763   */\n      0x40\n        /* \"#utility.yul\":755:764   */\n      mload\n        /* \"#utility.yul\":824:826   */\n      0x1f\n        /* \"#utility.yul\":820:827   */\n      not\n        /* \"#utility.yul\":815:817   */\n      0x3f\n        /* \"#utility.yul\":811:813   */\n      dup4\n        /* \"#utility.yul\":807:818   */\n      add\n        /* \"#utility.yul\":803:828   */\n      and\n        /* \"#utility.yul\":795:801   */\n      dup2\n        /* \"#utility.yul\":791:829   */\n      add\n        /* \"#utility.yul\":879:885   */\n      dup2\n        /* \"#utility.yul\":867:877   */\n      dup2\n        /* \"#utility.yul\":864:886   */\n      lt\n        /* \"#utility.yul\":859:861   */\n      dup6\n        /* \"#utility.yul\":847:857   */\n      dup3\n        /* \"#utility.yul\":844:862   */\n      gt\n        /* \"#utility.yul\":841:887   */\n      or\n        /* \"#utility.yul\":838:910   */\n      iszero\n      tag_123\n      jumpi\n        /* \"#utility.yul\":890:908   */\n      tag_123\n      tag_80\n      jump\t// in\n    tag_123:\n        /* \"#utility.yul\":926:928   */\n      0x40\n        /* \"#utility.yul\":919:941   */\n      mstore\n        /* \"#utility.yul\":976:994   */\n      swap2\n      dup3\n      mstore\n        /* \"#utility.yul\":1010:1025   */\n      dup5\n      dup3\n      add\n      swap3\n      pop\n        /* \"#utility.yul\":1052:1063   */\n      dup4\n      dup2\n      add\n        /* \"#utility.yul\":1048:1068   */\n      dup6\n      add\n      swap2\n        /* \"#utility.yul\":1080:1099   */\n      dup10\n      dup4\n      gt\n        /* \"#utility.yul\":1077:1116   */\n      iszero\n      tag_124\n      jumpi\n        /* \"#utility.yul\":1112:1113   */\n      0x00\n        /* \"#utility.yul\":1109:1110   */\n      dup1\n        /* \"#utility.yul\":1102:1114   */\n      revert\n        /* \"#utility.yul\":1077:1116   */\n    tag_124:\n        /* \"#utility.yul\":1136:1147   */\n      swap4\n      dup6\n      add\n      swap4\n        /* \"#utility.yul\":1156:1298   */\n    tag_125:\n        /* \"#utility.yul\":1172:1178   */\n      dup3\n        /* \"#utility.yul\":1167:1170   */\n      dup6\n        /* \"#utility.yul\":1164:1179   */\n      lt\n        /* \"#utility.yul\":1156:1298   */\n      iszero\n      tag_127\n      jumpi\n        /* \"#utility.yul\":1238:1255   */\n      dup5\n      calldataload\n        /* \"#utility.yul\":1226:1256   */\n      dup5\n      mstore\n        /* \"#utility.yul\":1189:1201   */\n      swap4\n      dup6\n      add\n      swap4\n        /* \"#utility.yul\":1276:1288   */\n      swap3\n      dup6\n      add\n      swap3\n        /* \"#utility.yul\":1156:1298   */\n      jump(tag_125)\n    tag_127:\n        /* \"#utility.yul\":1317:1323   */\n      dup1\n        /* \"#utility.yul\":1307:1323   */\n      swap7\n      pop\n      pop\n      pop\n      pop\n      pop\n      pop\n      pop\n        /* \"#utility.yul\":146:1329   */\n      swap3\n      pop\n      swap3\n      swap1\n      pop\n      jump\t// out\n        /* \"#utility.yul\":1334:1514   */\n    tag_21:\n        /* \"#utility.yul\":1393:1399   */\n      0x00\n        /* \"#utility.yul\":1446:1448   */\n      0x20\n        /* \"#utility.yul\":1434:1443   */\n      dup3\n        /* \"#utility.yul\":1425:1432   */\n      dup5\n        /* \"#utility.yul\":1421:1444   */\n      sub\n        /* \"#utility.yul\":1417:1449   */\n      slt\n        /* \"#utility.yul\":1414:1466   */\n      iszero\n      tag_129\n      jumpi\n        /* \"#utility.yul\":1462:1463   */\n      0x00\n        /* \"#utility.yul\":1459:1460   */\n      dup1\n        /* \"#utility.yul\":1452:1464   */\n      revert\n        /* \"#utility.yul\":1414:1466   */\n    tag_129:\n      pop\n        /* \"#utility.yul\":1485:1508   */\n      calldataload\n      swap2\n        /* \"#utility.yul\":1334:1514   */\n      swap1\n      pop\n      jump\t// out\n        /* \"#utility.yul\":2182:2617   */\n    tag_113:\n        /* \"#utility.yul\":2235:2238   */\n      0x00\n        /* \"#utility.yul\":2273:2278   */\n      dup2\n        /* \"#utility.yul\":2267:2279   */\n      mload\n        /* \"#utility.yul\":2300:2306   */\n      dup1\n        /* \"#utility.yul\":2295:2298   */\n      dup5\n        /* \"#utility.yul\":2288:2307   */\n      mstore\n        /* \"#utility.yul\":2326:2330   */\n      0x20\n        /* \"#utility.yul\":2355:2357   */\n      dup1\n        /* \"#utility.yul\":2350:2353   */\n      dup6\n        /* \"#utility.yul\":2346:2358   */\n      add\n        /* \"#utility.yul\":2339:2358   */\n      swap5\n      pop\n        /* \"#utility.yul\":2392:2394   */\n      dup1\n        /* \"#utility.yul\":2385:2390   */\n      dup5\n        /* \"#utility.yul\":2381:2395   */\n      add\n        /* \"#utility.yul\":2413:2414   */\n      0x00\n        /* \"#utility.yul\":2423:2592   */\n    tag_134:\n        /* \"#utility.yul\":2437:2443   */\n      dup4\n        /* \"#utility.yul\":2434:2435   */\n      dup2\n        /* \"#utility.yul\":2431:2444   */\n      lt\n        /* \"#utility.yul\":2423:2592   */\n      iszero\n      tag_136\n      jumpi\n        /* \"#utility.yul\":2498:2511   */\n      dup2\n      mload\n        /* \"#utility.yul\":2486:2512   */\n      dup8\n      mstore\n        /* \"#utility.yul\":2532:2544   */\n      swap6\n      dup3\n      add\n      swap6\n        /* \"#utility.yul\":2567:2582   */\n      swap1\n      dup3\n      add\n      swap1\n        /* \"#utility.yul\":2459:2460   */\n      0x01\n        /* \"#utility.yul\":2452:2461   */\n      add\n        /* \"#utility.yul\":2423:2592   */\n      jump(tag_134)\n    tag_136:\n      pop\n        /* \"#utility.yul\":2608:2611   */\n      swap5\n      swap6\n        /* \"#utility.yul\":2182:2617   */\n      swap5\n      pop\n      pop\n      pop\n      pop\n      pop\n      jump\t// out\n        /* \"#utility.yul\":2622:2964   */\n    tag_38:\n        /* \"#utility.yul\":2837:2843   */\n      dup3\n        /* \"#utility.yul\":2830:2844   */\n      iszero\n        /* \"#utility.yul\":2823:2845   */\n      iszero\n        /* \"#utility.yul\":2812:2821   */\n      dup2\n        /* \"#utility.yul\":2805:2846   */\n      mstore\n        /* \"#utility.yul\":2882:2884   */\n      0x40\n        /* \"#utility.yul\":2877:2879   */\n      0x20\n        /* \"#utility.yul\":2866:2875   */\n      dup3\n        /* \"#utility.yul\":2862:2880   */\n      add\n        /* \"#utility.yul\":2855:2885   */\n      mstore\n        /* \"#utility.yul\":2786:2790   */\n      0x00\n        /* \"#utility.yul\":2902:2958   */\n      tag_138\n        /* \"#utility.yul\":2954:2956   */\n      0x40\n        /* \"#utility.yul\":2943:2952   */\n      dup4\n        /* \"#utility.yul\":2939:2957   */\n      add\n        /* \"#utility.yul\":2931:2937   */\n      dup5\n        /* \"#utility.yul\":2902:2958   */\n      tag_113\n      jump\t// in\n    tag_138:\n        /* \"#utility.yul\":2894:2958   */\n      swap5\n        /* \"#utility.yul\":2622:2964   */\n      swap4\n      pop\n      pop\n      pop\n      pop\n      jump\t// out\n        /* \"#utility.yul\":2969:3255   */\n    tag_44:\n        /* \"#utility.yul\":3028:3034   */\n      0x00\n        /* \"#utility.yul\":3081:3083   */\n      0x20\n        /* \"#utility.yul\":3069:3078   */\n      dup3\n        /* \"#utility.yul\":3060:3067   */\n      dup5\n        /* \"#utility.yul\":3056:3079   */\n      sub\n        /* \"#utility.yul\":3052:3084   */\n      slt\n        /* \"#utility.yul\":3049:3101   */\n      iszero\n      tag_140\n      jumpi\n        /* \"#utility.yul\":3097:3098   */\n      0x00\n        /* \"#utility.yul\":3094:3095   */\n      dup1\n        /* \"#utility.yul\":3087:3099   */\n      revert\n        /* \"#utility.yul\":3049:3101   */\n    tag_140:\n        /* \"#utility.yul\":3123:3146   */\n      dup2\n      calldataload\n      sub(shl(0xa0, 0x01), 0x01)\n        /* \"#utility.yul\":3175:3206   */\n      dup2\n      and\n        /* \"#utility.yul\":3165:3207   */\n      dup2\n      eq\n        /* \"#utility.yul\":3155:3225   */\n      tag_141\n      jumpi\n        /* \"#utility.yul\":3221:3222   */\n      0x00\n        /* \"#utility.yul\":3218:3219   */\n      dup1\n        /* \"#utility.yul\":3211:3223   */\n      revert\n        /* \"#utility.yul\":3155:3225   */\n    tag_141:\n        /* \"#utility.yul\":3244:3249   */\n      swap4\n        /* \"#utility.yul\":2969:3255   */\n      swap3\n      pop\n      pop\n      pop\n      jump\t// out\n        /* \"#utility.yul\":4811:4995   */\n    tag_77:\n        /* \"#utility.yul\":4881:4887   */\n      0x00\n        /* \"#utility.yul\":4934:4936   */\n      0x20\n        /* \"#utility.yul\":4922:4931   */\n      dup3\n        /* \"#utility.yul\":4913:4920   */\n      dup5\n        /* \"#utility.yul\":4909:4932   */\n      sub\n        /* \"#utility.yul\":4905:4937   */\n      slt\n        /* \"#utility.yul\":4902:4954   */\n      iszero\n      tag_147\n      jumpi\n        /* \"#utility.yul\":4950:4951   */\n      0x00\n        /* \"#utility.yul\":4947:4948   */\n      dup1\n        /* \"#utility.yul\":4940:4952   */\n      revert\n        /* \"#utility.yul\":4902:4954   */\n    tag_147:\n      pop\n        /* \"#utility.yul\":4973:4989   */\n      mload\n      swap2\n        /* \"#utility.yul\":4811:4995   */\n      swap1\n      pop\n      jump\t// out\n        /* \"#utility.yul\":5268:5600   */\n    tag_97:\n        /* \"#utility.yul\":5475:5481   */\n      dup3\n        /* \"#utility.yul\":5464:5473   */\n      dup2\n        /* \"#utility.yul\":5457:5482   */\n      mstore\n        /* \"#utility.yul\":5518:5520   */\n      0x40\n        /* \"#utility.yul\":5513:5515   */\n      0x20\n        /* \"#utility.yul\":5502:5511   */\n      dup3\n        /* \"#utility.yul\":5498:5516   */\n      add\n        /* \"#utility.yul\":5491:5521   */\n      mstore\n        /* \"#utility.yul\":5438:5442   */\n      0x00\n        /* \"#utility.yul\":5538:5594   */\n      tag_138\n        /* \"#utility.yul\":5590:5592   */\n      0x40\n        /* \"#utility.yul\":5579:5588   */\n      dup4\n        /* \"#utility.yul\":5575:5593   */\n      add\n        /* \"#utility.yul\":5567:5573   */\n      dup5\n        /* \"#utility.yul\":5538:5594   */\n      tag_113\n      jump\t// in\n\n    auxdata: 0xa2646970667358221220fd43be5e1f7a20947cfa2dbbc1cf428b80858059bd32339e4ab8edaade3d559e64736f6c63430008120033\n}\n",
				"bytecode": {
					"linkReferences": {},
					"object": "60a06040527f474e34a077df58807dbe9c96d3c009b23b3c6d0cce433e59bbf5b34f823bc56c600655600780546001600160501b03191666020003000186a017905534801561004d57600080fd5b50604051610c01380380610c0183398101604081905261006c916101f9565b738103b0a8a00be2ddc778e6e7eaa21791cd36462560805233806000816100da5760405162461bcd60e51b815260206004820152601860248201527f43616e6e6f7420736574206f776e657220746f207a65726f000000000000000060448201526064015b60405180910390fd5b600080546001600160a01b0319166001600160a01b038481169190911790915581161561010a5761010a81610150565b5050600380546001600160401b03909316600160a01b026001600160e01b031990931692909217738103b0a8a00be2ddc778e6e7eaa21791cd3646251790915550610229565b336001600160a01b038216036101a85760405162461bcd60e51b815260206004820152601760248201527f43616e6e6f74207472616e7366657220746f2073656c6600000000000000000060448201526064016100d1565b600180546001600160a01b0319166001600160a01b0383811691821790925560008054604051929316917fed8889f560326eb138920d842192f0eb3dd22b4f139c87a2c57538e05bae12789190a350565b60006020828403121561020b57600080fd5b81516001600160401b038116811461022257600080fd5b9392505050565b6080516109b661024b6000396000818161018901526101cb01526109b66000f3fe608060405234801561001057600080fd5b50600436106100935760003560e01c8063a168fa8911610066578063a168fa89146100f6578063d8a4676f14610139578063e0c862891461015a578063f2fde38b14610162578063fc2a88c31461017557600080fd5b80631fe543e31461009857806379ba5097146100ad5780638796ba8c146100b55780638da5cb5b146100db575b600080fd5b6100ab6100a63660046107dd565b61017e565b005b6100ab61020b565b6100c86100c33660046108a7565b6102b5565b6040519081526020015b60405180910390f35b6000546040516001600160a01b0390911681526020016100d2565b6101226101043660046108a7565b60026020526000908152604090205460ff8082169161010090041682565b6040805192151583529015156020830152016100d2565b61014c6101473660046108a7565b6102d6565b6040516100d29291906108fb565b6100c86103ca565b6100ab61017036600461091e565b61058f565b6100c860055481565b336001600160a01b037f000000000000000000000000000000000000000000000000000000000000000016146101fd5760405163073e64fd60e21b81523360048201526001600160a01b037f00000000000000000000000000000000000000000000000000000000000000001660248201526044015b60405180910390fd5b61020782826105a3565b5050565b6001546001600160a01b0316331461025e5760405162461bcd60e51b815260206004820152601660248201527526bab9ba10313290383937b837b9b2b21037bbb732b960511b60448201526064016101f4565b60008054336001600160a01b0319808316821784556001805490911690556040516001600160a01b0390921692909183917f8be0079c531659141344cd1fd0a4f28419497f9722a3daafe3b4186f6b6457e091a350565b600481815481106102c557600080fd5b600091825260209091200154905081565b600081815260026020526040812054606090610100900460ff166103305760405162461bcd60e51b81526020600482015260116024820152701c995c5d595cdd081b9bdd08199bdd5b99607a1b60448201526064016101f4565b60008381526002602090815260408083208151606081018352815460ff80821615158352610100909104161515818501526001820180548451818702810187018652818152929593948601938301828280156103ab57602002820191906000526020600020905b815481526020019060010190808311610397575b5050505050815250509050806000015181604001519250925050915091565b60006103d4610669565b6003546006546007546040516305d3b1d360e41b81526004810192909252600160a01b830467ffffffffffffffff166024830152640100000000810461ffff16604483015263ffffffff808216606484015266010000000000009091041660848201526001600160a01b0390911690635d3b1d309060a4016020604051808303816000875af115801561046b573d6000803e3d6000fd5b505050506040513d601f19601f8201168201806040525081019061048f919061094e565b6040805160608101825260008082526001602080840182815285518481528083018752858701908152878552600283529590932084518154945161ffff1990951690151561ff001916176101009415159490940293909317835593518051959650929491936105049391850192910190610767565b5050600480546001810182556000919091527f8a35acfbc15ff81a39ae7d344fd709f28e8600b4aa8c65c6b64bfe7fe36bd19b0182905550600581905560075460408051838152660100000000000090920463ffffffff1660208301527fcc58b13ad3eab50626c6a6300b1d139cd6ebb1688a7cced9461c2f7e762665ee910160405180910390a190565b610597610669565b6105a0816106be565b50565b600082815260026020526040902054610100900460ff166105fa5760405162461bcd60e51b81526020600482015260116024820152701c995c5d595cdd081b9bdd08199bdd5b99607a1b60448201526064016101f4565b6000828152600260209081526040909120805460ff191660019081178255835161062b939290910191840190610767565b507ffe2e2d779dba245964d4e3ef9b994be63856fd568bf7d3ca9e224755cb1bd54d828260405161065d929190610967565b60405180910390a15050565b6000546001600160a01b031633146106bc5760405162461bcd60e51b815260206004820152601660248201527527b7363c9031b0b63630b1363290313c9037bbb732b960511b60448201526064016101f4565b565b336001600160a01b038216036107165760405162461bcd60e51b815260206004820152601760248201527f43616e6e6f74207472616e7366657220746f2073656c6600000000000000000060448201526064016101f4565b600180546001600160a01b0319166001600160a01b0383811691821790925560008054604051929316917fed8889f560326eb138920d842192f0eb3dd22b4f139c87a2c57538e05bae12789190a350565b8280548282559060005260206000209081019282156107a2579160200282015b828111156107a2578251825591602001919060010190610787565b506107ae9291506107b2565b5090565b5b808211156107ae57600081556001016107b3565b634e487b7160e01b600052604160045260246000fd5b600080604083850312156107f057600080fd5b8235915060208084013567ffffffffffffffff8082111561081057600080fd5b818601915086601f83011261082457600080fd5b813581811115610836576108366107c7565b8060051b604051601f19603f8301168101818110858211171561085b5761085b6107c7565b60405291825284820192508381018501918983111561087957600080fd5b938501935b828510156108975784358452938501939285019261087e565b8096505050505050509250929050565b6000602082840312156108b957600080fd5b5035919050565b600081518084526020808501945080840160005b838110156108f0578151875295820195908201906001016108d4565b509495945050505050565b821515815260406020820152600061091660408301846108c0565b949350505050565b60006020828403121561093057600080fd5b81356001600160a01b038116811461094757600080fd5b9392505050565b60006020828403121561096057600080fd5b5051919050565b82815260406020820152600061091660408301846108c056fea2646970667358221220fd43be5e1f7a20947cfa2dbbc1cf428b80858059bd32339e4ab8edaade3d559e64736f6c63430008120033",
					"opcodes": "PUSH1 0xA0 PUSH1 0x40 MSTORE PUSH32 0x474E34A077DF58807DBE9C96D3C009B23B3C6D0CCE433E59BBF5B34F823BC56C PUSH1 0x6 SSTORE PUSH1 0x7 DUP1 SLOAD PUSH1 0x1 PUSH1 0x1 PUSH1 0x50 SHL SUB NOT AND PUSH7 0x20003000186A0 OR SWAP1 SSTORE CALLVALUE DUP1 ISZERO PUSH2 0x4D JUMPI PUSH1 0x0 DUP1 REVERT JUMPDEST POP PUSH1 0x40 MLOAD PUSH2 0xC01 CODESIZE SUB DUP1 PUSH2 0xC01 DUP4 CODECOPY DUP2 ADD PUSH1 0x40 DUP2 SWAP1 MSTORE PUSH2 0x6C SWAP2 PUSH2 0x1F9 JUMP JUMPDEST PUSH20 0x8103B0A8A00BE2DDC778E6E7EAA21791CD364625 PUSH1 0x80 MSTORE CALLER DUP1 PUSH1 0x0 DUP2 PUSH2 0xDA JUMPI PUSH1 0x40 MLOAD PUSH3 0x461BCD PUSH1 0xE5 SHL DUP2 MSTORE PUSH1 0x20 PUSH1 0x4 DUP3 ADD MSTORE PUSH1 0x18 PUSH1 0x24 DUP3 ADD MSTORE PUSH32 0x43616E6E6F7420736574206F776E657220746F207A65726F0000000000000000 PUSH1 0x44 DUP3 ADD MSTORE PUSH1 0x64 ADD JUMPDEST PUSH1 0x40 MLOAD DUP1 SWAP2 SUB SWAP1 REVERT JUMPDEST PUSH1 0x0 DUP1 SLOAD PUSH1 0x1 PUSH1 0x1 PUSH1 0xA0 SHL SUB NOT AND PUSH1 0x1 PUSH1 0x1 PUSH1 0xA0 SHL SUB DUP5 DUP2 AND SWAP2 SWAP1 SWAP2 OR SWAP1 SWAP2 SSTORE DUP2 AND ISZERO PUSH2 0x10A JUMPI PUSH2 0x10A DUP2 PUSH2 0x150 JUMP JUMPDEST POP POP PUSH1 0x3 DUP1 SLOAD PUSH1 0x1 PUSH1 0x1 PUSH1 0x40 SHL SUB SWAP1 SWAP4 AND PUSH1 0x1 PUSH1 0xA0 SHL MUL PUSH1 0x1 PUSH1 0x1 PUSH1 0xE0 SHL SUB NOT SWAP1 SWAP4 AND SWAP3 SWAP1 SWAP3 OR PUSH20 0x8103B0A8A00BE2DDC778E6E7EAA21791CD364625 OR SWAP1 SWAP2 SSTORE POP PUSH2 0x229 JUMP JUMPDEST CALLER PUSH1 0x1 PUSH1 0x1 PUSH1 0xA0 SHL SUB DUP3 AND SUB PUSH2 0x1A8 JUMPI PUSH1 0x40 MLOAD PUSH3 0x461BCD PUSH1 0xE5 SHL DUP2 MSTORE PUSH1 0x20 PUSH1 0x4 DUP3 ADD MSTORE PUSH1 0x17 PUSH1 0x24 DUP3 ADD MSTORE PUSH32 0x43616E6E6F74207472616E7366657220746F2073656C66000000000000000000 PUSH1 0x44 DUP3 ADD MSTORE PUSH1 0x64 ADD PUSH2 0xD1 JUMP JUMPDEST PUSH1 0x1 DUP1 SLOAD PUSH1 0x1 PUSH1 0x1 PUSH1 0xA0 SHL SUB NOT AND PUSH1 0x1 PUSH1 0x1 PUSH1 0xA0 SHL SUB DUP4 DUP2 AND SWAP2 DUP3 OR SWAP1 SWAP3 SSTORE PUSH1 0x0 DUP1 SLOAD PUSH1 0x40 MLOAD SWAP3 SWAP4 AND SWAP2 PUSH32 0xED8889F560326EB138920D842192F0EB3DD22B4F139C87A2C57538E05BAE1278 SWAP2 SWAP1 LOG3 POP JUMP JUMPDEST PUSH1 0x0 PUSH1 0x20 DUP3 DUP5 SUB SLT ISZERO PUSH2 0x20B JUMPI PUSH1 0x0 DUP1 REVERT JUMPDEST DUP2 MLOAD PUSH1 0x1 PUSH1 0x1 PUSH1 0x40 SHL SUB DUP2 AND DUP2 EQ PUSH2 0x222 JUMPI PUSH1 0x0 DUP1 REVERT JUMPDEST SWAP4 SWAP3 POP POP POP JUMP JUMPDEST PUSH1 0x80 MLOAD PUSH2 0x9B6 PUSH2 0x24B PUSH1 0x0 CODECOPY PUSH1 0x0 DUP2 DUP2 PUSH2 0x189 ADD MSTORE PUSH2 0x1CB ADD MSTORE PUSH2 0x9B6 PUSH1 0x0 RETURN INVALID PUSH1 0x80 PUSH1 0x40 MSTORE CALLVALUE DUP1 ISZERO PUSH2 0x10 JUMPI PUSH1 0x0 DUP1 REVERT JUMPDEST POP PUSH1 0x4 CALLDATASIZE LT PUSH2 0x93 JUMPI PUSH1 0x0 CALLDATALOAD PUSH1 0xE0 SHR DUP1 PUSH4 0xA168FA89 GT PUSH2 0x66 JUMPI DUP1 PUSH4 0xA168FA89 EQ PUSH2 0xF6 JUMPI DUP1 PUSH4 0xD8A4676F EQ PUSH2 0x139 JUMPI DUP1 PUSH4 0xE0C86289 EQ PUSH2 0x15A JUMPI DUP1 PUSH4 0xF2FDE38B EQ PUSH2 0x162 JUMPI DUP1 PUSH4 0xFC2A88C3 EQ PUSH2 0x175 JUMPI PUSH1 0x0 DUP1 REVERT JUMPDEST DUP1 PUSH4 0x1FE543E3 EQ PUSH2 0x98 JUMPI DUP1 PUSH4 0x79BA5097 EQ PUSH2 0xAD JUMPI DUP1 PUSH4 0x8796BA8C EQ PUSH2 0xB5 JUMPI DUP1 PUSH4 0x8DA5CB5B EQ PUSH2 0xDB JUMPI JUMPDEST PUSH1 0x0 DUP1 REVERT JUMPDEST PUSH2 0xAB PUSH2 0xA6 CALLDATASIZE PUSH1 0x4 PUSH2 0x7DD JUMP JUMPDEST PUSH2 0x17E JUMP JUMPDEST STOP JUMPDEST PUSH2 0xAB PUSH2 0x20B JUMP JUMPDEST PUSH2 0xC8 PUSH2 0xC3 CALLDATASIZE PUSH1 0x4 PUSH2 0x8A7 JUMP JUMPDEST PUSH2 0x2B5 JUMP JUMPDEST PUSH1 0x40 MLOAD SWAP1 DUP2 MSTORE PUSH1 0x20 ADD JUMPDEST PUSH1 0x40 MLOAD DUP1 SWAP2 SUB SWAP1 RETURN JUMPDEST PUSH1 0x0 SLOAD PUSH1 0x40 MLOAD PUSH1 0x1 PUSH1 0x1 PUSH1 0xA0 SHL SUB SWAP1 SWAP2 AND DUP2 MSTORE PUSH1 0x20 ADD PUSH2 0xD2 JUMP JUMPDEST PUSH2 0x122 PUSH2 0x104 CALLDATASIZE PUSH1 0x4 PUSH2 0x8A7 JUMP JUMPDEST PUSH1 0x2 PUSH1 0x20 MSTORE PUSH1 0x0 SWAP1 DUP2 MSTORE PUSH1 0x40 SWAP1 KECCAK256 SLOAD PUSH1 0xFF DUP1 DUP3 AND SWAP2 PUSH2 0x100 SWAP1 DIV AND DUP3 JUMP JUMPDEST PUSH1 0x40 DUP1 MLOAD SWAP3 ISZERO ISZERO DUP4 MSTORE SWAP1 ISZERO ISZERO PUSH1 0x20 DUP4 ADD MSTORE ADD PUSH2 0xD2 JUMP JUMPDEST PUSH2 0x14C PUSH2 0x147 CALLDATASIZE PUSH1 0x4 PUSH2 0x8A7 JUMP JUMPDEST PUSH2 0x2D6 JUMP JUMPDEST PUSH1 0x40 MLOAD PUSH2 0xD2 SWAP3 SWAP2 SWAP1 PUSH2 0x8FB JUMP JUMPDEST PUSH2 0xC8 PUSH2 0x3CA JUMP JUMPDEST PUSH2 0xAB PUSH2 0x170 CALLDATASIZE PUSH1 0x4 PUSH2 0x91E JUMP JUMPDEST PUSH2 0x58F JUMP JUMPDEST PUSH2 0xC8 PUSH1 0x5 SLOAD DUP2 JUMP JUMPDEST CALLER PUSH1 0x1 PUSH1 0x1 PUSH1 0xA0 SHL SUB PUSH32 0x0 AND EQ PUSH2 0x1FD JUMPI PUSH1 0x40 MLOAD PUSH4 0x73E64FD PUSH1 0xE2 SHL DUP2 MSTORE CALLER PUSH1 0x4 DUP3 ADD MSTORE PUSH1 0x1 PUSH1 0x1 PUSH1 0xA0 SHL SUB PUSH32 0x0 AND PUSH1 0x24 DUP3 ADD MSTORE PUSH1 0x44 ADD JUMPDEST PUSH1 0x40 MLOAD DUP1 SWAP2 SUB SWAP1 REVERT JUMPDEST PUSH2 0x207 DUP3 DUP3 PUSH2 0x5A3 JUMP JUMPDEST POP POP JUMP JUMPDEST PUSH1 0x1 SLOAD PUSH1 0x1 PUSH1 0x1 PUSH1 0xA0 SHL SUB AND CALLER EQ PUSH2 0x25E JUMPI PUSH1 0x40 MLOAD PUSH3 0x461BCD PUSH1 0xE5 SHL DUP2 MSTORE PUSH1 0x20 PUSH1 0x4 DUP3 ADD MSTORE PUSH1 0x16 PUSH1 0x24 DUP3 ADD MSTORE PUSH22 0x26BAB9BA10313290383937B837B9B2B21037BBB732B9 PUSH1 0x51 SHL PUSH1 0x44 DUP3 ADD MSTORE PUSH1 0x64 ADD PUSH2 0x1F4 JUMP JUMPDEST PUSH1 0x0 DUP1 SLOAD CALLER PUSH1 0x1 PUSH1 0x1 PUSH1 0xA0 SHL SUB NOT DUP1 DUP4 AND DUP3 OR DUP5 SSTORE PUSH1 0x1 DUP1 SLOAD SWAP1 SWAP2 AND SWAP1 SSTORE PUSH1 0x40 MLOAD PUSH1 0x1 PUSH1 0x1 PUSH1 0xA0 SHL SUB SWAP1 SWAP3 AND SWAP3 SWAP1 SWAP2 DUP4 SWAP2 PUSH32 0x8BE0079C531659141344CD1FD0A4F28419497F9722A3DAAFE3B4186F6B6457E0 SWAP2 LOG3 POP JUMP JUMPDEST PUSH1 0x4 DUP2 DUP2 SLOAD DUP2 LT PUSH2 0x2C5 JUMPI PUSH1 0x0 DUP1 REVERT JUMPDEST PUSH1 0x0 SWAP2 DUP3 MSTORE PUSH1 0x20 SWAP1 SWAP2 KECCAK256 ADD SLOAD SWAP1 POP DUP2 JUMP JUMPDEST PUSH1 0x0 DUP2 DUP2 MSTORE PUSH1 0x2 PUSH1 0x20 MSTORE PUSH1 0x40 DUP2 KECCAK256 SLOAD PUSH1 0x60 SWAP1 PUSH2 0x100 SWAP1 DIV PUSH1 0xFF AND PUSH2 0x330 JUMPI PUSH1 0x40 MLOAD PUSH3 0x461BCD PUSH1 0xE5 SHL DUP2 MSTORE PUSH1 0x20 PUSH1 0x4 DUP3 ADD MSTORE PUSH1 0x11 PUSH1 0x24 DUP3 ADD MSTORE PUSH17 0x1C995C5D595CDD081B9BDD08199BDD5B99 PUSH1 0x7A SHL PUSH1 0x44 DUP3 ADD MSTORE PUSH1 0x64 ADD PUSH2 0x1F4 JUMP JUMPDEST PUSH1 0x0 DUP4 DUP2 MSTORE PUSH1 0x2 PUSH1 0x20 SWAP1 DUP2 MSTORE PUSH1 0x40 DUP1 DUP4 KECCAK256 DUP2 MLOAD PUSH1 0x60 DUP2 ADD DUP4 MSTORE DUP2 SLOAD PUSH1 0xFF DUP1 DUP3 AND ISZERO ISZERO DUP4 MSTORE PUSH2 0x100 SWAP1 SWAP2 DIV AND ISZERO ISZERO DUP2 DUP6 ADD MSTORE PUSH1 0x1 DUP3 ADD DUP1 SLOAD DUP5 MLOAD DUP2 DUP8 MUL DUP2 ADD DUP8 ADD DUP7 MSTORE DUP2 DUP2 MSTORE SWAP3 SWAP6 SWAP4 SWAP5 DUP7 ADD SWAP4 DUP4 ADD DUP3 DUP3 DUP1 ISZERO PUSH2 0x3AB JUMPI PUSH1 0x20 MUL DUP3 ADD SWAP2 SWAP1 PUSH1 0x0 MSTORE PUSH1 0x20 PUSH1 0x0 KECCAK256 SWAP1 JUMPDEST DUP2 SLOAD DUP2 MSTORE PUSH1 0x20 ADD SWAP1 PUSH1 0x1 ADD SWAP1 DUP1 DUP4 GT PUSH2 0x397 JUMPI JUMPDEST POP POP POP POP POP DUP2 MSTORE POP POP SWAP1 POP DUP1 PUSH1 0x0 ADD MLOAD DUP2 PUSH1 0x40 ADD MLOAD SWAP3 POP SWAP3 POP POP SWAP2 POP SWAP2 JUMP JUMPDEST PUSH1 0x0 PUSH2 0x3D4 PUSH2 0x669 JUMP JUMPDEST PUSH1 0x3 SLOAD PUSH1 0x6 SLOAD PUSH1 0x7 SLOAD PUSH1 0x40 MLOAD PUSH4 0x5D3B1D3 PUSH1 0xE4 SHL DUP2 MSTORE PUSH1 0x4 DUP2 ADD SWAP3 SWAP1 SWAP3 MSTORE PUSH1 0x1 PUSH1 0xA0 SHL DUP4 DIV PUSH8 0xFFFFFFFFFFFFFFFF AND PUSH1 0x24 DUP4 ADD MSTORE PUSH5 0x100000000 DUP2 DIV PUSH2 0xFFFF AND PUSH1 0x44 DUP4 ADD MSTORE PUSH4 0xFFFFFFFF DUP1 DUP3 AND PUSH1 0x64 DUP5 ADD MSTORE PUSH7 0x1000000000000 SWAP1 SWAP2 DIV AND PUSH1 0x84 DUP3 ADD MSTORE PUSH1 0x1 PUSH1 0x1 PUSH1 0xA0 SHL SUB SWAP1 SWAP2 AND SWAP1 PUSH4 0x5D3B1D30 SWAP1 PUSH1 0xA4 ADD PUSH1 0x20 PUSH1 0x40 MLOAD DUP1 DUP4 SUB DUP2 PUSH1 0x0 DUP8 GAS CALL ISZERO DUP1 ISZERO PUSH2 0x46B JUMPI RETURNDATASIZE PUSH1 0x0 DUP1 RETURNDATACOPY RETURNDATASIZE PUSH1 0x0 REVERT JUMPDEST POP POP POP POP PUSH1 0x40 MLOAD RETURNDATASIZE PUSH1 0x1F NOT PUSH1 0x1F DUP3 ADD AND DUP3 ADD DUP1 PUSH1 0x40 MSTORE POP DUP2 ADD SWAP1 PUSH2 0x48F SWAP2 SWAP1 PUSH2 0x94E JUMP JUMPDEST PUSH1 0x40 DUP1 MLOAD PUSH1 0x60 DUP2 ADD DUP3 MSTORE PUSH1 0x0 DUP1 DUP3 MSTORE PUSH1 0x1 PUSH1 0x20 DUP1 DUP5 ADD DUP3 DUP2 MSTORE DUP6 MLOAD DUP5 DUP2 MSTORE DUP1 DUP4 ADD DUP8 MSTORE DUP6 DUP8 ADD SWAP1 DUP2 MSTORE DUP8 DUP6 MSTORE PUSH1 0x2 DUP4 MSTORE SWAP6 SWAP1 SWAP4 KECCAK256 DUP5 MLOAD DUP2 SLOAD SWAP5 MLOAD PUSH2 0xFFFF NOT SWAP1 SWAP6 AND SWAP1 ISZERO ISZERO PUSH2 0xFF00 NOT AND OR PUSH2 0x100 SWAP5 ISZERO ISZERO SWAP5 SWAP1 SWAP5 MUL SWAP4 SWAP1 SWAP4 OR DUP4 SSTORE SWAP4 MLOAD DUP1 MLOAD SWAP6 SWAP7 POP SWAP3 SWAP5 SWAP2 SWAP4 PUSH2 0x504 SWAP4 SWAP2 DUP6 ADD SWAP3 SWAP2 ADD SWAP1 PUSH2 0x767 JUMP JUMPDEST POP POP PUSH1 0x4 DUP1 SLOAD PUSH1 0x1 DUP2 ADD DUP3 SSTORE PUSH1 0x0 SWAP2 SWAP1 SWAP2 MSTORE PUSH32 0x8A35ACFBC15FF81A39AE7D344FD709F28E8600B4AA8C65C6B64BFE7FE36BD19B ADD DUP3 SWAP1 SSTORE POP PUSH1 0x5 DUP2 SWAP1 SSTORE PUSH1 0x7 SLOAD PUSH1 0x40 DUP1 MLOAD DUP4 DUP2 MSTORE PUSH7 0x1000000000000 SWAP1 SWAP3 DIV PUSH4 0xFFFFFFFF AND PUSH1 0x20 DUP4 ADD MSTORE PUSH32 0xCC58B13AD3EAB50626C6A6300B1D139CD6EBB1688A7CCED9461C2F7E762665EE SWAP2 ADD PUSH1 0x40 MLOAD DUP1 SWAP2 SUB SWAP1 LOG1 SWAP1 JUMP JUMPDEST PUSH2 0x597 PUSH2 0x669 JUMP JUMPDEST PUSH2 0x5A0 DUP2 PUSH2 0x6BE JUMP JUMPDEST POP JUMP JUMPDEST PUSH1 0x0 DUP3 DUP2 MSTORE PUSH1 0x2 PUSH1 0x20 MSTORE PUSH1 0x40 SWAP1 KECCAK256 SLOAD PUSH2 0x100 SWAP1 DIV PUSH1 0xFF AND PUSH2 0x5FA JUMPI PUSH1 0x40 MLOAD PUSH3 0x461BCD PUSH1 0xE5 SHL DUP2 MSTORE PUSH1 0x20 PUSH1 0x4 DUP3 ADD MSTORE PUSH1 0x11 PUSH1 0x24 DUP3 ADD MSTORE PUSH17 0x1C995C5D595CDD081B9BDD08199BDD5B99 PUSH1 0x7A SHL PUSH1 0x44 DUP3 ADD MSTORE PUSH1 0x64 ADD PUSH2 0x1F4 JUMP JUMPDEST PUSH1 0x0 DUP3 DUP2 MSTORE PUSH1 0x2 PUSH1 0x20 SWAP1 DUP2 MSTORE PUSH1 0x40 SWAP1 SWAP2 KECCAK256 DUP1 SLOAD PUSH1 0xFF NOT AND PUSH1 0x1 SWAP1 DUP2 OR DUP3 SSTORE DUP4 MLOAD PUSH2 0x62B SWAP4 SWAP3 SWAP1 SWAP2 ADD SWAP2 DUP5 ADD SWAP1 PUSH2 0x767 JUMP JUMPDEST POP PUSH32 0xFE2E2D779DBA245964D4E3EF9B994BE63856FD568BF7D3CA9E224755CB1BD54D DUP3 DUP3 PUSH1 0x40 MLOAD PUSH2 0x65D SWAP3 SWAP2 SWAP1 PUSH2 0x967 JUMP JUMPDEST PUSH1 0x40 MLOAD DUP1 SWAP2 SUB SWAP1 LOG1 POP POP JUMP JUMPDEST PUSH1 0x0 SLOAD PUSH1 0x1 PUSH1 0x1 PUSH1 0xA0 SHL SUB AND CALLER EQ PUSH2 0x6BC JUMPI PUSH1 0x40 MLOAD PUSH3 0x461BCD PUSH1 0xE5 SHL DUP2 MSTORE PUSH1 0x20 PUSH1 0x4 DUP3 ADD MSTORE PUSH1 0x16 PUSH1 0x24 DUP3 ADD MSTORE PUSH22 0x27B7363C9031B0B63630B1363290313C9037BBB732B9 PUSH1 0x51 SHL PUSH1 0x44 DUP3 ADD MSTORE PUSH1 0x64 ADD PUSH2 0x1F4 JUMP JUMPDEST JUMP JUMPDEST CALLER PUSH1 0x1 PUSH1 0x1 PUSH1 0xA0 SHL SUB DUP3 AND SUB PUSH2 0x716 JUMPI PUSH1 0x40 MLOAD PUSH3 0x461BCD PUSH1 0xE5 SHL DUP2 MSTORE PUSH1 0x20 PUSH1 0x4 DUP3 ADD MSTORE PUSH1 0x17 PUSH1 0x24 DUP3 ADD MSTORE PUSH32 0x43616E6E6F74207472616E7366657220746F2073656C66000000000000000000 PUSH1 0x44 DUP3 ADD MSTORE PUSH1 0x64 ADD PUSH2 0x1F4 JUMP JUMPDEST PUSH1 0x1 DUP1 SLOAD PUSH1 0x1 PUSH1 0x1 PUSH1 0xA0 SHL SUB NOT AND PUSH1 0x1 PUSH1 0x1 PUSH1 0xA0 SHL SUB DUP4 DUP2 AND SWAP2 DUP3 OR SWAP1 SWAP3 SSTORE PUSH1 0x0 DUP1 SLOAD PUSH1 0x40 MLOAD SWAP3 SWAP4 AND SWAP2 PUSH32 0xED8889F560326EB138920D842192F0EB3DD22B4F139C87A2C57538E05BAE1278 SWAP2 SWAP1 LOG3 POP JUMP JUMPDEST DUP3 DUP1 SLOAD DUP3 DUP3 SSTORE SWAP1 PUSH1 0x0 MSTORE PUSH1 0x20 PUSH1 0x0 KECCAK256 SWAP1 DUP2 ADD SWAP3 DUP3 ISZERO PUSH2 0x7A2 JUMPI SWAP2 PUSH1 0x20 MUL DUP3 ADD JUMPDEST DUP3 DUP2 GT ISZERO PUSH2 0x7A2 JUMPI DUP3 MLOAD DUP3 SSTORE SWAP2 PUSH1 0x20 ADD SWAP2 SWAP1 PUSH1 0x1 ADD SWAP1 PUSH2 0x787 JUMP JUMPDEST POP PUSH2 0x7AE SWAP3 SWAP2 POP PUSH2 0x7B2 JUMP JUMPDEST POP SWAP1 JUMP JUMPDEST JUMPDEST DUP1 DUP3 GT ISZERO PUSH2 0x7AE JUMPI PUSH1 0x0 DUP2 SSTORE PUSH1 0x1 ADD PUSH2 0x7B3 JUMP JUMPDEST PUSH4 0x4E487B71 PUSH1 0xE0 SHL PUSH1 0x0 MSTORE PUSH1 0x41 PUSH1 0x4 MSTORE PUSH1 0x24 PUSH1 0x0 REVERT JUMPDEST PUSH1 0x0 DUP1 PUSH1 0x40 DUP4 DUP6 SUB SLT ISZERO PUSH2 0x7F0 JUMPI PUSH1 0x0 DUP1 REVERT JUMPDEST DUP3 CALLDATALOAD SWAP2 POP PUSH1 0x20 DUP1 DUP5 ADD CALLDATALOAD PUSH8 0xFFFFFFFFFFFFFFFF DUP1 DUP3 GT ISZERO PUSH2 0x810 JUMPI PUSH1 0x0 DUP1 REVERT JUMPDEST DUP2 DUP7 ADD SWAP2 POP DUP7 PUSH1 0x1F DUP4 ADD SLT PUSH2 0x824 JUMPI PUSH1 0x0 DUP1 REVERT JUMPDEST DUP2 CALLDATALOAD DUP2 DUP2 GT ISZERO PUSH2 0x836 JUMPI PUSH2 0x836 PUSH2 0x7C7 JUMP JUMPDEST DUP1 PUSH1 0x5 SHL PUSH1 0x40 MLOAD PUSH1 0x1F NOT PUSH1 0x3F DUP4 ADD AND DUP2 ADD DUP2 DUP2 LT DUP6 DUP3 GT OR ISZERO PUSH2 0x85B JUMPI PUSH2 0x85B PUSH2 0x7C7 JUMP JUMPDEST PUSH1 0x40 MSTORE SWAP2 DUP3 MSTORE DUP5 DUP3 ADD SWAP3 POP DUP4 DUP2 ADD DUP6 ADD SWAP2 DUP10 DUP4 GT ISZERO PUSH2 0x879 JUMPI PUSH1 0x0 DUP1 REVERT JUMPDEST SWAP4 DUP6 ADD SWAP4 JUMPDEST DUP3 DUP6 LT ISZERO PUSH2 0x897 JUMPI DUP5 CALLDATALOAD DUP5 MSTORE SWAP4 DUP6 ADD SWAP4 SWAP3 DUP6 ADD SWAP3 PUSH2 0x87E JUMP JUMPDEST DUP1 SWAP7 POP POP POP POP POP POP POP SWAP3 POP SWAP3 SWAP1 POP JUMP JUMPDEST PUSH1 0x0 PUSH1 0x20 DUP3 DUP5 SUB SLT ISZERO PUSH2 0x8B9 JUMPI PUSH1 0x0 DUP1 REVERT JUMPDEST POP CALLDATALOAD SWAP2 SWAP1 POP JUMP JUMPDEST PUSH1 0x0 DUP2 MLOAD DUP1 DUP5 MSTORE PUSH1 0x20 DUP1 DUP6 ADD SWAP5 POP DUP1 DUP5 ADD PUSH1 0x0 JUMPDEST DUP4 DUP2 LT ISZERO PUSH2 0x8F0 JUMPI DUP2 MLOAD DUP8 MSTORE SWAP6 DUP3 ADD SWAP6 SWAP1 DUP3 ADD SWAP1 PUSH1 0x1 ADD PUSH2 0x8D4 JUMP JUMPDEST POP SWAP5 SWAP6 SWAP5 POP POP POP POP POP JUMP JUMPDEST DUP3 ISZERO ISZERO DUP2 MSTORE PUSH1 0x40 PUSH1 0x20 DUP3 ADD MSTORE PUSH1 0x0 PUSH2 0x916 PUSH1 0x40 DUP4 ADD DUP5 PUSH2 0x8C0 JUMP JUMPDEST SWAP5 SWAP4 POP POP POP POP JUMP JUMPDEST PUSH1 0x0 PUSH1 0x20 DUP3 DUP5 SUB SLT ISZERO PUSH2 0x930 JUMPI PUSH1 0x0 DUP1 REVERT JUMPDEST DUP2 CALLDATALOAD PUSH1 0x1 PUSH1 0x1 PUSH1 0xA0 SHL SUB DUP2 AND DUP2 EQ PUSH2 0x947 JUMPI PUSH1 0x0 DUP1 REVERT JUMPDEST SWAP4 SWAP3 POP POP POP JUMP JUMPDEST PUSH1 0x0 PUSH1 0x20 DUP3 DUP5 SUB SLT ISZERO PUSH2 0x960 JUMPI PUSH1 0x0 DUP1 REVERT JUMPDEST POP MLOAD SWAP2 SWAP1 POP JUMP JUMPDEST DUP3 DUP2 MSTORE PUSH1 0x40 PUSH1 0x20 DUP3 ADD MSTORE PUSH1 0x0 PUSH2 0x916 PUSH1 0x40 DUP4 ADD DUP5 PUSH2 0x8C0 JUMP INVALID LOG2 PUSH5 0x6970667358 0x22 SLT KECCAK256 REVERT NUMBER 0xBE 0x5E 0x1F PUSH27 0x20947CFA2DBBC1CF428B80858059BD32339E4AB8EDAADE3D559E64 PUSH20 0x6F6C634300081200330000000000000000000000 "
				},
				"gasEstimates": {
					"creation": {
						"codeDepositCost": "497200",
						"executionCost": "infinite",
						"totalCost": "infinite"
					},
					"external": {
						"acceptOwnership()": "52322",
						"getRequestStatus(uint256)": "infinite",
						"lastRequestId()": "2372",
						"owner()": "2368",
						"rawFulfillRandomWords(uint256,uint256[])": "infinite",
						"requestIds(uint256)": "4609",
						"requestRandomWords()": "infinite",
						"s_requests(uint256)": "2497",
						"transferOwnership(address)": "30467"
					},
					"internal": {
						"fulfillRandomWords(uint256,uint256[] memory)": "infinite"
					}
				},
				"methodIdentifiers": {
					"acceptOwnership()": "79ba5097",
					"getRequestStatus(uint256)": "d8a4676f",
					"lastRequestId()": "fc2a88c3",
					"owner()": "8da5cb5b",
					"rawFulfillRandomWords(uint256,uint256[])": "1fe543e3",
					"requestIds(uint256)": "8796ba8c",
					"requestRandomWords()": "e0c86289",
					"s_requests(uint256)": "a168fa89",
					"transferOwnership(address)": "f2fde38b"
				}
			},
			"storageLayout": {
				"storage": [
					{
						"astId": 27,
						"contract": "docs.chain.link/samples/VRF/VRFv2Consumer.sol:VRFv2Consumer",
						"label": "s_owner",
						"offset": 0,
						"slot": "0",
						"type": "t_address"
					},
					{
						"astId": 29,
						"contract": "docs.chain.link/samples/VRF/VRFv2Consumer.sol:VRFv2Consumer",
						"label": "s_pendingOwner",
						"offset": 0,
						"slot": "1",
						"type": "t_address"
					},
					{
						"astId": 387,
						"contract": "docs.chain.link/samples/VRF/VRFv2Consumer.sol:VRFv2Consumer",
						"label": "s_requests",
						"offset": 0,
						"slot": "2",
						"type": "t_mapping(t_uint256,t_struct(RequestStatus)382_storage)"
					},
					{
						"astId": 390,
						"contract": "docs.chain.link/samples/VRF/VRFv2Consumer.sol:VRFv2Consumer",
						"label": "COORDINATOR",
						"offset": 0,
						"slot": "3",
						"type": "t_contract(VRFCoordinatorV2Interface)351"
					},
					{
						"astId": 392,
						"contract": "docs.chain.link/samples/VRF/VRFv2Consumer.sol:VRFv2Consumer",
						"label": "s_subscriptionId",
						"offset": 20,
						"slot": "3",
						"type": "t_uint64"
					},
					{
						"astId": 395,
						"contract": "docs.chain.link/samples/VRF/VRFv2Consumer.sol:VRFv2Consumer",
						"label": "requestIds",
						"offset": 0,
						"slot": "4",
						"type": "t_array(t_uint256)dyn_storage"
					},
					{
						"astId": 397,
						"contract": "docs.chain.link/samples/VRF/VRFv2Consumer.sol:VRFv2Consumer",
						"label": "lastRequestId",
						"offset": 0,
						"slot": "5",
						"type": "t_uint256"
					},
					{
						"astId": 400,
						"contract": "docs.chain.link/samples/VRF/VRFv2Consumer.sol:VRFv2Consumer",
						"label": "keyHash",
						"offset": 0,
						"slot": "6",
						"type": "t_bytes32"
					},
					{
						"astId": 403,
						"contract": "docs.chain.link/samples/VRF/VRFv2Consumer.sol:VRFv2Consumer",
						"label": "callbackGasLimit",
						"offset": 0,
						"slot": "7",
						"type": "t_uint32"
					},
					{
						"astId": 406,
						"contract": "docs.chain.link/samples/VRF/VRFv2Consumer.sol:VRFv2Consumer",
						"label": "requestConfirmations",
						"offset": 4,
						"slot": "7",
						"type": "t_uint16"
					},
					{
						"astId": 409,
						"contract": "docs.chain.link/samples/VRF/VRFv2Consumer.sol:VRFv2Consumer",
						"label": "numWords",
						"offset": 6,
						"slot": "7",
						"type": "t_uint32"
					}
				],
				"types": {
					"t_address": {
						"encoding": "inplace",
						"label": "address",
						"numberOfBytes": "20"
					},
					"t_array(t_uint256)dyn_storage": {
						"base": "t_uint256",
						"encoding": "dynamic_array",
						"label": "uint256[]",
						"numberOfBytes": "32"
					},
					"t_bool": {
						"encoding": "inplace",
						"label": "bool",
						"numberOfBytes": "1"
					},
					"t_bytes32": {
						"encoding": "inplace",
						"label": "bytes32",
						"numberOfBytes": "32"
					},
					"t_contract(VRFCoordinatorV2Interface)351": {
						"encoding": "inplace",
						"label": "contract VRFCoordinatorV2Interface",
						"numberOfBytes": "20"
					},
					"t_mapping(t_uint256,t_struct(RequestStatus)382_storage)": {
						"encoding": "mapping",
						"key": "t_uint256",
						"label": "mapping(uint256 => struct VRFv2Consumer.RequestStatus)",
						"numberOfBytes": "32",
						"value": "t_struct(RequestStatus)382_storage"
					},
					"t_struct(RequestStatus)382_storage": {
						"encoding": "inplace",
						"label": "struct VRFv2Consumer.RequestStatus",
						"members": [
							{
								"astId": 376,
								"contract": "docs.chain.link/samples/VRF/VRFv2Consumer.sol:VRFv2Consumer",
								"label": "fulfilled",
								"offset": 0,
								"slot": "0",
								"type": "t_bool"
							},
							{
								"astId": 378,
								"contract": "docs.chain.link/samples/VRF/VRFv2Consumer.sol:VRFv2Consumer",
								"label": "exists",
								"offset": 1,
								"slot": "0",
								"type": "t_bool"
							},
							{
								"astId": 381,
								"contract": "docs.chain.link/samples/VRF/VRFv2Consumer.sol:VRFv2Consumer",
								"label": "randomWords",
								"offset": 0,
								"slot": "1",
								"type": "t_array(t_uint256)dyn_storage"
							}
						],
						"numberOfBytes": "64"
					},
					"t_uint16": {
						"encoding": "inplace",
						"label": "uint16",
						"numberOfBytes": "2"
					},
					"t_uint256": {
						"encoding": "inplace",
						"label": "uint256",
						"numberOfBytes": "32"
					},
					"t_uint32": {
						"encoding": "inplace",
						"label": "uint32",
						"numberOfBytes": "4"
					},
					"t_uint64": {
						"encoding": "inplace",
						"label": "uint64",
						"numberOfBytes": "8"
					}
				}
			},
			"userdoc": {
				"kind": "user",
				"methods": {
					"acceptOwnership()": {
						"notice": "Allows an ownership transfer to be completed by the recipient."
					},
					"constructor": {
						"notice": "HARDCODED FOR SEPOLIA COORDINATOR: 0x8103B0A8A00be2DDC778e6e7eaa21791Cd364625"
					},
					"owner()": {
						"notice": "Get the current owner"
					},
					"transferOwnership(address)": {
						"notice": "Allows an owner to begin transferring ownership to a new address, pending."
					}
				},
				"notice": "THIS IS AN EXAMPLE CONTRACT THAT USES HARDCODED VALUES FOR CLARITY. THIS IS AN EXAMPLE CONTRACT THAT USES UN-AUDITED CODE. DO NOT USE THIS CODE IN PRODUCTION.",
				"version": 1
			}
		}
	}
}