{
  "_format": "hh-sol-artifact-1",
  "contractName": "GameFactoryBC3",
  "sourceName": "contracts/GameFactoryBC3.sol",
  "abi": [
    {
      "inputs": [
        {
          "internalType": "address",
          "name": "_template",
          "type": "address"
        }
      ],
      "stateMutability": "nonpayable",
      "type": "constructor"
    },
    {
      "anonymous": false,
      "inputs": [
        {
          "indexed": false,
          "internalType": "address",
          "name": "gameAddress",
          "type": "address"
        },
        {
          "indexed": false,
          "internalType": "address",
          "name": "creator",
          "type": "address"
        }
      ],
      "name": "GameCreated",
      "type": "event"
    },
    {
      "inputs": [],
      "name": "createGame",
      "outputs": [
        {
          "internalType": "address",
          "name": "",
          "type": "address"
        }
      ],
      "stateMutability": "nonpayable",
      "type": "function"
    },
    {
      "inputs": [
        {
          "internalType": "uint256",
          "name": "",
          "type": "uint256"
        }
      ],
      "name": "games",
      "outputs": [
        {
          "internalType": "address",
          "name": "",
          "type": "address"
        }
      ],
      "stateMutability": "view",
      "type": "function"
    },
    {
      "inputs": [],
      "name": "getGames",
      "outputs": [
        {
          "internalType": "address[]",
          "name": "",
          "type": "address[]"
        }
      ],
      "stateMutability": "view",
      "type": "function"
    },
    {
      "inputs": [],
      "name": "template",
      "outputs": [
        {
          "internalType": "address",
          "name": "",
          "type": "address"
        }
      ],
      "stateMutability": "view",
      "type": "function"
    }
  ],
  "bytecode": "0x608060405234801561001057600080fd5b506040516107423803806107428339818101604052810190610032919061008e565b80600160006101000a81548173ffffffffffffffffffffffffffffffffffffffff021916908373ffffffffffffffffffffffffffffffffffffffff16021790555050610100565b600081519050610088816100e9565b92915050565b6000602082840312156100a057600080fd5b60006100ae84828501610079565b91505092915050565b60006100c2826100c9565b9050919050565b600073ffffffffffffffffffffffffffffffffffffffff82169050919050565b6100f2816100b7565b81146100fd57600080fd5b50565b6106338061010f6000396000f3fe608060405234801561001057600080fd5b506004361061004c5760003560e01c8063117a5b90146100515780636f2ddd93146100815780637255d7291461009f578063c04c5947146100bd575b600080fd5b61006b600480360381019061006691906103d1565b6100db565b60405161007891906104b1565b60405180910390f35b61008961011a565b60405161009691906104b1565b60405180910390f35b6100a7610140565b6040516100b491906104b1565b60405180910390f35b6100c5610273565b6040516100d291906104f5565b60405180910390f35b600081815481106100eb57600080fd5b906000526020600020016000915054906101000a900473ffffffffffffffffffffffffffffffffffffffff1681565b600160009054906101000a900473ffffffffffffffffffffffffffffffffffffffff1681565b60008061016e600160009054906101000a900473ffffffffffffffffffffffffffffffffffffffff16610301565b90508073ffffffffffffffffffffffffffffffffffffffff16638129fc1c6040518163ffffffff1660e01b8152600401600060405180830381600087803b1580156101b857600080fd5b505af11580156101cc573d6000803e3d6000fd5b505050506000819080600181540180825580915050600190039060005260206000200160009091909190916101000a81548173ffffffffffffffffffffffffffffffffffffffff021916908373ffffffffffffffffffffffffffffffffffffffff1602179055507fb60d84e37a6658effce28870b1d123cb86f86409df5888679310c0f276e1f5d281336040516102649291906104cc565b60405180910390a18091505090565b606060008054806020026020016040519081016040528092919081815260200182805480156102f757602002820191906000526020600020905b8160009054906101000a900473ffffffffffffffffffffffffffffffffffffffff1673ffffffffffffffffffffffffffffffffffffffff16815260200190600101908083116102ad575b5050505050905090565b6000763d602d80600a3d3981f3363d3d373d3d3d363d730000008260601b60e81c176000526e5af43d82803e903d91602b57fd5bf38260781b17602052603760096000f09050600073ffffffffffffffffffffffffffffffffffffffff168173ffffffffffffffffffffffffffffffffffffffff1614156103b7576040517f08c379a00000000000000000000000000000000000000000000000000000000081526004016103ae90610517565b60405180910390fd5b919050565b6000813590506103cb816105e6565b92915050565b6000602082840312156103e357600080fd5b60006103f1848285016103bc565b91505092915050565b60006104068383610412565b60208301905092915050565b61041b81610581565b82525050565b61042a81610581565b82525050565b600061043b82610547565b610445818561055f565b935061045083610537565b8060005b8381101561048157815161046888826103fa565b975061047383610552565b925050600181019050610454565b5085935050505092915050565b600061049b601683610570565b91506104a6826105bd565b602082019050919050565b60006020820190506104c66000830184610421565b92915050565b60006040820190506104e16000830185610421565b6104ee6020830184610421565b9392505050565b6000602082019050818103600083015261050f8184610430565b905092915050565b600060208201905081810360008301526105308161048e565b9050919050565b6000819050602082019050919050565b600081519050919050565b6000602082019050919050565b600082825260208201905092915050565b600082825260208201905092915050565b600061058c82610593565b9050919050565b600073ffffffffffffffffffffffffffffffffffffffff82169050919050565b6000819050919050565b7f455243313136373a20637265617465206661696c656400000000000000000000600082015250565b6105ef816105b3565b81146105fa57600080fd5b5056fea26469706673582212202cfbb17d5f99ecb3b5a03a88f9def46cc16942c7f78ce9d24d100b12abdb4b5064736f6c63430008020033",
  "linkReferences": {},
  "deployedLinkReferences": {}
}