{
  "_format": "hh-sol-artifact-1",
  "contractName": "GameBC3",
  "sourceName": "contracts/GameBC3.sol",
  "abi": [
    {
      "anonymous": false,
      "inputs": [
        {
          "indexed": false,
          "internalType": "uint256",
          "name": "timestamp",
          "type": "uint256"
        },
        {
          "indexed": false,
          "internalType": "address",
          "name": "WinnerAddress",
          "type": "address"
        }
      ],
      "name": "GameEnded",
      "type": "event"
    },
    {
      "anonymous": false,
      "inputs": [
        {
          "indexed": false,
          "internalType": "uint256",
          "name": "timestamp",
          "type": "uint256"
        }
      ],
      "name": "GameStarted",
      "type": "event"
    },
    {
      "anonymous": false,
      "inputs": [
        {
          "indexed": true,
          "internalType": "address",
          "name": "playerAddress",
          "type": "address"
        },
        {
          "indexed": false,
          "internalType": "bytes32",
          "name": "commitment",
          "type": "bytes32"
        },
        {
          "indexed": false,
          "internalType": "uint256",
          "name": "timestamp",
          "type": "uint256"
        }
      ],
      "name": "PlayerCommitted",
      "type": "event"
    },
    {
      "anonymous": false,
      "inputs": [
        {
          "indexed": true,
          "internalType": "address",
          "name": "playerAddress",
          "type": "address"
        },
        {
          "indexed": false,
          "internalType": "uint256",
          "name": "timestamp",
          "type": "uint256"
        }
      ],
      "name": "PlayerJoined",
      "type": "event"
    },
    {
      "anonymous": false,
      "inputs": [
        {
          "indexed": true,
          "internalType": "address",
          "name": "playerAddress",
          "type": "address"
        },
        {
          "indexed": false,
          "internalType": "uint256",
          "name": "amount",
          "type": "uint256"
        },
        {
          "indexed": false,
          "internalType": "uint256",
          "name": "timestamp",
          "type": "uint256"
        }
      ],
      "name": "PlayerRefundClaimed",
      "type": "event"
    },
    {
      "anonymous": false,
      "inputs": [
        {
          "indexed": true,
          "internalType": "address",
          "name": "playerAddress",
          "type": "address"
        },
        {
          "indexed": false,
          "internalType": "uint256",
          "name": "timestamp",
          "type": "uint256"
        }
      ],
      "name": "PlayerRemoved",
      "type": "event"
    },
    {
      "anonymous": false,
      "inputs": [
        {
          "indexed": true,
          "internalType": "address",
          "name": "playerAddress",
          "type": "address"
        },
        {
          "indexed": false,
          "internalType": "uint256",
          "name": "number",
          "type": "uint256"
        },
        {
          "indexed": false,
          "internalType": "uint256",
          "name": "timestamp",
          "type": "uint256"
        }
      ],
      "name": "PlayerRevealed",
      "type": "event"
    },
    {
      "anonymous": false,
      "inputs": [
        {
          "indexed": false,
          "internalType": "uint256",
          "name": "timestamp",
          "type": "uint256"
        }
      ],
      "name": "RevealPhaseStarted",
      "type": "event"
    },
    {
      "anonymous": false,
      "inputs": [
        {
          "indexed": false,
          "internalType": "uint256",
          "name": "amount",
          "type": "uint256"
        },
        {
          "indexed": false,
          "internalType": "uint256",
          "name": "timestamp",
          "type": "uint256"
        }
      ],
      "name": "RewardClaimed",
      "type": "event"
    },
    {
      "anonymous": false,
      "inputs": [
        {
          "indexed": false,
          "internalType": "address",
          "name": "contractOwner",
          "type": "address"
        },
        {
          "indexed": false,
          "internalType": "uint256",
          "name": "fee",
          "type": "uint256"
        }
      ],
      "name": "ServiceFeePaid",
      "type": "event"
    },
    {
      "inputs": [
        {
          "internalType": "uint256",
          "name": "",
          "type": "uint256"
        }
      ],
      "name": "closestPlayers",
      "outputs": [
        {
          "internalType": "address payable",
          "name": "",
          "type": "address"
        }
      ],
      "stateMutability": "view",
      "type": "function"
    },
    {
      "inputs": [
        {
          "internalType": "bytes32",
          "name": "_hash",
          "type": "bytes32"
        }
      ],
      "name": "commitHash",
      "outputs": [],
      "stateMutability": "nonpayable",
      "type": "function"
    },
    {
      "inputs": [],
      "name": "contractOwner",
      "outputs": [
        {
          "internalType": "address payable",
          "name": "",
          "type": "address"
        }
      ],
      "stateMutability": "view",
      "type": "function"
    },
    {
      "inputs": [],
      "name": "countdown",
      "outputs": [
        {
          "internalType": "uint256",
          "name": "",
          "type": "uint256"
        }
      ],
      "stateMutability": "view",
      "type": "function"
    },
    {
      "inputs": [],
      "name": "determineWinner",
      "outputs": [],
      "stateMutability": "nonpayable",
      "type": "function"
    },
    {
      "inputs": [],
      "name": "entryFee",
      "outputs": [
        {
          "internalType": "uint256",
          "name": "",
          "type": "uint256"
        }
      ],
      "stateMutability": "view",
      "type": "function"
    },
    {
      "inputs": [],
      "name": "gameCountdownStartTime",
      "outputs": [
        {
          "internalType": "uint256",
          "name": "",
          "type": "uint256"
        }
      ],
      "stateMutability": "view",
      "type": "function"
    },
    {
      "inputs": [],
      "name": "gameEnded",
      "outputs": [
        {
          "internalType": "bool",
          "name": "",
          "type": "bool"
        }
      ],
      "stateMutability": "view",
      "type": "function"
    },
    {
      "inputs": [],
      "name": "gameFees",
      "outputs": [
        {
          "internalType": "uint256",
          "name": "totalEntryFees",
          "type": "uint256"
        },
        {
          "internalType": "uint256",
          "name": "serviceFee",
          "type": "uint256"
        },
        {
          "internalType": "uint256",
          "name": "winnerReward",
          "type": "uint256"
        }
      ],
      "stateMutability": "view",
      "type": "function"
    },
    {
      "inputs": [],
      "name": "gameStarted",
      "outputs": [
        {
          "internalType": "bool",
          "name": "",
          "type": "bool"
        }
      ],
      "stateMutability": "view",
      "type": "function"
    },
    {
      "inputs": [
        {
          "internalType": "address",
          "name": "",
          "type": "address"
        }
      ],
      "name": "hasPaidEntryFee",
      "outputs": [
        {
          "internalType": "bool",
          "name": "",
          "type": "bool"
        }
      ],
      "stateMutability": "view",
      "type": "function"
    },
    {
      "inputs": [],
      "name": "initialize",
      "outputs": [],
      "stateMutability": "nonpayable",
      "type": "function"
    },
    {
      "inputs": [],
      "name": "joinGame",
      "outputs": [],
      "stateMutability": "payable",
      "type": "function"
    },
    {
      "inputs": [],
      "name": "leaveGame",
      "outputs": [],
      "stateMutability": "nonpayable",
      "type": "function"
    },
    {
      "inputs": [],
      "name": "maxNumberOfPlayers",
      "outputs": [
        {
          "internalType": "uint256",
          "name": "",
          "type": "uint256"
        }
      ],
      "stateMutability": "view",
      "type": "function"
    },
    {
      "inputs": [],
      "name": "minNumberOfPlayers",
      "outputs": [
        {
          "internalType": "uint256",
          "name": "",
          "type": "uint256"
        }
      ],
      "stateMutability": "view",
      "type": "function"
    },
    {
      "inputs": [],
      "name": "numberJoinedPlayers",
      "outputs": [
        {
          "internalType": "uint256",
          "name": "",
          "type": "uint256"
        }
      ],
      "stateMutability": "view",
      "type": "function"
    },
    {
      "inputs": [
        {
          "internalType": "address",
          "name": "",
          "type": "address"
        }
      ],
      "name": "playerCommitments",
      "outputs": [
        {
          "internalType": "bytes32",
          "name": "",
          "type": "bytes32"
        }
      ],
      "stateMutability": "view",
      "type": "function"
    },
    {
      "inputs": [
        {
          "internalType": "address",
          "name": "",
          "type": "address"
        }
      ],
      "name": "playerHasRevealed",
      "outputs": [
        {
          "internalType": "bool",
          "name": "",
          "type": "bool"
        }
      ],
      "stateMutability": "view",
      "type": "function"
    },
    {
      "inputs": [
        {
          "internalType": "uint256",
          "name": "",
          "type": "uint256"
        }
      ],
      "name": "playersWhoHaveRevealed",
      "outputs": [
        {
          "internalType": "address payable",
          "name": "",
          "type": "address"
        }
      ],
      "stateMutability": "view",
      "type": "function"
    },
    {
      "inputs": [],
      "name": "playersWithHash",
      "outputs": [
        {
          "internalType": "uint256",
          "name": "",
          "type": "uint256"
        }
      ],
      "stateMutability": "view",
      "type": "function"
    },
    {
      "inputs": [
        {
          "internalType": "uint256",
          "name": "_number",
          "type": "uint256"
        },
        {
          "internalType": "string",
          "name": "_salt",
          "type": "string"
        }
      ],
      "name": "revealNumber",
      "outputs": [],
      "stateMutability": "nonpayable",
      "type": "function"
    },
    {
      "inputs": [],
      "name": "revealPhase",
      "outputs": [
        {
          "internalType": "bool",
          "name": "",
          "type": "bool"
        }
      ],
      "stateMutability": "view",
      "type": "function"
    },
    {
      "inputs": [],
      "name": "revealPhaseStartTime",
      "outputs": [
        {
          "internalType": "uint256",
          "name": "",
          "type": "uint256"
        }
      ],
      "stateMutability": "view",
      "type": "function"
    },
    {
      "inputs": [],
      "name": "startRevealPhase",
      "outputs": [],
      "stateMutability": "nonpayable",
      "type": "function"
    }
  ],
  "bytecode": "0x6080604052600060025560006003556000600460006101000a81548160ff0219169083151502179055506000600460016101000a81548160ff0219169083151502179055506000600460026101000a81548160ff02191690831515021790555034801561006b57600080fd5b506132448061007b6000396000f3fe6080604052600436106101665760003560e01c80638129fc1c116100d1578063c6fd5d4e1161008a578063d4f77b1c11610064578063d4f77b1c146104d8578063d9396207146104e2578063e1841c701461051f578063f21577731461054857610166565b8063c6fd5d4e1461046b578063cba8887214610482578063ce606ee0146104ad57610166565b80638129fc1c1461037d57806398d76da514610394578063b1501f9c146103c1578063b2d04323146103d8578063b9c68fad14610415578063c5fc181a1461044057610166565b80633c37b640116101235780633c37b6401461027d5780633e7e31d1146102a65780635e123ce4146102d15780636dba3ef1146102fc578063728fdffa14610327578063784e91b41461035257610166565b8063072ea61c1461016b5780632b883ccb146101965780632f6fe396146101d357806333b16d93146101fe5780633a976b06146102155780633aa3de6714610252575b600080fd5b34801561017757600080fd5b50610180610585565b60405161018d9190612743565b60405180910390f35b3480156101a257600080fd5b506101bd60048036038101906101b89190611ff1565b610591565b6040516101ca919061249f565b60405180910390f35b3480156101df57600080fd5b506101e86105a9565b6040516101f59190612484565b60405180910390f35b34801561020a57600080fd5b506102136105bc565b005b34801561022157600080fd5b5061023c60048036038101906102379190611ff1565b610eac565b6040516102499190612484565b60405180910390f35b34801561025e57600080fd5b50610267610ecc565b6040516102749190612743565b60405180910390f35b34801561028957600080fd5b506102a4600480360381019061029f919061201a565b610ed2565b005b3480156102b257600080fd5b506102bb6110e7565b6040516102c89190612743565b60405180910390f35b3480156102dd57600080fd5b506102e66110ec565b6040516102f39190612484565b60405180910390f35b34801561030857600080fd5b506103116110ff565b60405161031e9190612484565b60405180910390f35b34801561033357600080fd5b5061033c611112565b6040516103499190612743565b60405180910390f35b34801561035e57600080fd5b50610367611117565b6040516103749190612743565b60405180910390f35b34801561038957600080fd5b5061039261111d565b005b3480156103a057600080fd5b506103a96111ab565b6040516103b8939291906127b0565b60405180910390f35b3480156103cd57600080fd5b506103d66111c3565b005b3480156103e457600080fd5b506103ff60048036038101906103fa9190612043565b611506565b60405161040c9190612440565b60405180910390f35b34801561042157600080fd5b5061042a611545565b6040516104379190612743565b60405180910390f35b34801561044c57600080fd5b5061045561154b565b6040516104629190612743565b60405180910390f35b34801561047757600080fd5b50610480611551565b005b34801561048e57600080fd5b5061049761164b565b6040516104a49190612743565b60405180910390f35b3480156104b957600080fd5b506104c2611651565b6040516104cf9190612440565b60405180910390f35b6104e0611677565b005b3480156104ee57600080fd5b5061050960048036038101906105049190612043565b6118aa565b6040516105169190612440565b60405180910390f35b34801561052b57600080fd5b506105466004803603810190610541919061206c565b6118e9565b005b34801561055457600080fd5b5061056f600480360381019061056a9190611ff1565b611c1a565b60405161057c9190612484565b60405180910390f35b67016345785d8a000081565b60066020528060005260406000206000915090505481565b600460019054906101000a900460ff1681565b600b60009054906101000a900473ffffffffffffffffffffffffffffffffffffffff1673ffffffffffffffffffffffffffffffffffffffff163373ffffffffffffffffffffffffffffffffffffffff161461064c576040517f08c379a0000000000000000000000000000000000000000000000000000000008152600401610643906125a3565b60405180910390fd5b60011515600460029054906101000a900460ff161515146106a2576040517f08c379a000000000000000000000000000000000000000000000000000000000815260040161069990612663565b60405180910390fd5b60b46000546106b19190612864565b42116106bc57600080fd5b60001515600460019054906101000a900460ff16151514610712576040517f08c379a000000000000000000000000000000000000000000000000000000000815260040161070990612503565b60405180910390fd5b6003600980549050101561072557600080fd5b6000805b6009805490508110156107fa576007600060098381548110610774577f4e487b7100000000000000000000000000000000000000000000000000000000600052603260045260246000fd5b9060005260206000200160009054906101000a900473ffffffffffffffffffffffffffffffffffffffff1673ffffffffffffffffffffffffffffffffffffffff1673ffffffffffffffffffffffffffffffffffffffff16815260200190815260200160002054826107e59190612864565b915080806107f290612af0565b915050610729565b506000600980549050606461080f91906128eb565b82604261081c91906128eb565b61082691906128ba565b9050600a60006108369190611e82565b6000806103e9905060005b600980549050811015610c3b57600115156008600060098481548110610890577f4e487b7100000000000000000000000000000000000000000000000000000000600052603260045260246000fd5b9060005260206000200160009054906101000a900473ffffffffffffffffffffffffffffffffffffffff1673ffffffffffffffffffffffffffffffffffffffff1673ffffffffffffffffffffffffffffffffffffffff16815260200190815260200160002060009054906101000a900460ff1615151415610c28576007600060098381548110610949577f4e487b7100000000000000000000000000000000000000000000000000000000600052603260045260246000fd5b9060005260206000200160009054906101000a900473ffffffffffffffffffffffffffffffffffffffff1673ffffffffffffffffffffffffffffffffffffffff1673ffffffffffffffffffffffffffffffffffffffff16815260200190815260200160002054925060006109c784866109c29190612945565b611c3a565b905082811015610b5557600a60006109df9190611e82565b600167ffffffffffffffff811115610a20577f4e487b7100000000000000000000000000000000000000000000000000000000600052604160045260246000fd5b604051908082528060200260200182016040528015610a4e5781602001602082028036833780820191505090505b50600a9080519060200190610a64929190611ea3565b5060098281548110610a9f577f4e487b7100000000000000000000000000000000000000000000000000000000600052603260045260246000fd5b9060005260206000200160009054906101000a900473ffffffffffffffffffffffffffffffffffffffff16600a600081548110610b05577f4e487b7100000000000000000000000000000000000000000000000000000000600052603260045260246000fd5b9060005260206000200160006101000a81548173ffffffffffffffffffffffffffffffffffffffff021916908373ffffffffffffffffffffffffffffffffffffffff160217905550809250610c26565b82811415610c2557600a60098381548110610b99577f4e487b7100000000000000000000000000000000000000000000000000000000600052603260045260246000fd5b9060005260206000200160009054906101000a900473ffffffffffffffffffffffffffffffffffffffff169080600181540180825580915050600190039060005260206000200160009091909190916101000a81548173ffffffffffffffffffffffffffffffffffffffff021916908373ffffffffffffffffffffffffffffffffffffffff1602179055505b5b505b8080610c3390612af0565b915050610841565b506001600a805490501115610d35576000600a805490504243604051602001610c65929190612414565b6040516020818303038152906040528051906020012060001c610c889190612b43565b9050600a8181548110610cc4577f4e487b7100000000000000000000000000000000000000000000000000000000600052603260045260246000fd5b9060005260206000200160009054906101000a900473ffffffffffffffffffffffffffffffffffffffff16600c60006101000a81548173ffffffffffffffffffffffffffffffffffffffff021916908373ffffffffffffffffffffffffffffffffffffffff16021790555050610ddc565b600a600081548110610d70577f4e487b7100000000000000000000000000000000000000000000000000000000600052603260045260246000fd5b9060005260206000200160009054906101000a900473ffffffffffffffffffffffffffffffffffffffff16600c60006101000a81548173ffffffffffffffffffffffffffffffffffffffff021916908373ffffffffffffffffffffffffffffffffffffffff1602179055505b47600d60000181905550600a600d60000154610df891906128ba565b600d60010181905550600a6009600d60000154610e1591906128eb565b610e1f91906128ba565b600d600201819055506001600460016101000a81548160ff0219169083151502179055507f3d5fcd8fa3235aeb3897f25c8ea49989174981afcb01b9d03189d1056a16775b42600c60009054906101000a900473ffffffffffffffffffffffffffffffffffffffff16604051610e9692919061275e565b60405180910390a1610ea6611c56565b50505050565b60086020528060005260406000206000915054906101000a900460ff1681565b60005481565b60001515600460029054906101000a900460ff16151514610f28576040517f08c379a0000000000000000000000000000000000000000000000000000000008152600401610f1f90612723565b60405180910390fd5b600560003373ffffffffffffffffffffffffffffffffffffffff1673ffffffffffffffffffffffffffffffffffffffff16815260200190815260200160002060009054906101000a900460ff16610fb4576040517f08c379a0000000000000000000000000000000000000000000000000000000008152600401610fab906125c3565b60405180910390fd5b6000801b600660003373ffffffffffffffffffffffffffffffffffffffff1673ffffffffffffffffffffffffffffffffffffffff1681526020019081526020016000205414611038576040517f08c379a000000000000000000000000000000000000000000000000000000000815260040161102f906124e3565b60405180910390fd5b80600660003373ffffffffffffffffffffffffffffffffffffffff1673ffffffffffffffffffffffffffffffffffffffff168152602001908152602001600020819055506003600081548092919061108f90612af0565b91905055503373ffffffffffffffffffffffffffffffffffffffff167f937cad85f6d0631d9cea3f909e4a2e483fd350f008b1ccb2c81532c8681e0f2082426040516110dc9291906124ba565b60405180910390a250565b600381565b600460009054906101000a900460ff1681565b600460029054906101000a900460ff1681565b601481565b60015481565b33600b60006101000a81548173ffffffffffffffffffffffffffffffffffffffff021916908373ffffffffffffffffffffffffffffffffffffffff1602179055506000600460006101000a81548160ff0219169083151502179055506000600460016101000a81548160ff02191690831515021790555062015180426111a39190612864565b601081905550565b600d8060000154908060010154908060020154905083565b600560003373ffffffffffffffffffffffffffffffffffffffff1673ffffffffffffffffffffffffffffffffffffffff16815260200190815260200160002060009054906101000a900460ff1661124f576040517f08c379a000000000000000000000000000000000000000000000000000000000815260040161124690612543565b60405180910390fd5b600860003373ffffffffffffffffffffffffffffffffffffffff1673ffffffffffffffffffffffffffffffffffffffff16815260200190815260200160002060009054906101000a900460ff16156112dc576040517f08c379a00000000000000000000000000000000000000000000000000000000081526004016112d390612643565b60405180910390fd5b601054421015611321576040517f08c379a000000000000000000000000000000000000000000000000000000000815260040161131890612683565b60405180910390fd5b6000600560003373ffffffffffffffffffffffffffffffffffffffff1673ffffffffffffffffffffffffffffffffffffffff16815260200190815260200160002060006101000a81548160ff0219169083151502179055506000801b600660003373ffffffffffffffffffffffffffffffffffffffff1673ffffffffffffffffffffffffffffffffffffffff168152602001908152602001600020819055506000600760003373ffffffffffffffffffffffffffffffffffffffff1673ffffffffffffffffffffffffffffffffffffffff168152602001908152602001600020819055506000600860003373ffffffffffffffffffffffffffffffffffffffff1673ffffffffffffffffffffffffffffffffffffffff16815260200190815260200160002060006101000a81548160ff0219169083151502179055503373ffffffffffffffffffffffffffffffffffffffff166108fc67016345785d8a00009081150290604051600060405180830381858888f193505050501580156114ab573d6000803e3d6000fd5b503373ffffffffffffffffffffffffffffffffffffffff167f9749ed1e02e2e04552def36d1d3be75262b0514d2c8c827789b324d7f557973367016345785d8a0000426040516114fc929190612787565b60405180910390a2565b6009818154811061151657600080fd5b906000526020600020016000915054906101000a900473ffffffffffffffffffffffffffffffffffffffff1681565b60025481565b60035481565b600b60009054906101000a900473ffffffffffffffffffffffffffffffffffffffff1673ffffffffffffffffffffffffffffffffffffffff163373ffffffffffffffffffffffffffffffffffffffff16146115e1576040517f08c379a00000000000000000000000000000000000000000000000000000000081526004016115d8906125a3565b60405180910390fd5b6003805410156115f057600080fd5b6001600460026101000a81548160ff021916908315150217905550426001819055507f9f48cac694ad868cba9c30d5ff1dfdeb034062b2d87eb6d32e5318392faeb08f426040516116419190612743565b60405180910390a1565b60105481565b600b60009054906101000a900473ffffffffffffffffffffffffffffffffffffffff1681565b60001515600460029054906101000a900460ff161515146116cd576040517f08c379a00000000000000000000000000000000000000000000000000000000081526004016116c4906126a3565b60405180910390fd5b600560003373ffffffffffffffffffffffffffffffffffffffff1673ffffffffffffffffffffffffffffffffffffffff16815260200190815260200160002060009054906101000a900460ff161561175a576040517f08c379a0000000000000000000000000000000000000000000000000000000008152600401611751906126c3565b60405180910390fd5b601460025411156117a0576040517f08c379a000000000000000000000000000000000000000000000000000000000815260040161179790612583565b60405180910390fd5b67016345785d8a000034146117ea576040517f08c379a00000000000000000000000000000000000000000000000000000000081526004016117e190612563565b60405180910390fd5b6001600560003373ffffffffffffffffffffffffffffffffffffffff1673ffffffffffffffffffffffffffffffffffffffff16815260200190815260200160002060006101000a81548160ff0219169083151502179055506002600081548092919061185590612af0565b91905055503373ffffffffffffffffffffffffffffffffffffffff167f3330a6773675f31f62070870f40379f8c6d42e3761410011a4dfc42b18043d2f426040516118a09190612743565b60405180910390a2565b600a81815481106118ba57600080fd5b906000526020600020016000915054906101000a900473ffffffffffffffffffffffffffffffffffffffff1681565b60011515600460029054906101000a900460ff1615151461193f576040517f08c379a0000000000000000000000000000000000000000000000000000000008152600401611936906125e3565b60405180910390fd5b600860003373ffffffffffffffffffffffffffffffffffffffff1673ffffffffffffffffffffffffffffffffffffffff16815260200190815260200160002060009054906101000a900460ff16156119cc576040517f08c379a00000000000000000000000000000000000000000000000000000000081526004016119c390612603565b60405180910390fd5b600660003373ffffffffffffffffffffffffffffffffffffffff1673ffffffffffffffffffffffffffffffffffffffff168152602001908152602001600020548282604051602001611a1f9291906123ec565b6040516020818303038152906040528051906020012014611a75576040517f08c379a0000000000000000000000000000000000000000000000000000000008152600401611a6c90612623565b60405180910390fd5b60008210158015611a8857506103e88211155b611ac7576040517f08c379a0000000000000000000000000000000000000000000000000000000008152600401611abe90612523565b60405180910390fd5b81600760003373ffffffffffffffffffffffffffffffffffffffff1673ffffffffffffffffffffffffffffffffffffffff168152602001908152602001600020819055506001600860003373ffffffffffffffffffffffffffffffffffffffff1673ffffffffffffffffffffffffffffffffffffffff16815260200190815260200160002060006101000a81548160ff0219169083151502179055506009339080600181540180825580915050600190039060005260206000200160009091909190916101000a81548173ffffffffffffffffffffffffffffffffffffffff021916908373ffffffffffffffffffffffffffffffffffffffff1602179055503373ffffffffffffffffffffffffffffffffffffffff167f96623b9378c0c6f499a15f3f777767b381b8c3f97f63f1bebd50fc3f4687da9a8342604051611c0e929190612787565b60405180910390a25050565b60056020528060005260406000206000915054906101000a900460ff1681565b600080821215611c4d5781600003611c4f565b815b9050919050565b60011515600460019054906101000a900460ff16151514611c7657600080fd5b6000600d6002015411611cbe576040517f08c379a0000000000000000000000000000000000000000000000000000000008152600401611cb590612703565b60405180910390fd5b6000600d6001015411611d06576040517f08c379a0000000000000000000000000000000000000000000000000000000008152600401611cfd906126e3565b60405180910390fd5b600c60009054906101000a900473ffffffffffffffffffffffffffffffffffffffff1673ffffffffffffffffffffffffffffffffffffffff166108fc600d600201549081150290604051600060405180830381858888f19350505050158015611d73573d6000803e3d6000fd5b507f47b0878030426a9511b1cd915a0ac34bd29f33d4f846616b55847303ff8ebcbe600d6002015442604051611daa929190612787565b60405180910390a1600b60009054906101000a900473ffffffffffffffffffffffffffffffffffffffff1673ffffffffffffffffffffffffffffffffffffffff166108fc600d600101549081150290604051600060405180830381858888f19350505050158015611e1f573d6000803e3d6000fd5b507fa70c9ef1994019c7c70e8134256a652460b545755ed8aad140daeaccc30446b3600b60009054906101000a900473ffffffffffffffffffffffffffffffffffffffff16600d60010154604051611e7892919061245b565b60405180910390a1565b5080546000825590600052602060002090810190611ea09190611f2d565b50565b828054828255906000526020600020908101928215611f1c579160200282015b82811115611f1b5782518260006101000a81548173ffffffffffffffffffffffffffffffffffffffff021916908373ffffffffffffffffffffffffffffffffffffffff16021790555091602001919060010190611ec3565b5b509050611f299190611f2d565b5090565b5b80821115611f46576000816000905550600101611f2e565b5090565b6000611f5d611f588461280c565b6127e7565b905082815260208101848484011115611f7557600080fd5b611f80848285612a7d565b509392505050565b600081359050611f97816131c9565b92915050565b600081359050611fac816131e0565b92915050565b600082601f830112611fc357600080fd5b8135611fd3848260208601611f4a565b91505092915050565b600081359050611feb816131f7565b92915050565b60006020828403121561200357600080fd5b600061201184828501611f88565b91505092915050565b60006020828403121561202c57600080fd5b600061203a84828501611f9d565b91505092915050565b60006020828403121561205557600080fd5b600061206384828501611fdc565b91505092915050565b6000806040838503121561207f57600080fd5b600061208d85828601611fdc565b925050602083013567ffffffffffffffff8111156120aa57600080fd5b6120b685828601611fb2565b9150509250929050565b6120c981612a47565b82525050565b6120d8816129eb565b82525050565b6120e7816129fd565b82525050565b6120f681612a09565b82525050565b60006121078261283d565b6121118185612859565b9350612121818560208601612a8c565b80840191505092915050565b600061213a602c83612848565b915061214582612c12565b604082019050919050565b600061215d600f83612848565b915061216882612c61565b602082019050919050565b6000612180602283612848565b915061218b82612c8a565b604082019050919050565b60006121a3601f83612848565b91506121ae82612cd9565b602082019050919050565b60006121c6603383612848565b91506121d182612d02565b604082019050919050565b60006121e9601d83612848565b91506121f482612d51565b602082019050919050565b600061220c602e83612848565b915061221782612d7a565b604082019050919050565b600061222f601a83612848565b915061223a82612dc9565b602082019050919050565b6000612252604683612848565b915061225d82612df2565b606082019050919050565b6000612275602683612848565b915061228082612e67565b604082019050919050565b6000612298603f83612848565b91506122a382612eb6565b604082019050919050565b60006122bb603583612848565b91506122c682612f05565b604082019050919050565b60006122de602583612848565b91506122e982612f54565b604082019050919050565b6000612301605983612848565b915061230c82612fa3565b606082019050919050565b6000612324602583612848565b915061232f82613018565b604082019050919050565b6000612347604183612848565b915061235282613067565b606082019050919050565b600061236a603e83612848565b9150612375826130dc565b604082019050919050565b600061238d602a83612848565b91506123988261312b565b604082019050919050565b60006123b0603283612848565b91506123bb8261317a565b604082019050919050565b6123cf81612a3d565b82525050565b6123e66123e182612a3d565b612b39565b82525050565b60006123f882856123d5565b60208201915061240882846120fc565b91508190509392505050565b600061242082856123d5565b60208201915061243082846123d5565b6020820191508190509392505050565b600060208201905061245560008301846120cf565b92915050565b600060408201905061247060008301856120c0565b61247d60208301846123c6565b9392505050565b600060208201905061249960008301846120de565b92915050565b60006020820190506124b460008301846120ed565b92915050565b60006040820190506124cf60008301856120ed565b6124dc60208301846123c6565b9392505050565b600060208201905081810360008301526124fc8161212d565b9050919050565b6000602082019050818103600083015261251c81612150565b9050919050565b6000602082019050818103600083015261253c81612173565b9050919050565b6000602082019050818103600083015261255c81612196565b9050919050565b6000602082019050818103600083015261257c816121b9565b9050919050565b6000602082019050818103600083015261259c816121dc565b9050919050565b600060208201905081810360008301526125bc816121ff565b9050919050565b600060208201905081810360008301526125dc81612222565b9050919050565b600060208201905081810360008301526125fc81612245565b9050919050565b6000602082019050818103600083015261261c81612268565b9050919050565b6000602082019050818103600083015261263c8161228b565b9050919050565b6000602082019050818103600083015261265c816122ae565b9050919050565b6000602082019050818103600083015261267c816122d1565b9050919050565b6000602082019050818103600083015261269c816122f4565b9050919050565b600060208201905081810360008301526126bc81612317565b9050919050565b600060208201905081810360008301526126dc8161233a565b9050919050565b600060208201905081810360008301526126fc8161235d565b9050919050565b6000602082019050818103600083015261271c81612380565b9050919050565b6000602082019050818103600083015261273c816123a3565b9050919050565b600060208201905061275860008301846123c6565b92915050565b600060408201905061277360008301856123c6565b61278060208301846120c0565b9392505050565b600060408201905061279c60008301856123c6565b6127a960208301846123c6565b9392505050565b60006060820190506127c560008301866123c6565b6127d260208301856123c6565b6127df60408301846123c6565b949350505050565b60006127f1612802565b90506127fd8282612abf565b919050565b6000604051905090565b600067ffffffffffffffff82111561282757612826612bd2565b5b61283082612c01565b9050602081019050919050565b600081519050919050565b600082825260208201905092915050565b600081905092915050565b600061286f82612a3d565b915061287a83612a3d565b9250827fffffffffffffffffffffffffffffffffffffffffffffffffffffffffffffffff038211156128af576128ae612b74565b5b828201905092915050565b60006128c582612a3d565b91506128d083612a3d565b9250826128e0576128df612ba3565b5b828204905092915050565b60006128f682612a3d565b915061290183612a3d565b9250817fffffffffffffffffffffffffffffffffffffffffffffffffffffffffffffffff048311821515161561293a57612939612b74565b5b828202905092915050565b600061295082612a13565b915061295b83612a13565b9250827f80000000000000000000000000000000000000000000000000000000000000000182126000841215161561299657612995612b74565b5b827f7fffffffffffffffffffffffffffffffffffffffffffffffffffffffffffffff0182136000841216156129ce576129cd612b74565b5b828203905092915050565b60006129e482612a1d565b9050919050565b60006129f682612a1d565b9050919050565b60008115159050919050565b6000819050919050565b6000819050919050565b600073ffffffffffffffffffffffffffffffffffffffff82169050919050565b6000819050919050565b6000612a5282612a59565b9050919050565b6000612a6482612a6b565b9050919050565b6000612a7682612a1d565b9050919050565b82818337600083830152505050565b60005b83811015612aaa578082015181840152602081019050612a8f565b83811115612ab9576000848401525b50505050565b612ac882612c01565b810181811067ffffffffffffffff82111715612ae757612ae6612bd2565b5b80604052505050565b6000612afb82612a3d565b91507fffffffffffffffffffffffffffffffffffffffffffffffffffffffffffffffff821415612b2e57612b2d612b74565b5b600182019050919050565b6000819050919050565b6000612b4e82612a3d565b9150612b5983612a3d565b925082612b6957612b68612ba3565b5b828206905092915050565b7f4e487b7100000000000000000000000000000000000000000000000000000000600052601160045260246000fd5b7f4e487b7100000000000000000000000000000000000000000000000000000000600052601260045260246000fd5b7f4e487b7100000000000000000000000000000000000000000000000000000000600052604160045260246000fd5b6000601f19601f8301169050919050565b7f596f75206861766520616c726561647920636f6d6d69747465642061206e756d60008201527f62657220616e642073616c740000000000000000000000000000000000000000602082015250565b7f47616d652068617320656e6465642e0000000000000000000000000000000000600082015250565b7f4e756d626572206d757374206265206265747765656e203020616e642031303060008201527f302e000000000000000000000000000000000000000000000000000000000000602082015250565b7f596f7520686176656e2774206a6f696e6564207468652067616d652079657400600082015250565b7f506c65617365207061792074686520657861637420706172746963697061746960008201527f6f6e20666565206f6620302e3120657468657200000000000000000000000000602082015250565b7f4d6178206e756d626572206f6620706c61796572732072656163686564000000600082015250565b7f4f6e6c792074686520636f6e7472616374206f776e65722063616e2063616c6c60008201527f20746869732066756e6374696f6e000000000000000000000000000000000000602082015250565b7f596f75206d757374207061792074686520656e74727920666565000000000000600082015250565b7f5468652072657665616c20706861736520686173206e6f74207374617274656460008201527f20796574207761697420666f7220666f757220626c6f636b7320746f2062652060208201527f6d696e65642e0000000000000000000000000000000000000000000000000000604082015250565b7f596f75206861766520616c72656164792072657665616c656420796f7572206e60008201527f756d6265722e0000000000000000000000000000000000000000000000000000602082015250565b7f5468652072657665616c6564206e756d62657220616e642073616c7420646f2060008201527f6e6f74206d617463682074686520636f6d6d69747465642076616c7565732e00602082015250565b7f596f7520686176652072657665616c65642061206e756d6265722c20796f752060008201527f63616e6e6f7420636c61696d206120726566756e640000000000000000000000602082015250565b7f5468652072657665616c20706861736520686173206e6f74207374617274656460008201527f207965742e000000000000000000000000000000000000000000000000000000602082015250565b7f596f75206861766520746f20776169742061206461792066726f6d207468652060008201527f63636f6e7472616374206372656174696f6e20626c6f636b2e74696d6573746160208201527f6d70206f6e2c20746f206c65617665207468652067616d652e00000000000000604082015250565b7f5468652072657665616c2070686173652068617320616c72656164792073746160008201527f7274656421000000000000000000000000000000000000000000000000000000602082015250565b7f596f75206861766520616c726561647920706169642074686520656e7472792060008201527f6665652c20796f7520616c7265616479206a6f696e6564207468652067616d6560208201527f2100000000000000000000000000000000000000000000000000000000000000604082015250565b7f5468652073657276696365206665652068617320616c7265616479206265656e60008201527f20636c61696d65642062792074686520636f6e7472616374206f776e65720000602082015250565b7f5468652077696e6e6572207265776172642068617320616c726561647920626560008201527f656e20636c61696d656400000000000000000000000000000000000000000000602082015250565b7f52657665616c2070686173652068617320737461727465642c2063616e6e6f7460008201527f20636f6d6d6974206e756d626572206e6f770000000000000000000000000000602082015250565b6131d2816129d9565b81146131dd57600080fd5b50565b6131e981612a09565b81146131f457600080fd5b50565b61320081612a3d565b811461320b57600080fd5b5056fea26469706673582212200752db91b59d731af552db30bea51879a28bd1dc0f94a1b24f7f7e36e41941c764736f6c63430008020033",
  "linkReferences": {},
  "deployedLinkReferences": {}
}