{
  "contractName": "GAMEBC3",
  "abi": [
    {
      "anonymous": false,
      "inputs": [
        {
          "indexed": true,
          "internalType": "address",
          "name": "playerAddress",
          "type": "address"
        },
        {
          "indexed": false,
          "internalType": "uint256",
          "name": "amount",
          "type": "uint256"
        },
        {
          "indexed": false,
          "internalType": "uint256",
          "name": "timestamp",
          "type": "uint256"
        }
      ],
      "name": "EntryFeePaid",
      "type": "event"
    },
    {
      "anonymous": false,
      "inputs": [
        {
          "indexed": false,
          "internalType": "uint256",
          "name": "timestamp",
          "type": "uint256"
        },
        {
          "indexed": false,
          "internalType": "address",
          "name": "WinnerAddress",
          "type": "address"
        }
      ],
      "name": "GameEnded",
      "type": "event"
    },
    {
      "anonymous": false,
      "inputs": [
        {
          "indexed": false,
          "internalType": "uint256",
          "name": "timestamp",
          "type": "uint256"
        }
      ],
      "name": "GameStarted",
      "type": "event"
    },
    {
      "anonymous": false,
      "inputs": [
        {
          "indexed": false,
          "internalType": "uint8",
          "name": "version",
          "type": "uint8"
        }
      ],
      "name": "Initialized",
      "type": "event"
    },
    {
      "anonymous": false,
      "inputs": [
        {
          "indexed": true,
          "internalType": "address",
          "name": "playerAddress",
          "type": "address"
        },
        {
          "indexed": false,
          "internalType": "string",
          "name": "commitment",
          "type": "string"
        },
        {
          "indexed": false,
          "internalType": "uint256",
          "name": "timestamp",
          "type": "uint256"
        }
      ],
      "name": "PlayerCommitted",
      "type": "event"
    },
    {
      "anonymous": false,
      "inputs": [
        {
          "indexed": true,
          "internalType": "address",
          "name": "playerAddress",
          "type": "address"
        },
        {
          "indexed": false,
          "internalType": "uint256",
          "name": "timestamp",
          "type": "uint256"
        }
      ],
      "name": "PlayerJoined",
      "type": "event"
    },
    {
      "anonymous": false,
      "inputs": [
        {
          "indexed": true,
          "internalType": "address",
          "name": "playerAddress",
          "type": "address"
        },
        {
          "indexed": false,
          "internalType": "uint256",
          "name": "amount",
          "type": "uint256"
        },
        {
          "indexed": false,
          "internalType": "uint256",
          "name": "timestamp",
          "type": "uint256"
        }
      ],
      "name": "PlayerRefundClaimed",
      "type": "event"
    },
    {
      "anonymous": false,
      "inputs": [
        {
          "indexed": true,
          "internalType": "address",
          "name": "playerAddress",
          "type": "address"
        },
        {
          "indexed": false,
          "internalType": "uint256",
          "name": "timestamp",
          "type": "uint256"
        }
      ],
      "name": "PlayerRemoved",
      "type": "event"
    },
    {
      "anonymous": false,
      "inputs": [
        {
          "indexed": true,
          "internalType": "address",
          "name": "playerAddress",
          "type": "address"
        },
        {
          "indexed": false,
          "internalType": "uint256",
          "name": "number",
          "type": "uint256"
        },
        {
          "indexed": false,
          "internalType": "uint256",
          "name": "timestamp",
          "type": "uint256"
        }
      ],
      "name": "PlayerRevealed",
      "type": "event"
    },
    {
      "anonymous": false,
      "inputs": [
        {
          "indexed": false,
          "internalType": "uint256",
          "name": "timestamp",
          "type": "uint256"
        }
      ],
      "name": "RevealPhaseStarted",
      "type": "event"
    },
    {
      "anonymous": false,
      "inputs": [
        {
          "indexed": true,
          "internalType": "address",
          "name": "claimerAddress",
          "type": "address"
        },
        {
          "indexed": false,
          "internalType": "uint256",
          "name": "amount",
          "type": "uint256"
        },
        {
          "indexed": false,
          "internalType": "uint256",
          "name": "timestamp",
          "type": "uint256"
        }
      ],
      "name": "RewardClaimed",
      "type": "event"
    },
    {
      "anonymous": false,
      "inputs": [
        {
          "indexed": false,
          "internalType": "address",
          "name": "contractOwner",
          "type": "address"
        },
        {
          "indexed": false,
          "internalType": "uint256",
          "name": "fee",
          "type": "uint256"
        }
      ],
      "name": "ServiceFeePaid",
      "type": "event"
    },
    {
      "inputs": [
        {
          "internalType": "uint256",
          "name": "",
          "type": "uint256"
        }
      ],
      "name": "closestPlayers",
      "outputs": [
        {
          "internalType": "address payable",
          "name": "",
          "type": "address"
        }
      ],
      "stateMutability": "view",
      "type": "function"
    },
    {
      "inputs": [],
      "name": "contractOwner",
      "outputs": [
        {
          "internalType": "address payable",
          "name": "",
          "type": "address"
        }
      ],
      "stateMutability": "view",
      "type": "function"
    },
    {
      "inputs": [],
      "name": "entryFee",
      "outputs": [
        {
          "internalType": "uint256",
          "name": "",
          "type": "uint256"
        }
      ],
      "stateMutability": "view",
      "type": "function"
    },
    {
      "inputs": [],
      "name": "gameEnded",
      "outputs": [
        {
          "internalType": "bool",
          "name": "",
          "type": "bool"
        }
      ],
      "stateMutability": "view",
      "type": "function"
    },
    {
      "inputs": [],
      "name": "gameFees",
      "outputs": [
        {
          "internalType": "uint256",
          "name": "totalEntryFees",
          "type": "uint256"
        },
        {
          "internalType": "uint256",
          "name": "serviceFee",
          "type": "uint256"
        },
        {
          "internalType": "uint256",
          "name": "winnerReward",
          "type": "uint256"
        }
      ],
      "stateMutability": "view",
      "type": "function"
    },
    {
      "inputs": [],
      "name": "gameStartTime",
      "outputs": [
        {
          "internalType": "uint256",
          "name": "",
          "type": "uint256"
        }
      ],
      "stateMutability": "view",
      "type": "function"
    },
    {
      "inputs": [],
      "name": "gameStarted",
      "outputs": [
        {
          "internalType": "bool",
          "name": "",
          "type": "bool"
        }
      ],
      "stateMutability": "view",
      "type": "function"
    },
    {
      "inputs": [
        {
          "internalType": "address",
          "name": "",
          "type": "address"
        }
      ],
      "name": "hasPaid",
      "outputs": [
        {
          "internalType": "bool",
          "name": "",
          "type": "bool"
        }
      ],
      "stateMutability": "view",
      "type": "function"
    },
    {
      "inputs": [],
      "name": "maxNumberOfPlayers",
      "outputs": [
        {
          "internalType": "uint256",
          "name": "",
          "type": "uint256"
        }
      ],
      "stateMutability": "view",
      "type": "function"
    },
    {
      "inputs": [],
      "name": "minNumberOfPlayers",
      "outputs": [
        {
          "internalType": "uint256",
          "name": "",
          "type": "uint256"
        }
      ],
      "stateMutability": "view",
      "type": "function"
    },
    {
      "inputs": [],
      "name": "numberJoinedPlayers",
      "outputs": [
        {
          "internalType": "uint256",
          "name": "",
          "type": "uint256"
        }
      ],
      "stateMutability": "view",
      "type": "function"
    },
    {
      "inputs": [],
      "name": "numberPlayersWithHash",
      "outputs": [
        {
          "internalType": "uint256",
          "name": "",
          "type": "uint256"
        }
      ],
      "stateMutability": "view",
      "type": "function"
    },
    {
      "inputs": [
        {
          "internalType": "address",
          "name": "",
          "type": "address"
        }
      ],
      "name": "playerCommitments",
      "outputs": [
        {
          "internalType": "bytes32",
          "name": "",
          "type": "bytes32"
        }
      ],
      "stateMutability": "view",
      "type": "function"
    },
    {
      "inputs": [
        {
          "internalType": "address",
          "name": "",
          "type": "address"
        }
      ],
      "name": "playerHasRevealed",
      "outputs": [
        {
          "internalType": "bool",
          "name": "",
          "type": "bool"
        }
      ],
      "stateMutability": "view",
      "type": "function"
    },
    {
      "inputs": [
        {
          "internalType": "uint256",
          "name": "",
          "type": "uint256"
        }
      ],
      "name": "playersWhoHaveRevealed",
      "outputs": [
        {
          "internalType": "address payable",
          "name": "",
          "type": "address"
        }
      ],
      "stateMutability": "view",
      "type": "function"
    },
    {
      "inputs": [
        {
          "internalType": "uint256",
          "name": "",
          "type": "uint256"
        }
      ],
      "name": "playersWithHash",
      "outputs": [
        {
          "internalType": "address payable",
          "name": "",
          "type": "address"
        }
      ],
      "stateMutability": "view",
      "type": "function"
    },
    {
      "inputs": [],
      "name": "revealPhase",
      "outputs": [
        {
          "internalType": "bool",
          "name": "",
          "type": "bool"
        }
      ],
      "stateMutability": "view",
      "type": "function"
    },
    {
      "inputs": [],
      "name": "revealPhaseStartTime",
      "outputs": [
        {
          "internalType": "uint256",
          "name": "",
          "type": "uint256"
        }
      ],
      "stateMutability": "view",
      "type": "function"
    },
    {
      "inputs": [
        {
          "internalType": "address",
          "name": "_owner",
          "type": "address"
        }
      ],
      "name": "initialize",
      "outputs": [],
      "stateMutability": "nonpayable",
      "type": "function"
    },
    {
      "inputs": [],
      "name": "joinGame",
      "outputs": [],
      "stateMutability": "payable",
      "type": "function"
    },
    {
      "inputs": [
        {
          "internalType": "string",
          "name": "_hash",
          "type": "string"
        }
      ],
      "name": "commitHash",
      "outputs": [],
      "stateMutability": "nonpayable",
      "type": "function"
    },
    {
      "inputs": [
        {
          "internalType": "uint256",
          "name": "_number",
          "type": "uint256"
        },
        {
          "internalType": "string",
          "name": "_salt",
          "type": "string"
        }
      ],
      "name": "revealNumber",
      "outputs": [],
      "stateMutability": "nonpayable",
      "type": "function"
    },
    {
      "inputs": [],
      "name": "determineWinner",
      "outputs": [
        {
          "internalType": "address",
          "name": "",
          "type": "address"
        },
        {
          "internalType": "uint256",
          "name": "",
          "type": "uint256"
        }
      ],
      "stateMutability": "nonpayable",
      "type": "function"
    },
    {
      "inputs": [],
      "name": "claimReward",
      "outputs": [],
      "stateMutability": "nonpayable",
      "type": "function"
    },
    {
      "inputs": [],
      "name": "leaveGame",
      "outputs": [],
      "stateMutability": "nonpayable",
      "type": "function"
    }
  ],
  "bytecode": "0x608060405260006004556000600560006101000a81548160ff0219169083151502179055506000600560016101000a81548160ff0219169083151502179055506000600560026101000a81548160ff02191690831515021790555034801561006657600080fd5b50613c2b806100766000396000f3fe6080604052600436106101665760003560e01c8063784e91b4116100d1578063b9c68fad1161008a578063d4f77b1c11610064578063d4f77b1c14610511578063d93962071461051b578063e1841c7014610558578063fbf47a9a1461058157610166565b8063b9c68fad14610492578063c4d66de8146104bd578063ce606ee0146104e657610166565b8063784e91b4146103a457806398ac8b77146103cf57806398d76da5146103fa578063b1501f9c14610427578063b2d043231461043e578063b88a802f1461047b57610166565b80633e7e31d1116101235780633e7e31d11461029257806341010d8d146102bd57806352319e9c146102e65780635e123ce4146103235780636dba3ef11461034e578063728fdffa1461037957610166565b80630252b9951461016b578063072ea61c146101965780632b883ccb146101c15780632f6fe396146101fe57806333b16d93146102295780633a976b0614610255575b600080fd5b34801561017757600080fd5b506101806105be565b60405161018d9190612505565b60405180910390f35b3480156101a257600080fd5b506101ab6105c4565b6040516101b89190612505565b60405180910390f35b3480156101cd57600080fd5b506101e860048036038101906101e39190612592565b6105d0565b6040516101f591906125d8565b60405180910390f35b34801561020a57600080fd5b506102136105e8565b604051610220919061260e565b60405180910390f35b34801561023557600080fd5b5061023e6105fb565b60405161024c929190612638565b60405180910390f35b34801561026157600080fd5b5061027c60048036038101906102779190612592565b610e2a565b604051610289919061260e565b60405180910390f35b34801561029e57600080fd5b506102a7610e4a565b6040516102b49190612505565b60405180910390f35b3480156102c957600080fd5b506102e460048036038101906102df91906127a7565b610e4f565b005b3480156102f257600080fd5b5061030d6004803603810190610308919061281c565b6111ff565b60405161031a919061286a565b60405180910390f35b34801561032f57600080fd5b5061033861123e565b604051610345919061260e565b60405180910390f35b34801561035a57600080fd5b50610363611251565b604051610370919061260e565b60405180910390f35b34801561038557600080fd5b5061038e611264565b60405161039b9190612505565b60405180910390f35b3480156103b057600080fd5b506103b9611269565b6040516103c69190612505565b60405180910390f35b3480156103db57600080fd5b506103e461126f565b6040516103f19190612505565b60405180910390f35b34801561040657600080fd5b5061040f611275565b60405161041e93929190612885565b60405180910390f35b34801561043357600080fd5b5061043c61128d565b005b34801561044a57600080fd5b506104656004803603810190610460919061281c565b6115b2565b604051610472919061286a565b60405180910390f35b34801561048757600080fd5b506104906115f1565b005b34801561049e57600080fd5b506104a76119de565b6040516104b49190612505565b60405180910390f35b3480156104c957600080fd5b506104e460048036038101906104df9190612592565b6119e4565b005b3480156104f257600080fd5b506104fb611b92565b604051610508919061286a565b60405180910390f35b610519611bb8565b005b34801561052757600080fd5b50610542600480360381019061053d919061281c565b611ecb565b60405161054f919061286a565b60405180910390f35b34801561056457600080fd5b5061057f600480360381019061057a91906128bc565b611f0a565b005b34801561058d57600080fd5b506105a860048036038101906105a39190612592565b6122cc565b6040516105b5919061260e565b60405180910390f35b60015481565b67016345785d8a000081565b60076020528060005260406000206000915090505481565b600560019054906101000a900460ff1681565b60008060011515600560009054906101000a900460ff16151514610654576040517f08c379a000000000000000000000000000000000000000000000000000000000815260040161064b90612975565b60405180910390fd5b60001515600560019054906101000a900460ff161515146106aa576040517f08c379a00000000000000000000000000000000000000000000000000000000081526004016106a1906129e1565b60405180910390fd5b6003600a80549050101580156106c657506014600a8054905011155b610705576040517f08c379a00000000000000000000000000000000000000000000000000000000081526004016106fc90612a99565b60405180910390fd5b6000805b600b805490508110156107b45760086000600b838154811061072e5761072d612ab9565b5b9060005260206000200160009054906101000a900473ffffffffffffffffffffffffffffffffffffffff1673ffffffffffffffffffffffffffffffffffffffff1673ffffffffffffffffffffffffffffffffffffffff168152602001908152602001600020548261079f9190612b17565b915080806107ac90612b4b565b915050610709565b506000600b80549050826107c89190612bc2565b9050600060038260026107db9190612bf3565b6107e59190612bc2565b9050600c60006107f59190612424565b60007fffffffffffffffffffffffffffffffffffffffffffffffffffffffffffffffff905060005b600b80549050811015610c39576001151560096000600b848154811061084657610845612ab9565b5b9060005260206000200160009054906101000a900473ffffffffffffffffffffffffffffffffffffffff1673ffffffffffffffffffffffffffffffffffffffff1673ffffffffffffffffffffffffffffffffffffffff16815260200190815260200160002060009054906101000a900460ff16151503610c265760008360086000600b85815481106108db576108da612ab9565b5b9060005260206000200160009054906101000a900473ffffffffffffffffffffffffffffffffffffffff1673ffffffffffffffffffffffffffffffffffffffff1673ffffffffffffffffffffffffffffffffffffffff16815260200190815260200160002054116109d45760086000600b848154811061095e5761095d612ab9565b5b9060005260206000200160009054906101000a900473ffffffffffffffffffffffffffffffffffffffff1673ffffffffffffffffffffffffffffffffffffffff1673ffffffffffffffffffffffffffffffffffffffff16815260200190815260200160002054846109cf9190612c35565b610a5e565b8360086000600b85815481106109ed576109ec612ab9565b5b9060005260206000200160009054906101000a900473ffffffffffffffffffffffffffffffffffffffff1673ffffffffffffffffffffffffffffffffffffffff1673ffffffffffffffffffffffffffffffffffffffff16815260200190815260200160002054610a5d9190612c35565b5b905082811015610b7a57600c6000610a769190612424565b600167ffffffffffffffff811115610a9157610a9061267c565b5b604051908082528060200260200182016040528015610abf5781602001602082028036833780820191505090505b50600c9080519060200190610ad5929190612445565b50600b8281548110610aea57610ae9612ab9565b5b9060005260206000200160009054906101000a900473ffffffffffffffffffffffffffffffffffffffff16600c600081548110610b2a57610b29612ab9565b5b9060005260206000200160006101000a81548173ffffffffffffffffffffffffffffffffffffffff021916908373ffffffffffffffffffffffffffffffffffffffff160217905550809250610c24565b828103610c2357600c600b8381548110610b9757610b96612ab9565b5b9060005260206000200160009054906101000a900473ffffffffffffffffffffffffffffffffffffffff169080600181540180825580915050600190039060005260206000200160009091909190916101000a81548173ffffffffffffffffffffffffffffffffffffffff021916908373ffffffffffffffffffffffffffffffffffffffff1602179055505b5b505b8080610c3190612b4b565b91505061081d565b506001600c805490501115610d0d576000600c805490504248604051602001610c63929190612c8a565b6040516020818303038152906040528051906020012060001c610c869190612cb6565b9050600c8181548110610c9c57610c9b612ab9565b5b9060005260206000200160009054906101000a900473ffffffffffffffffffffffffffffffffffffffff16600e60006101000a81548173ffffffffffffffffffffffffffffffffffffffff021916908373ffffffffffffffffffffffffffffffffffffffff16021790555050610d8e565b600c600081548110610d2257610d21612ab9565b5b9060005260206000200160009054906101000a900473ffffffffffffffffffffffffffffffffffffffff16600e60006101000a81548173ffffffffffffffffffffffffffffffffffffffff021916908373ffffffffffffffffffffffffffffffffffffffff1602179055505b47600f60000181905550600a600f60000154610daa9190612bc2565b600f60010181905550600a6009600f60000154610dc79190612bf3565b610dd19190612bc2565b600f600201819055506001600560016101000a81548160ff021916908315150217905550600e60009054906101000a900473ffffffffffffffffffffffffffffffffffffffff16600f6002015495509550505050509091565b60096020528060005260406000206000915054906101000a900460ff1681565b600381565b60001515600560009054906101000a900460ff16151514610ea5576040517f08c379a0000000000000000000000000000000000000000000000000000000008152600401610e9c90612d59565b60405180910390fd5b60001515600560029054906101000a900460ff16151514610efb576040517f08c379a0000000000000000000000000000000000000000000000000000000008152600401610ef290612deb565b60405180910390fd5b6000801b600760003373ffffffffffffffffffffffffffffffffffffffff1673ffffffffffffffffffffffffffffffffffffffff1681526020019081526020016000205414610f7f576040517f08c379a0000000000000000000000000000000000000000000000000000000008152600401610f7690612e7d565b60405180910390fd5b600d60009054906101000a900473ffffffffffffffffffffffffffffffffffffffff1673ffffffffffffffffffffffffffffffffffffffff163373ffffffffffffffffffffffffffffffffffffffff160361100f576040517f08c379a000000000000000000000000000000000000000000000000000000000815260040161100690612f0f565b60405180910390fd5b600660003373ffffffffffffffffffffffffffffffffffffffff1673ffffffffffffffffffffffffffffffffffffffff16815260200190815260200160002060009054906101000a900460ff1661109b576040517f08c379a000000000000000000000000000000000000000000000000000000000815260040161109290612f7b565b60405180910390fd5b60006020820151905080600760003373ffffffffffffffffffffffffffffffffffffffff1673ffffffffffffffffffffffffffffffffffffffff16815260200190815260200160002081905550600a339080600181540180825580915050600190039060005260206000200160009091909190916101000a81548173ffffffffffffffffffffffffffffffffffffffff021916908373ffffffffffffffffffffffffffffffffffffffff1602179055503373ffffffffffffffffffffffffffffffffffffffff167fa8bcdf4c7a7f9aa02c752beae8cb8c7889d9a51122678645b15664d3d32a1ed28342604051611193929190613009565b60405180910390a26003600a80549050036111b057426001819055505b6003600a80549050101580156111d35750600560009054906101000a900460ff16155b80156111ed5750605a6001546111e99190612b17565b4210155b156111fb576111fa6122ec565b5b5050565b600a818154811061120f57600080fd5b906000526020600020016000915054906101000a900473ffffffffffffffffffffffffffffffffffffffff1681565b600560009054906101000a900460ff1681565b600560029054906101000a900460ff1681565b601481565b60025481565b60045481565b600f8060000154908060010154908060020154905083565b60011515600660003373ffffffffffffffffffffffffffffffffffffffff1673ffffffffffffffffffffffffffffffffffffffff16815260200190815260200160002060009054906101000a900460ff161515146112ea57600080fd5b60011515600560009054906101000a900460ff16151514611340576040517f08c379a0000000000000000000000000000000000000000000000000000000008152600401611337906130ab565b60405180910390fd5b600960003373ffffffffffffffffffffffffffffffffffffffff1673ffffffffffffffffffffffffffffffffffffffff16815260200190815260200160002060009054906101000a900460ff16156113cd576040517f08c379a00000000000000000000000000000000000000000000000000000000081526004016113c49061313d565b60405180910390fd5b3373ffffffffffffffffffffffffffffffffffffffff166108fc67016345785d8a00009081150290604051600060405180830381858888f1935050505015801561141b573d6000803e3d6000fd5b506000600660003373ffffffffffffffffffffffffffffffffffffffff1673ffffffffffffffffffffffffffffffffffffffff16815260200190815260200160002060006101000a81548160ff0219169083151502179055506000801b600760003373ffffffffffffffffffffffffffffffffffffffff1673ffffffffffffffffffffffffffffffffffffffff168152602001908152602001600020819055506000600860003373ffffffffffffffffffffffffffffffffffffffff1673ffffffffffffffffffffffffffffffffffffffff168152602001908152602001600020819055506000600960003373ffffffffffffffffffffffffffffffffffffffff1673ffffffffffffffffffffffffffffffffffffffff16815260200190815260200160002060006101000a81548160ff0219169083151502179055503373ffffffffffffffffffffffffffffffffffffffff167f9749ed1e02e2e04552def36d1d3be75262b0514d2c8c827789b324d7f557973367016345785d8a0000426040516115a892919061315d565b60405180910390a2565b600b81815481106115c257600080fd5b906000526020600020016000915054906101000a900473ffffffffffffffffffffffffffffffffffffffff1681565b60011515600560019054906101000a900460ff1615151461161157600080fd5b600e60009054906101000a900473ffffffffffffffffffffffffffffffffffffffff1673ffffffffffffffffffffffffffffffffffffffff163373ffffffffffffffffffffffffffffffffffffffff1614806116ba5750600d60009054906101000a900473ffffffffffffffffffffffffffffffffffffffff1673ffffffffffffffffffffffffffffffffffffffff163373ffffffffffffffffffffffffffffffffffffffff16145b6116f9576040517f08c379a00000000000000000000000000000000000000000000000000000000081526004016116f0906131f8565b60405180910390fd5b6000600f6002015411611741576040517f08c379a00000000000000000000000000000000000000000000000000000000081526004016117389061328a565b60405180910390fd5b6000600f6001015411611789576040517f08c379a00000000000000000000000000000000000000000000000000000000081526004016117809061331c565b60405180910390fd5b600e60009054906101000a900473ffffffffffffffffffffffffffffffffffffffff1673ffffffffffffffffffffffffffffffffffffffff163373ffffffffffffffffffffffffffffffffffffffff16036118a257600e60009054906101000a900473ffffffffffffffffffffffffffffffffffffffff1673ffffffffffffffffffffffffffffffffffffffff166108fc600f600201549081150290604051600060405180830381858888f1935050505015801561184b573d6000803e3d6000fd5b503373ffffffffffffffffffffffffffffffffffffffff167ff01da32686223933d8a18a391060918c7f11a3648639edd87ae013e2e2731743600f600201544260405161189992919061315d565b60405180910390a25b600d60009054906101000a900473ffffffffffffffffffffffffffffffffffffffff1673ffffffffffffffffffffffffffffffffffffffff163373ffffffffffffffffffffffffffffffffffffffff16036119c657600d60009054906101000a900473ffffffffffffffffffffffffffffffffffffffff1673ffffffffffffffffffffffffffffffffffffffff166108fc600f600101549081150290604051600060405180830381858888f19350505050158015611964573d6000803e3d6000fd5b507fa70c9ef1994019c7c70e8134256a652460b545755ed8aad140daeaccc30446b3600d60009054906101000a900473ffffffffffffffffffffffffffffffffffffffff16600f600101546040516119bd92919061339b565b60405180910390a15b6000600f600001819055506000600f60010181905550565b60035481565b60008060019054906101000a900460ff16159050808015611a155750600160008054906101000a900460ff1660ff16105b80611a425750611a2430612401565b158015611a415750600160008054906101000a900460ff1660ff16145b5b611a81576040517f08c379a0000000000000000000000000000000000000000000000000000000008152600401611a7890613436565b60405180910390fd5b60016000806101000a81548160ff021916908360ff1602179055508015611abe576001600060016101000a81548160ff0219169083151502179055505b81600d60006101000a81548173ffffffffffffffffffffffffffffffffffffffff021916908373ffffffffffffffffffffffffffffffffffffffff1602179055506000600560006101000a81548160ff0219169083151502179055506000600560016101000a81548160ff0219169083151502179055508015611b8e5760008060016101000a81548160ff0219169083151502179055507f7f26b83ff96e1f2b6a682f133852f6798a09c465da95921460cefb38474024986001604051611b85919061349e565b60405180910390a15b5050565b600d60009054906101000a900473ffffffffffffffffffffffffffffffffffffffff1681565b60001515600560009054906101000a900460ff16151514611c0e576040517f08c379a0000000000000000000000000000000000000000000000000000000008152600401611c0590613505565b60405180910390fd5b600660003373ffffffffffffffffffffffffffffffffffffffff1673ffffffffffffffffffffffffffffffffffffffff16815260200190815260200160002060009054906101000a900460ff1615611c9b576040517f08c379a0000000000000000000000000000000000000000000000000000000008152600401611c9290613597565b60405180910390fd5b60146003541115611ce1576040517f08c379a0000000000000000000000000000000000000000000000000000000008152600401611cd890613603565b60405180910390fd5b600d60009054906101000a900473ffffffffffffffffffffffffffffffffffffffff1673ffffffffffffffffffffffffffffffffffffffff163373ffffffffffffffffffffffffffffffffffffffff1603611d71576040517f08c379a0000000000000000000000000000000000000000000000000000000008152600401611d6890613695565b60405180910390fd5b67016345785d8a00003414611dbb576040517f08c379a0000000000000000000000000000000000000000000000000000000008152600401611db290613727565b60405180910390fd5b6001600660003373ffffffffffffffffffffffffffffffffffffffff1673ffffffffffffffffffffffffffffffffffffffff16815260200190815260200160002060006101000a81548160ff02191690831515021790555060036000815480929190611e2690612b4b565b91905055503373ffffffffffffffffffffffffffffffffffffffff167f3330a6773675f31f62070870f40379f8c6d42e3761410011a4dfc42b18043d2f42604051611e719190612505565b60405180910390a23373ffffffffffffffffffffffffffffffffffffffff167f68fe355a18e39c9fccacdd46307b0e243ec0f7f1b13756ed82ce51466ae74d9e3442604051611ec192919061315d565b60405180910390a2565b600c8181548110611edb57600080fd5b906000526020600020016000915054906101000a900473ffffffffffffffffffffffffffffffffffffffff1681565b60011515600560029054906101000a900460ff16151514611f60576040517f08c379a0000000000000000000000000000000000000000000000000000000008152600401611f57906137df565b60405180910390fd5b60b4600154611f6f9190612b17565b421115611fb1576040517f08c379a0000000000000000000000000000000000000000000000000000000008152600401611fa890613897565b60405180910390fd5b600960003373ffffffffffffffffffffffffffffffffffffffff1673ffffffffffffffffffffffffffffffffffffffff16815260200190815260200160002060009054906101000a900460ff161561203e576040517f08c379a000000000000000000000000000000000000000000000000000000000815260040161203590613929565b60405180910390fd5b600760003373ffffffffffffffffffffffffffffffffffffffff1673ffffffffffffffffffffffffffffffffffffffff168152602001908152602001600020548282604051602001612091929190613985565b60405160208183030381529060405280519060200120146120e7576040517f08c379a00000000000000000000000000000000000000000000000000000000081526004016120de90613a1f565b60405180910390fd5b600082101580156120fa57506103e88211155b612139576040517f08c379a000000000000000000000000000000000000000000000000000000000815260040161213090613ab1565b60405180910390fd5b81600860003373ffffffffffffffffffffffffffffffffffffffff1673ffffffffffffffffffffffffffffffffffffffff168152602001908152602001600020819055506001600960003373ffffffffffffffffffffffffffffffffffffffff1673ffffffffffffffffffffffffffffffffffffffff16815260200190815260200160002060006101000a81548160ff021916908315150217905550600b339080600181540180825580915050600190039060005260206000200160009091909190916101000a81548173ffffffffffffffffffffffffffffffffffffffff021916908373ffffffffffffffffffffffffffffffffffffffff1602179055503373ffffffffffffffffffffffffffffffffffffffff167f96623b9378c0c6f499a15f3f777767b381b8c3f97f63f1bebd50fc3f4687da9a834260405161228092919061315d565b60405180910390a26000600560026101000a81548160ff0219169083151502179055506001600560006101000a81548160ff0219169083151502179055506122c66105fb565b50505050565b60066020528060005260406000206000915054906101000a900460ff1681565b60001515600560009054906101000a900460ff16151514612342576040517f08c379a000000000000000000000000000000000000000000000000000000000815260040161233990613b1d565b60405180910390fd5b6014600a80549050111561235557600080fd5b605a6001546123649190612b17565b4210156123a6576040517f08c379a000000000000000000000000000000000000000000000000000000000815260040161239d90613bd5565b60405180910390fd5b6001600560026101000a81548160ff021916908315150217905550426002819055507f9f48cac694ad868cba9c30d5ff1dfdeb034062b2d87eb6d32e5318392faeb08f426040516123f79190612505565b60405180910390a1565b6000808273ffffffffffffffffffffffffffffffffffffffff163b119050919050565b508054600082559060005260206000209081019061244291906124cf565b50565b8280548282559060005260206000209081019282156124be579160200282015b828111156124bd5782518260006101000a81548173ffffffffffffffffffffffffffffffffffffffff021916908373ffffffffffffffffffffffffffffffffffffffff16021790555091602001919060010190612465565b5b5090506124cb91906124cf565b5090565b5b808211156124e85760008160009055506001016124d0565b5090565b6000819050919050565b6124ff816124ec565b82525050565b600060208201905061251a60008301846124f6565b92915050565b6000604051905090565b600080fd5b600080fd5b600073ffffffffffffffffffffffffffffffffffffffff82169050919050565b600061255f82612534565b9050919050565b61256f81612554565b811461257a57600080fd5b50565b60008135905061258c81612566565b92915050565b6000602082840312156125a8576125a761252a565b5b60006125b68482850161257d565b91505092915050565b6000819050919050565b6125d2816125bf565b82525050565b60006020820190506125ed60008301846125c9565b92915050565b60008115159050919050565b612608816125f3565b82525050565b600060208201905061262360008301846125ff565b92915050565b61263281612554565b82525050565b600060408201905061264d6000830185612629565b61265a60208301846124f6565b9392505050565b600080fd5b600080fd5b6000601f19601f8301169050919050565b7f4e487b7100000000000000000000000000000000000000000000000000000000600052604160045260246000fd5b6126b48261266b565b810181811067ffffffffffffffff821117156126d3576126d261267c565b5b80604052505050565b60006126e6612520565b90506126f282826126ab565b919050565b600067ffffffffffffffff8211156127125761271161267c565b5b61271b8261266b565b9050602081019050919050565b82818337600083830152505050565b600061274a612745846126f7565b6126dc565b90508281526020810184848401111561276657612765612666565b5b612771848285612728565b509392505050565b600082601f83011261278e5761278d612661565b5b813561279e848260208601612737565b91505092915050565b6000602082840312156127bd576127bc61252a565b5b600082013567ffffffffffffffff8111156127db576127da61252f565b5b6127e784828501612779565b91505092915050565b6127f9816124ec565b811461280457600080fd5b50565b600081359050612816816127f0565b92915050565b6000602082840312156128325761283161252a565b5b600061284084828501612807565b91505092915050565b600061285482612534565b9050919050565b61286481612849565b82525050565b600060208201905061287f600083018461285b565b92915050565b600060608201905061289a60008301866124f6565b6128a760208301856124f6565b6128b460408301846124f6565b949350505050565b600080604083850312156128d3576128d261252a565b5b60006128e185828601612807565b925050602083013567ffffffffffffffff8111156129025761290161252f565b5b61290e85828601612779565b9150509250929050565b600082825260208201905092915050565b7f47616d6520686173206e6f742073746172746564207965742e00000000000000600082015250565b600061295f601983612918565b915061296a82612929565b602082019050919050565b6000602082019050818103600083015261298e81612952565b9050919050565b7f47616d652068617320656e6465642e0000000000000000000000000000000000600082015250565b60006129cb600f83612918565b91506129d682612995565b602082019050919050565b600060208201905081810360008301526129fa816129be565b9050919050565b7f4e756d626572206f6620706c61796572732077686f206861766520726576656160008201527f6c6564207468656972206e756d62657273206973206e6f742077697468696e2060208201527f746865206d696e20616e64206d6178206c696d69742e00000000000000000000604082015250565b6000612a83605683612918565b9150612a8e82612a01565b606082019050919050565b60006020820190508181036000830152612ab281612a76565b9050919050565b7f4e487b7100000000000000000000000000000000000000000000000000000000600052603260045260246000fd5b7f4e487b7100000000000000000000000000000000000000000000000000000000600052601160045260246000fd5b6000612b22826124ec565b9150612b2d836124ec565b9250828201905080821115612b4557612b44612ae8565b5b92915050565b6000612b56826124ec565b91507fffffffffffffffffffffffffffffffffffffffffffffffffffffffffffffffff8203612b8857612b87612ae8565b5b600182019050919050565b7f4e487b7100000000000000000000000000000000000000000000000000000000600052601260045260246000fd5b6000612bcd826124ec565b9150612bd8836124ec565b925082612be857612be7612b93565b5b828204905092915050565b6000612bfe826124ec565b9150612c09836124ec565b9250828202612c17816124ec565b91508282048414831517612c2e57612c2d612ae8565b5b5092915050565b6000612c40826124ec565b9150612c4b836124ec565b9250828203905081811115612c6357612c62612ae8565b5b92915050565b6000819050919050565b612c84612c7f826124ec565b612c69565b82525050565b6000612c968285612c73565b602082019150612ca68284612c73565b6020820191508190509392505050565b6000612cc1826124ec565b9150612ccc836124ec565b925082612cdc57612cdb612b93565b5b828206905092915050565b7f596f752063616e2774207375626d69742061206e756d6265722c20746869732060008201527f67616d6520697320616c72656164792066696e69736865642100000000000000602082015250565b6000612d43603983612918565b9150612d4e82612ce7565b604082019050919050565b60006020820190508181036000830152612d7281612d36565b9050919050565b7f52657665616c2070686173652068617320737461727465642c2063616e6e6f7460008201527f20636f6d6d6974206e756d626572206e6f770000000000000000000000000000602082015250565b6000612dd5603283612918565b9150612de082612d79565b604082019050919050565b60006020820190508181036000830152612e0481612dc8565b9050919050565b7f596f75206861766520616c726561647920636f6d6d69747465642061206e756d60008201527f62657220616e642073616c740000000000000000000000000000000000000000602082015250565b6000612e67602c83612918565b9150612e7282612e0b565b604082019050919050565b60006020820190508181036000830152612e9681612e5a565b9050919050565b7f636f6e7472616374204f776e65722063616e6e6f74207061727469636970617460008201527f6500000000000000000000000000000000000000000000000000000000000000602082015250565b6000612ef9602183612918565b9150612f0482612e9d565b604082019050919050565b60006020820190508181036000830152612f2881612eec565b9050919050565b7f596f75206d757374207061792074686520656e74727920666565000000000000600082015250565b6000612f65601a83612918565b9150612f7082612f2f565b602082019050919050565b60006020820190508181036000830152612f9481612f58565b9050919050565b600081519050919050565b60005b83811015612fc4578082015181840152602081019050612fa9565b60008484015250505050565b6000612fdb82612f9b565b612fe58185612918565b9350612ff5818560208601612fa6565b612ffe8161266b565b840191505092915050565b600060408201905081810360008301526130238185612fd0565b905061303260208301846124f6565b9392505050565b7f596f752063616e6e6f7420676574206120726566756e64206265666f7265207460008201527f68652067616d65207374617274732e0000000000000000000000000000000000602082015250565b6000613095602f83612918565b91506130a082613039565b604082019050919050565b600060208201905081810360008301526130c481613088565b9050919050565b7f596f7520686176652072657665616c65642061206e756d6265722c20796f752060008201527f63616e6e6f7420636c61696d206120726566756e640000000000000000000000602082015250565b6000613127603583612918565b9150613132826130cb565b604082019050919050565b600060208201905081810360008301526131568161311a565b9050919050565b600060408201905061317260008301856124f6565b61317f60208301846124f6565b9392505050565b7f4f6e6c792077696e6e6572206f7220636f6e747261637420636f6e747261637460008201527f4f776e65722063616e20636c61696d2074686520726577617264000000000000602082015250565b60006131e2603a83612918565b91506131ed82613186565b604082019050919050565b60006020820190508181036000830152613211816131d5565b9050919050565b7f5468652077696e6e6572207265776172642068617320616c726561647920626560008201527f656e20636c61696d656400000000000000000000000000000000000000000000602082015250565b6000613274602a83612918565b915061327f82613218565b604082019050919050565b600060208201905081810360008301526132a381613267565b9050919050565b7f5468652073657276696365206665652068617320616c7265616479206265656e60008201527f20636c61696d65642062792074686520636f6e7472616374206f776e65720000602082015250565b6000613306603e83612918565b9150613311826132aa565b604082019050919050565b60006020820190508181036000830152613335816132f9565b9050919050565b6000819050919050565b600061336161335c61335784612534565b61333c565b612534565b9050919050565b600061337382613346565b9050919050565b600061338582613368565b9050919050565b6133958161337a565b82525050565b60006040820190506133b0600083018561338c565b6133bd60208301846124f6565b9392505050565b7f496e697469616c697a61626c653a20636f6e747261637420697320616c72656160008201527f647920696e697469616c697a6564000000000000000000000000000000000000602082015250565b6000613420602e83612918565b915061342b826133c4565b604082019050919050565b6000602082019050818103600083015261344f81613413565b9050919050565b6000819050919050565b600060ff82169050919050565b600061348861348361347e84613456565b61333c565b613460565b9050919050565b6134988161346d565b82525050565b60006020820190506134b3600083018461348f565b92915050565b7f546869732067616d6520697320616c72656164792066696e6973686564210000600082015250565b60006134ef601e83612918565b91506134fa826134b9565b602082019050919050565b6000602082019050818103600083015261351e816134e2565b9050919050565b7f596f75206861766520616c726561647920706169642074686520656e7472792060008201527f6665650000000000000000000000000000000000000000000000000000000000602082015250565b6000613581602383612918565b915061358c82613525565b604082019050919050565b600060208201905081810360008301526135b081613574565b9050919050565b7f4d6178206e756d626572206f6620706c61796572732072656163686564000000600082015250565b60006135ed601d83612918565b91506135f8826135b7565b602082019050919050565b6000602082019050818103600083015261361c816135e0565b9050919050565b7f436f6e7472616374204f776e65722063616e6e6f74207061727469636970617460008201527f6500000000000000000000000000000000000000000000000000000000000000602082015250565b600061367f602183612918565b915061368a82613623565b604082019050919050565b600060208201905081810360008301526136ae81613672565b9050919050565b7f506c65617365207061792074686520657861637420706172746963697061746960008201527f6f6e20666565206f6620302e3120657468657200000000000000000000000000602082015250565b6000613711603383612918565b915061371c826136b5565b604082019050919050565b6000602082019050818103600083015261374081613704565b9050919050565b7f5468652072657665616c20706861736520686173206e6f74207374617274656460008201527f20796574207761697420666f7220666f757220626c6f636b7320746f2062652060208201527f6d696e65642e0000000000000000000000000000000000000000000000000000604082015250565b60006137c9604683612918565b91506137d482613747565b606082019050919050565b600060208201905081810360008301526137f8816137bc565b9050919050565b7f5468652072657665616c2070686173652068617320656e6465642e20596f752060008201527f63616e6e6f742072657665616c20796f7572206e756d62657220616e796d6f7260208201527f652e000000000000000000000000000000000000000000000000000000000000604082015250565b6000613881604283612918565b915061388c826137ff565b606082019050919050565b600060208201905081810360008301526138b081613874565b9050919050565b7f596f75206861766520616c72656164792072657665616c656420796f7572206e60008201527f756d6265722e0000000000000000000000000000000000000000000000000000602082015250565b6000613913602683612918565b915061391e826138b7565b604082019050919050565b6000602082019050818103600083015261394281613906565b9050919050565b600081905092915050565b600061395f82612f9b565b6139698185613949565b9350613979818560208601612fa6565b80840191505092915050565b60006139918285612c73565b6020820191506139a18284613954565b91508190509392505050565b7f5468652072657665616c6564206e756d62657220616e642073616c7420646f2060008201527f6e6f74206d617463682074686520636f6d6d69747465642076616c7565732e00602082015250565b6000613a09603f83612918565b9150613a14826139ad565b604082019050919050565b60006020820190508181036000830152613a38816139fc565b9050919050565b7f4e756d626572206d757374206265206265747765656e203020616e642031303060008201527f302e000000000000000000000000000000000000000000000000000000000000602082015250565b6000613a9b602283612918565b9150613aa682613a3f565b604082019050919050565b60006020820190508181036000830152613aca81613a8e565b9050919050565b7f5468652067616d652068617320616c7265616479207374617274656421000000600082015250565b6000613b07601d83612918565b9150613b1282613ad1565b602082019050919050565b60006020820190508181036000830152613b3681613afa565b9050919050565b7f576169742074776f20616e6420612068616c66206d696e75746573206166746560008201527f722074686520746869726420706c6179657220686173206a6f696e656420756e60208201527f74696c207468652072657665616c207068617365207374617274732e00000000604082015250565b6000613bbf605c83612918565b9150613bca82613b3d565b606082019050919050565b60006020820190508181036000830152613bee81613bb2565b905091905056fea264697066735822122023f381e98777925fc9d7e25d37ea363fc5784c2f6b28b250ba1b92707741f79164736f6c63430008130033",
  "immutableReferences": {},
  "source": "// SPDX-License-Identifier: MIT\r\npragma solidity >=0.4.22 <0.9.0;\r\n\r\n\r\nimport \"@openzeppelin/contracts/utils/math/SafeMath.sol\";\r\nimport \"@openzeppelin/contracts/proxy/utils/Initializable.sol\";\r\n\r\ncontract GAMEBC3 is Initializable {\r\n    using SafeMath for uint256;\r\n\r\n    // Constant variables\r\n    uint256 public constant maxNumberOfPlayers = 20;\r\n    uint256 public constant minNumberOfPlayers = 3;\r\n    uint256 public constant entryFee = 0.1 * 10**18;\r\n\r\n    // Game state variables\r\n    uint256 public gameStartTime;\r\n    uint256 public revealPhaseStartTime;\r\n    uint256 public numberJoinedPlayers;\r\n    uint256 public numberPlayersWithHash = 0;\r\n    bool public gameStarted = false;\r\n    bool public gameEnded = false;\r\n    bool public revealPhase = false;\r\n\r\n    // Player variables\r\n    mapping(address => bool) public hasPaid;\r\n    mapping(address => bytes32) public playerCommitments;\r\n    mapping(address => uint256) private revealedNumbers;\r\n    mapping(address => bool) public playerHasRevealed;\r\n    address payable[] public playersWithHash;\r\n    address payable[] public playersWhoHaveRevealed;\r\n    address payable[] public closestPlayers;\r\n\r\n    // Contract variables\r\n    address payable public contractOwner;\r\n    address payable private winner;\r\n    Fees public gameFees;\r\n\r\n    // Fees struct\r\n    struct Fees {\r\n        uint256 totalEntryFees;\r\n        uint256 serviceFee;\r\n        uint256 winnerReward;\r\n    }\r\n\r\n    // Events\r\n    event GameStarted(uint256 timestamp);\r\n    event GameEnded(uint256 timestamp, address WinnerAddress);\r\n    event ServiceFeePaid(address contractOwner, uint256 fee);\r\n    event RewardClaimed(address indexed claimerAddress, uint256 amount, uint256 timestamp);\r\n    event PlayerJoined(address indexed playerAddress, uint256 timestamp);\r\n    event PlayerCommitted(address indexed playerAddress, string commitment, uint256 timestamp);\r\n    event RevealPhaseStarted(uint256 timestamp);\r\n    event PlayerRevealed(address indexed playerAddress, uint256 number, uint256 timestamp);\r\n    event EntryFeePaid(address indexed playerAddress, uint256 amount, uint256 timestamp);\r\n    event PlayerRemoved(address indexed playerAddress, uint256 timestamp);\r\n    event PlayerRefundClaimed(address indexed playerAddress, uint256 amount, uint256 timestamp);\r\n\r\n    function initialize(address _owner) public initializer {\r\n            contractOwner = payable(_owner);\r\n            gameStarted = false;\r\n            gameEnded = false;\r\n    }\r\n\r\n    /* constructor() payable {\r\n            contractOwner = payable(msg.sender);\r\n            gameStarted = false;\r\n            gameEnded = false;\r\n    }*/\r\n\r\n    modifier onlyOwner() {\r\n        require(msg.sender == contractOwner, \"Only the contract owner can call this function\");\r\n        _;\r\n    }\r\n\r\n\r\n    /// @notice Allows a player to join the game after paying the entry fee.\r\n    function joinGame() public payable {\r\n        require(gameStarted == false, \"This game is already finished!\");\r\n        require(!hasPaid[msg.sender], \"You have already paid the entry fee\");\r\n        require(numberJoinedPlayers <= maxNumberOfPlayers, \"Max number of players reached\");\r\n        require(msg.sender != contractOwner, \"Contract Owner cannot participate\");\r\n        require(msg.value == entryFee, \"Please pay the exact participation fee of 0.1 ether\");\r\n\r\n        hasPaid[msg.sender] = true;\r\n        numberJoinedPlayers++;\r\n        \r\n        emit PlayerJoined(msg.sender, block.timestamp);\r\n        emit EntryFeePaid(msg.sender, msg.value, block.timestamp);\r\n    }\r\n\r\n\r\n    /// @notice Allows a player to commit their hashed number and salt.\r\n    /// @param _hash Hashed combination of the player's number and a secret salt. \r\n    function commitHash(string memory _hash) public {\r\n        require(gameStarted == false, \"You can't submit a number, this game is already finished!\");\r\n        require(revealPhase == false, \"Reveal phase has started, cannot commit number now\");\r\n        require(playerCommitments[msg.sender] == bytes32(0), \"You have already committed a number and salt\"); //Checks whether the player has already submitted a number.\r\n        require(msg.sender != contractOwner, \"contract Owner cannot participate\");\r\n        require(hasPaid[msg.sender], \"You must pay the entry fee\");\r\n\r\n        bytes32 convertedHash;\r\n\r\n        assembly {\r\n            convertedHash := mload(add(_hash, 32))\r\n        }\r\n\r\n        playerCommitments[msg.sender] = convertedHash;\r\n        playersWithHash.push(payable(msg.sender));\r\n        emit PlayerCommitted(msg.sender, _hash, block.timestamp);\r\n            \r\n        if (playersWithHash.length == minNumberOfPlayers) {\r\n            gameStartTime = block.timestamp;\r\n        }\r\n\r\n            // Checks if the minimum number of players have joined and enough blocks have passed\r\n        if (playersWithHash.length >= minNumberOfPlayers && !gameStarted && block.timestamp >= gameStartTime + 90) {\r\n            startRevealTime();\r\n        }\r\n    }\r\n\r\n\r\n     /// @dev Starts the reveal phase of the game.\r\n     function startRevealTime() internal {\r\n        require(gameStarted == false, \"The game has already started!\");\r\n        require(playersWithHash.length <= maxNumberOfPlayers);\r\n        require(block.timestamp >= gameStartTime + 90, \"Wait two and a half minutes after the third player has joined until the reveal phase starts.\");\r\n\r\n        revealPhase = true;  // Start the reveal phase\r\n        revealPhaseStartTime = block.timestamp;\r\n        emit RevealPhaseStarted(block.timestamp);\r\n    } \r\n\r\n    /// @notice Allows a player to reveal their number and salt, which should match the previously committed hash.\r\n    /// @param _number The original number a player chose.\r\n    /// @param _salt The original salt a player chose.\r\n    function revealNumber(uint256 _number, string memory _salt) public {\r\n        require(revealPhase == true, \"The reveal phase has not started yet wait for four blocks to be mined.\");\r\n        require(block.timestamp <= gameStartTime + 180, \"The reveal phase has ended. You cannot reveal your number anymore.\");\r\n        require(!playerHasRevealed[msg.sender], \"You have already revealed your number.\");\r\n        require(keccak256(abi.encodePacked(_number, _salt)) == playerCommitments[msg.sender], \"The revealed number and salt do not match the committed values.\");\r\n        require(_number >= 0 && _number <= 1000, \"Number must be between 0 and 1000.\");\r\n        \r\n        revealedNumbers[msg.sender] = _number; // Stores the number of the player\r\n        playerHasRevealed[msg.sender] = true;    \r\n        playersWhoHaveRevealed.push(payable(msg.sender));\r\n\r\n        emit PlayerRevealed(msg.sender, _number, block.timestamp);\r\n\r\n        revealPhase = false;\r\n        gameStarted = true;\r\n        determineWinner();\r\n    }\r\n\r\n\r\n    /// @notice Determines and sets the winner of the game.\r\n    /// @return Address and reward of the winner.\r\n    function determineWinner() public returns (address, uint256) {\r\n        require(gameStarted == true, \"Game has not started yet.\");\r\n        require(gameEnded == false, \"Game has ended.\");\r\n        require(playersWithHash.length >= minNumberOfPlayers && playersWithHash.length <= maxNumberOfPlayers, \"Number of players who have revealed their numbers is not within the min and max limit.\");\r\n\r\n        // Calculate the average of all player numbers\r\n        uint256 total = 0;\r\n        for (uint256 i = 0; i < playersWhoHaveRevealed.length; i++) {\r\n            total += revealedNumbers[playersWhoHaveRevealed[i]];\r\n        }\r\n        uint256 average = total / playersWhoHaveRevealed.length;\r\n\r\n        // Calculate 2/3 of the average\r\n        uint256 twoThirdAverage = (2 * average) / 3;\r\n\r\n\r\n        delete closestPlayers; // This clears the storage array closestPlayers for reuse\r\n\r\n        // Find the player(s) with the number closest to 2/3 of the average\r\n        uint256 closestDiff = type(uint256).max; // start with maximum possible uint\r\n        for (uint256 i = 0; i < playersWhoHaveRevealed.length; i++) {\r\n            if (playerHasRevealed[playersWhoHaveRevealed[i]] == true) {\r\n                uint256 diff = revealedNumbers[playersWhoHaveRevealed[i]] > twoThirdAverage ? revealedNumbers[playersWhoHaveRevealed[i]] - twoThirdAverage : twoThirdAverage - revealedNumbers[playersWhoHaveRevealed[i]];\r\n                if (diff < closestDiff) {\r\n                    delete closestPlayers; // remove all previous addresses\r\n                    closestPlayers = new address payable[](1); // create new array\r\n                    closestPlayers[0] = playersWhoHaveRevealed[i];\r\n                    closestDiff = diff;\r\n                } else if (diff == closestDiff) {\r\n                    closestPlayers.push(playersWhoHaveRevealed[i]); // add player to potential winners\r\n                }\r\n            }\r\n        }\r\n            // If multiple winners, select one randomly\r\n        if (closestPlayers.length > 1) {\r\n            uint256 randomWinnerIndex = uint256(keccak256(abi.encodePacked(block.timestamp, block.basefee))) % closestPlayers.length;\r\n            winner = closestPlayers[randomWinnerIndex];\r\n        } else {\r\n            winner = closestPlayers[0];\r\n        }\r\n\r\n        gameFees.totalEntryFees = address(this).balance;\r\n        gameFees.serviceFee = gameFees.totalEntryFees / 10; // 10% service fee\r\n        gameFees.winnerReward = (gameFees.totalEntryFees * 9) / 10; // 90% of the total entryFees are the winnerReward\r\n        gameEnded = true;\r\n        \r\n    return (address(winner), gameFees.winnerReward); \r\n    } \r\n        /** If there are multiple players with the closest number, select a random winner among them. Here the hash function keccak256 \r\n        is used to generate a pseudo-random number based on the current block timestamp and on the block bas fee. \r\n        These two values are first combined using the abi.encodePacked() function to generate a byte array, \r\n        which is passed as an argument to keccak256(). The result is then cast into a uint256 variable and counted using the \r\n        modulo operator % by count to generate the random index value. Since the hash value is a pseudo-random number \r\n        between 0 and 2^256 - 1. It is taken modulo the number of players with the closest number to the two-thirds average, \r\n        to get an index within that range.**/\r\n\r\n\r\n    /// @notice Allows the winner or the contract owner to claim their respective rewards.\r\n    function claimReward() public {\r\n        \r\n        require(gameEnded == true);\r\n        require(msg.sender == winner || msg.sender == contractOwner, \"Only winner or contract contractOwner can claim the reward\");\r\n            // Checking whether the rewards are still available\r\n        require(gameFees.winnerReward > 0, \"The winner reward has already been claimed\");\r\n        require(gameFees.serviceFee > 0, \"The service fee has already been claimed by the contract owner\");\r\n\r\n\r\n            // Winner can withdraw the reward \r\n        if (msg.sender == winner) {\r\n            payable(winner).transfer(gameFees.winnerReward);\r\n            emit RewardClaimed(msg.sender, gameFees.winnerReward, block.timestamp);\r\n        }\r\n            // ContractOwner can withdraw the serviceFee \r\n        if (msg.sender == contractOwner) {\r\n            payable(contractOwner).transfer(gameFees.serviceFee);\r\n            emit ServiceFeePaid(contractOwner, gameFees.serviceFee);        \r\n        } \r\n        gameFees.totalEntryFees = 0;\r\n        gameFees.serviceFee = 0;\r\n    }\r\n\r\n    /// @notice Allows a player to leave the game before their number is revealed, refunding their entry fee.\r\n    function leaveGame() public {\r\n        require(hasPaid[msg.sender] == true);\r\n        require(gameStarted == true, \"You cannot get a refund before the game starts.\");\r\n        require(!playerHasRevealed[msg.sender], \"You have revealed a number, you cannot claim a refund\");\r\n\r\n        // Refund their entry fee\r\n        payable(msg.sender).transfer(entryFee);\r\n\r\n        // Reset the mappings for the player's address\r\n        hasPaid[msg.sender] = false;\r\n        playerCommitments[msg.sender] = bytes32(0);\r\n        revealedNumbers[msg.sender] = 0;\r\n        playerHasRevealed[msg.sender] = false;\r\n\r\n        emit PlayerRefundClaimed(msg.sender, entryFee, block.timestamp);\r\n    }\r\n}\r\n\r\n\r\n\r\n\r\n\r\n\r\n\r\n\r\n\r\n\r\n\r\n\r\n\r\n\r\n\r\n\r\n\r\n\r\n\r\n\r\n\r\n\r\n\r\n\r\n\r\n\r\n\r\n\r\n\r\n   /* function bubbleSort(uint256[] memory arr) internal pure {\r\n        uint256 n = arr.length;\r\n        for (uint256 i = 0; i < n - 1; i++) {\r\n            for (uint256 j = 0; j < n - i - 1; j++) {\r\n               if (arr[j] < arr[j + 1]) { \r\n                    uint256 temp = arr[j];\r\n                    arr[j] = arr[j + 1];\r\n                    arr[j + 1] = temp;\r\n                }\r\n            }\r\n        }\r\n    }\r\n\r\n    function getRanking() public view returns (address[] memory, uint256[] memory, uint256[] memory) {\r\n        require(gameEnded == true, \"Das Spiel ist noch nicht beendet\");\r\n\r\n        address[] memory rankedPlayers = new address[](playersWhoHaveRevealed.length);\r\n        uint256[] memory rankedNumbers = new uint256[](playersWhoHaveRevealed.length);\r\n        uint256[] memory ranks = new uint256[](playersWhoHaveRevealed.length);\r\n\r\n        for (uint256 i = 0; i < playersWhoHaveRevealed.length; i++) {\r\n            rankedPlayers[i] = playersWhoHaveRevealed[i];\r\n            rankedNumbers[i] = revealedNumbers[playersWhoHaveRevealed[i]];\r\n            ranks[i] = 0;\r\n        }\r\n\r\n        uint256[] memory sortedPlayerNumbers = rankedNumbers; // Create a copy of the array\r\n        bubbleSort(sortedPlayerNumbers); // use sorted copy\r\n\r\n            // Assign ranks based on the sorted player numbers\r\n        for (uint256 i = 0; i < playersWhoHaveRevealed.length; i++) {\r\n            for (uint256 j = 0; j < playersWhoHaveRevealed.length; j++) {\r\n                if (revealedNumbers[rankedPlayers[j]] == sortedPlayerNumbers[i]) {\r\n                    ranks[j] = i + 1;\r\n                    break;\r\n                }\r\n            }\r\n        }\r\n\r\n        return (rankedPlayers, sortedPlayerNumbers, ranks); // Return sorted numbers\r\n    }\r\n    */",
  "sourcePath": "F:\\Dokumente\\Studium\\Master Mittweida\\2. Semester\\Blockchain 3\\Beleg\\BC3\\contracts\\GameBC3.sol",
  "compiler": {
    "name": "solc",
    "version": "0.8.19+commit.7dd6d404.Emscripten.clang"
  },
  "schemaVersion": "3.4.13",
  "updatedAt": "2023-06-16T19:34:34.112Z",
  "devdoc": {
    "events": {
      "Initialized(uint8)": {
        "details": "Triggered when the contract has been initialized or reinitialized."
      }
    },
    "kind": "dev",
    "methods": {
      "commitHash(string)": {
        "params": {
          "_hash": "Hashed combination of the player's number and a secret salt. "
        }
      },
      "determineWinner()": {
        "returns": {
          "_0": "Address and reward of the winner."
        }
      },
      "revealNumber(uint256,string)": {
        "params": {
          "_number": "The original number a player chose.",
          "_salt": "The original salt a player chose."
        }
      }
    },
    "version": 1
  },
  "userdoc": {
    "kind": "user",
    "methods": {
      "claimReward()": {
        "notice": "Allows the winner or the contract owner to claim their respective rewards."
      },
      "commitHash(string)": {
        "notice": "Allows a player to commit their hashed number and salt."
      },
      "determineWinner()": {
        "notice": "Determines and sets the winner of the game."
      },
      "joinGame()": {
        "notice": "Allows a player to join the game after paying the entry fee."
      },
      "leaveGame()": {
        "notice": "Allows a player to leave the game before their number is revealed, refunding their entry fee."
      },
      "revealNumber(uint256,string)": {
        "notice": "Allows a player to reveal their number and salt, which should match the previously committed hash."
      }
    },
    "version": 1
  }
}