{
  "contractName": "MyGameFactory",
  "abi": [
    {
      "inputs": [
        {
          "internalType": "uint256",
          "name": "",
          "type": "uint256"
        }
      ],
      "name": "games",
      "outputs": [
        {
          "internalType": "address",
          "name": "",
          "type": "address"
        }
      ],
      "stateMutability": "view",
      "type": "function",
      "constant": true
    },
    {
      "inputs": [
        {
          "internalType": "address payable",
          "name": "_contractOwner",
          "type": "address"
        }
      ],
      "name": "createGame",
      "outputs": [
        {
          "internalType": "address",
          "name": "",
          "type": "address"
        }
      ],
      "stateMutability": "payable",
      "type": "function",
      "payable": true
    },
    {
      "inputs": [],
      "name": "getGames",
      "outputs": [
        {
          "internalType": "address[]",
          "name": "",
          "type": "address[]"
        }
      ],
      "stateMutability": "view",
      "type": "function",
      "constant": true
    }
  ],
  "bytecode": "0x608060405234801561001057600080fd5b506144a3806100206000396000f3fe608060405260043610620000385760003560e01c8063117a5b90146200003d578063474d0b5a1462000081578063c04c594714620000b7575b600080fd5b3480156200004a57600080fd5b50620000696004803603810190620000639190620002af565b620000e7565b60405162000078919062000326565b60405180910390f35b6200009f600480360381019062000099919062000388565b62000127565b604051620000ae919062000326565b60405180910390f35b348015620000c457600080fd5b50620000cf620001d1565b604051620000de919062000488565b60405180910390f35b60008181548110620000f857600080fd5b906000526020600020016000915054906101000a900473ffffffffffffffffffffffffffffffffffffffff1681565b60008082604051620001399062000261565b620001459190620004bd565b604051809103906000f08015801562000162573d6000803e3d6000fd5b5090506000819080600181540180825580915050600190039060005260206000200160009091909190916101000a81548173ffffffffffffffffffffffffffffffffffffffff021916908373ffffffffffffffffffffffffffffffffffffffff16021790555080915050919050565b606060008054806020026020016040519081016040528092919081815260200182805480156200025757602002820191906000526020600020905b8160009054906101000a900473ffffffffffffffffffffffffffffffffffffffff1673ffffffffffffffffffffffffffffffffffffffff16815260200190600101908083116200020c575b5050505050905090565b613f9380620004db83390190565b600080fd5b6000819050919050565b620002898162000274565b81146200029557600080fd5b50565b600081359050620002a9816200027e565b92915050565b600060208284031215620002c857620002c76200026f565b5b6000620002d88482850162000298565b91505092915050565b600073ffffffffffffffffffffffffffffffffffffffff82169050919050565b60006200030e82620002e1565b9050919050565b620003208162000301565b82525050565b60006020820190506200033d600083018462000315565b92915050565b60006200035082620002e1565b9050919050565b620003628162000343565b81146200036e57600080fd5b50565b600081359050620003828162000357565b92915050565b600060208284031215620003a157620003a06200026f565b5b6000620003b18482850162000371565b91505092915050565b600081519050919050565b600082825260208201905092915050565b6000819050602082019050919050565b620003f18162000301565b82525050565b6000620004058383620003e6565b60208301905092915050565b6000602082019050919050565b60006200042b82620003ba565b620004378185620003c5565b93506200044483620003d6565b8060005b838110156200047b5781516200045f8882620003f7565b97506200046c8362000411565b92505060018101905062000448565b5085935050505092915050565b60006020820190508181036000830152620004a481846200041e565b905092915050565b620004b78162000343565b82525050565b6000602082019050620004d46000830184620004ac565b9291505056fe6080604052600060075560405162003f9338038062003f9383398181016040528101906200002e91906200027b565b6200004e620000426200014560201b60201c565b6200014d60201b60201c565b60018081905550600073ffffffffffffffffffffffffffffffffffffffff168173ffffffffffffffffffffffffffffffffffffffff1603620000c7576040517f08c379a0000000000000000000000000000000000000000000000000000000008152600401620000be906200030e565b60405180910390fd5b80600360006101000a81548173ffffffffffffffffffffffffffffffffffffffff021916908373ffffffffffffffffffffffffffffffffffffffff1602179055506000600d60006101000a81548160ff0219169083151502179055506000600d60016101000a81548160ff0219169083151502179055505062000330565b600033905090565b60008060009054906101000a900473ffffffffffffffffffffffffffffffffffffffff169050816000806101000a81548173ffffffffffffffffffffffffffffffffffffffff021916908373ffffffffffffffffffffffffffffffffffffffff1602179055508173ffffffffffffffffffffffffffffffffffffffff168173ffffffffffffffffffffffffffffffffffffffff167f8be0079c531659141344cd1fd0a4f28419497f9722a3daafe3b4186f6b6457e060405160405180910390a35050565b600080fd5b600073ffffffffffffffffffffffffffffffffffffffff82169050919050565b6000620002438262000216565b9050919050565b620002558162000236565b81146200026157600080fd5b50565b60008151905062000275816200024a565b92915050565b60006020828403121562000294576200029362000211565b5b6000620002a48482850162000264565b91505092915050565b600082825260208201905092915050565b7f546865206164647265737320697320696e76616c696400000000000000000000600082015250565b6000620002f6601683620002ad565b91506200030382620002be565b602082019050919050565b600060208201905081810360008301526200032981620002e7565b9050919050565b613c5380620003406000396000f3fe60806040526004361061016a5760003560e01c80638b5b9ccc116100d1578063d65ab5f21161008a578063f2fde38b11610064578063f2fde38b14610513578063f71d96cb1461053c578063fbf47a9a14610579578063fc9fc6c7146105b657610171565b8063d65ab5f214610492578063e03a0288146104a9578063ea35e805146104e657610171565b80638b5b9ccc146103e45780638d52e1df1461040f5780638da5cb5b146104265780639003adfe1461045157806393e84cd91461047e578063b88a802f1461048857610171565b806354a72c6a1161012357806354a72c6a146102f6578063590e1ae3146103335780635e123ce41461034a5780636c95ff2514610375578063715018a6146103a2578063728fdffa146103b957610171565b80630252b99514610203578063072ea61c1461022e5780632f6fe396146102595780633e7e31d11461028457806348dce3b5146102af5780634fcb4de2146102da57610171565b3661017157005b600360009054906101000a900473ffffffffffffffffffffffffffffffffffffffff1673ffffffffffffffffffffffffffffffffffffffff163373ffffffffffffffffffffffffffffffffffffffff1614610201576040517f08c379a00000000000000000000000000000000000000000000000000000000081526004016101f890612823565b60405180910390fd5b005b34801561020f57600080fd5b506102186105cd565b604051610225919061285c565b60405180910390f35b34801561023a57600080fd5b506102436105d3565b604051610250919061285c565b60405180910390f35b34801561026557600080fd5b5061026e6105df565b60405161027b9190612892565b60405180910390f35b34801561029057600080fd5b506102996105f2565b6040516102a6919061285c565b60405180910390f35b3480156102bb57600080fd5b506102c46105f7565b6040516102d1919061285c565b60405180910390f35b6102f460048036038101906102ef91906128de565b6105fd565b005b34801561030257600080fd5b5061031d60048036038101906103189190612969565b61098e565b60405161032a919061285c565b60405180910390f35b34801561033f57600080fd5b506103486109a6565b005b34801561035657600080fd5b5061035f610c42565b60405161036c9190612892565b60405180910390f35b34801561038157600080fd5b5061038a610c55565b60405161039993929190612b12565b60405180910390f35b3480156103ae57600080fd5b506103b7611021565b005b3480156103c557600080fd5b506103ce611035565b6040516103db919061285c565b60405180910390f35b3480156103f057600080fd5b506103f961103a565b6040516104069190612c2e565b60405180910390f35b34801561041b57600080fd5b506104246110c8565b005b34801561043257600080fd5b5061043b611298565b6040516104489190612c5f565b60405180910390f35b34801561045d57600080fd5b506104666112c1565b60405161047593929190612c7a565b60405180910390f35b6104866112d9565b005b610490611594565b005b34801561049e57600080fd5b506104a761197c565b005b3480156104b557600080fd5b506104d060048036038101906104cb9190612969565b611a5d565b6040516104dd919061285c565b60405180910390f35b3480156104f257600080fd5b506104fb611a75565b60405161050a93929190612cb1565b60405180910390f35b34801561051f57600080fd5b5061053a60048036038101906105359190612969565b61239b565b005b34801561054857600080fd5b50610563600480360381019061055e91906128de565b61241e565b6040516105709190612cf7565b60405180910390f35b34801561058557600080fd5b506105a0600480360381019061059b9190612969565b61245d565b6040516105ad9190612892565b60405180910390f35b3480156105c257600080fd5b506105cb61247d565b005b600c5481565b67016345785d8a000081565b600d60019054906101000a900460ff1681565b600381565b60075481565b6106056124de565b60001515600d60009054906101000a900460ff1615151461065b576040517f08c379a000000000000000000000000000000000000000000000000000000000815260040161065290612d84565b60405180910390fd5b6000811015801561066e57506103e88111155b6106ad576040517f08c379a00000000000000000000000000000000000000000000000000000000081526004016106a490612e16565b60405180910390fd5b6014600754106106f2576040517f08c379a00000000000000000000000000000000000000000000000000000000081526004016106e990612ef4565b60405180910390fd5b6000600860003373ffffffffffffffffffffffffffffffffffffffff1673ffffffffffffffffffffffffffffffffffffffff1681526020019081526020016000205414610774576040517f08c379a000000000000000000000000000000000000000000000000000000000815260040161076b90612f86565b60405180910390fd5b600360009054906101000a900473ffffffffffffffffffffffffffffffffffffffff1673ffffffffffffffffffffffffffffffffffffffff163373ffffffffffffffffffffffffffffffffffffffff1603610804576040517f08c379a00000000000000000000000000000000000000000000000000000000081526004016107fb90613018565b60405180910390fd5b600260003373ffffffffffffffffffffffffffffffffffffffff1673ffffffffffffffffffffffffffffffffffffffff16815260200190815260200160002060009054906101000a900460ff16610890576040517f08c379a000000000000000000000000000000000000000000000000000000000815260040161088790613084565b60405180910390fd5b80600860003373ffffffffffffffffffffffffffffffffffffffff1673ffffffffffffffffffffffffffffffffffffffff16815260200190815260200160002081905550600760008154809291906108e7906130d3565b91905055506005339080600181540180825580915050600190039060005260206000200160009091909190916101000a81548173ffffffffffffffffffffffffffffffffffffffff021916908373ffffffffffffffffffffffffffffffffffffffff160217905550600360075410158015610975575060001515600d60009054906101000a900460ff161515145b156109835761098261197c565b5b61098b61252d565b50565b60066020528060005260406000206000915090505481565b6109ae6124de565b6000600660003373ffffffffffffffffffffffffffffffffffffffff1673ffffffffffffffffffffffffffffffffffffffff1681526020019081526020016000205411610a30576040517f08c379a0000000000000000000000000000000000000000000000000000000008152600401610a2790613167565b60405180910390fd5b60011515600260003373ffffffffffffffffffffffffffffffffffffffff1673ffffffffffffffffffffffffffffffffffffffff16815260200190815260200160002060009054906101000a900460ff16151514610a8d57600080fd5b61012c600660003373ffffffffffffffffffffffffffffffffffffffff1673ffffffffffffffffffffffffffffffffffffffff16815260200190815260200160002054610ada9190613187565b421015610b1c576040517f08c379a0000000000000000000000000000000000000000000000000000000008152600401610b1390613253565b60405180910390fd5b6000600860003373ffffffffffffffffffffffffffffffffffffffff1673ffffffffffffffffffffffffffffffffffffffff1681526020019081526020016000205414610b9e576040517f08c379a0000000000000000000000000000000000000000000000000000000008152600401610b959061330b565b60405180910390fd5b610ba66110c8565b600660003373ffffffffffffffffffffffffffffffffffffffff1673ffffffffffffffffffffffffffffffffffffffff168152602001908152602001600020600090553373ffffffffffffffffffffffffffffffffffffffff166108fc67016345785d8a00009081150290604051600060405180830381858888f19350505050158015610c37573d6000803e3d6000fd5b50610c4061252d565b565b600d60009054906101000a900460ff1681565b606080606060011515600d60019054906101000a900460ff16151514610cb0576040517f08c379a0000000000000000000000000000000000000000000000000000000008152600401610ca790613377565b60405180910390fd5b600060058054905067ffffffffffffffff811115610cd157610cd0613397565b5b604051908082528060200260200182016040528015610cff5781602001602082028036833780820191505090505b509050600060058054905067ffffffffffffffff811115610d2357610d22613397565b5b604051908082528060200260200182016040528015610d515781602001602082028036833780820191505090505b509050600060058054905067ffffffffffffffff811115610d7557610d74613397565b5b604051908082528060200260200182016040528015610da35781602001602082028036833780820191505090505b50905060005b600580549050811015610f135760058181548110610dca57610dc96133c6565b5b9060005260206000200160009054906101000a900473ffffffffffffffffffffffffffffffffffffffff16848281518110610e0857610e076133c6565b5b602002602001019073ffffffffffffffffffffffffffffffffffffffff16908173ffffffffffffffffffffffffffffffffffffffff16815250506008600060058381548110610e5a57610e596133c6565b5b9060005260206000200160009054906101000a900473ffffffffffffffffffffffffffffffffffffffff1673ffffffffffffffffffffffffffffffffffffffff1673ffffffffffffffffffffffffffffffffffffffff16815260200190815260200160002054838281518110610ed357610ed26133c6565b5b6020026020010181815250506000828281518110610ef457610ef36133c6565b5b6020026020010181815250508080610f0b906130d3565b915050610da9565b50610f1d82612536565b60005b60058054905081101561100f5760005b600580549050811015610ffb57838281518110610f5057610f4f6133c6565b5b602002602001015160086000878481518110610f6f57610f6e6133c6565b5b602002602001015173ffffffffffffffffffffffffffffffffffffffff1673ffffffffffffffffffffffffffffffffffffffff1681526020019081526020016000205403610fe857600182610fc49190613187565b838281518110610fd757610fd66133c6565b5b602002602001018181525050610ffb565b8080610ff3906130d3565b915050610f30565b508080611007906130d3565b915050610f20565b50828282955095509550505050909192565b61102961267c565b61103360006126fa565b565b601481565b606060058054806020026020016040519081016040528092919081815260200182805480156110be57602002820191906000526020600020905b8160009054906101000a900473ffffffffffffffffffffffffffffffffffffffff1673ffffffffffffffffffffffffffffffffffffffff1681526020019060010190808311611074575b5050505050905090565b60005b600580549050811015611295573373ffffffffffffffffffffffffffffffffffffffff1660058281548110611103576111026133c6565b5b9060005260206000200160009054906101000a900473ffffffffffffffffffffffffffffffffffffffff1673ffffffffffffffffffffffffffffffffffffffff1603611282576005818154811061115d5761115c6133c6565b5b9060005260206000200160006101000a81549073ffffffffffffffffffffffffffffffffffffffff02191690556005600160058054905061119e91906133f5565b815481106111af576111ae6133c6565b5b9060005260206000200160009054906101000a900473ffffffffffffffffffffffffffffffffffffffff16600582815481106111ee576111ed6133c6565b5b9060005260206000200160006101000a81548173ffffffffffffffffffffffffffffffffffffffff021916908373ffffffffffffffffffffffffffffffffffffffff160217905550600580548061124857611247613429565b5b6001900381819060005260206000200160006101000a81549073ffffffffffffffffffffffffffffffffffffffff02191690559055611295565b808061128d906130d3565b9150506110cb565b50565b60008060009054906101000a900473ffffffffffffffffffffffffffffffffffffffff16905090565b60098060000154908060010154908060020154905083565b6112e16124de565b60001515600d60009054906101000a900460ff16151514611337576040517f08c379a000000000000000000000000000000000000000000000000000000000815260040161132e906134a4565b60405180910390fd5b600260003373ffffffffffffffffffffffffffffffffffffffff1673ffffffffffffffffffffffffffffffffffffffff16815260200190815260200160002060009054906101000a900460ff16156113c4576040517f08c379a00000000000000000000000000000000000000000000000000000000081526004016113bb90613536565b60405180910390fd5b60146005805490501061140c576040517f08c379a0000000000000000000000000000000000000000000000000000000008152600401611403906135a2565b60405180910390fd5b600360009054906101000a900473ffffffffffffffffffffffffffffffffffffffff1673ffffffffffffffffffffffffffffffffffffffff163373ffffffffffffffffffffffffffffffffffffffff160361149c576040517f08c379a000000000000000000000000000000000000000000000000000000000815260040161149390613018565b60405180910390fd5b67016345785d8a000034146114e6576040517f08c379a00000000000000000000000000000000000000000000000000000000081526004016114dd90613634565b60405180910390fd5b6001600260003373ffffffffffffffffffffffffffffffffffffffff1673ffffffffffffffffffffffffffffffffffffffff16815260200190815260200160002060006101000a81548160ff02191690831515021790555061154661247d565b42600660003373ffffffffffffffffffffffffffffffffffffffff1673ffffffffffffffffffffffffffffffffffffffff1681526020019081526020016000208190555061159261252d565b565b61159c6124de565b600460009054906101000a900473ffffffffffffffffffffffffffffffffffffffff1673ffffffffffffffffffffffffffffffffffffffff163373ffffffffffffffffffffffffffffffffffffffff1614806116455750600360009054906101000a900473ffffffffffffffffffffffffffffffffffffffff1673ffffffffffffffffffffffffffffffffffffffff163373ffffffffffffffffffffffffffffffffffffffff16145b611684576040517f08c379a000000000000000000000000000000000000000000000000000000000815260040161167b906136c6565b60405180910390fd5b600460009054906101000a900473ffffffffffffffffffffffffffffffffffffffff1673ffffffffffffffffffffffffffffffffffffffff163373ffffffffffffffffffffffffffffffffffffffff16036117f057600060096002015411611721576040517f08c379a000000000000000000000000000000000000000000000000000000000815260040161171890613758565b60405180910390fd5b600460009054906101000a900473ffffffffffffffffffffffffffffffffffffffff1673ffffffffffffffffffffffffffffffffffffffff166108fc6009600201549081150290604051600060405180830381858888f1935050505015801561178e573d6000803e3d6000fd5b507f8cbbe5cd65720098fc8ce6e99a5deb232085117dd486475b49cb11604b528f30600460009054906101000a900473ffffffffffffffffffffffffffffffffffffffff166009600201546040516117e79291906137d7565b60405180910390a15b600360009054906101000a900473ffffffffffffffffffffffffffffffffffffffff1673ffffffffffffffffffffffffffffffffffffffff163373ffffffffffffffffffffffffffffffffffffffff160361195c5760006009600101541161188d576040517f08c379a000000000000000000000000000000000000000000000000000000000815260040161188490613872565b60405180910390fd5b600360009054906101000a900473ffffffffffffffffffffffffffffffffffffffff1673ffffffffffffffffffffffffffffffffffffffff166108fc6009600101549081150290604051600060405180830381858888f193505050501580156118fa573d6000803e3d6000fd5b507fa70c9ef1994019c7c70e8134256a652460b545755ed8aad140daeaccc30446b3600360009054906101000a900473ffffffffffffffffffffffffffffffffffffffff166009600101546040516119539291906137d7565b60405180910390a15b6000600960000181905550600060096001018190555061197a61252d565b565b60001515600d60009054906101000a900460ff161515146119d2576040517f08c379a00000000000000000000000000000000000000000000000000000000081526004016119c9906138de565b60405180910390fd5b601460075411156119e257600080fd5b6001600d60006101000a81548160ff0219169083151502179055507f50ad08f58a27f2851d7e3a1b3a6a46b290f2ce677e99642d30ff639721e7779042604051611a2c919061285c565b60405180910390a160011515600d60009054906101000a900460ff16151503611a5b57611a57611a75565b5050505b565b60086020528060005260406000206000915090505481565b600080600060036005805490501015611a8d57600080fd5b60146005805490501115611ad6576040517f08c379a0000000000000000000000000000000000000000000000000000000008152600401611acd906135a2565b60405180910390fd5b60011515600d60009054906101000a900460ff16151514611b2c576040517f08c379a0000000000000000000000000000000000000000000000000000000008152600401611b239061394a565b60405180910390fd5b6000805b600580549050811015611bdb576008600060058381548110611b5557611b546133c6565b5b9060005260206000200160009054906101000a900473ffffffffffffffffffffffffffffffffffffffff1673ffffffffffffffffffffffffffffffffffffffff1673ffffffffffffffffffffffffffffffffffffffff1681526020019081526020016000205482611bc69190613187565b91508080611bd3906130d3565b915050611b30565b50600060058054905082611bef9190613999565b90506003600282611c0091906139ca565b611c0a9190613999565b925060007fffffffffffffffffffffffffffffffffffffffffffffffffffffffffffffffff9050600080600090505b600580549050811015611ec7576000866008600060058581548110611c6157611c606133c6565b5b9060005260206000200160009054906101000a900473ffffffffffffffffffffffffffffffffffffffff1673ffffffffffffffffffffffffffffffffffffffff1673ffffffffffffffffffffffffffffffffffffffff1681526020019081526020016000205411611d5a576008600060058481548110611ce457611ce36133c6565b5b9060005260206000200160009054906101000a900473ffffffffffffffffffffffffffffffffffffffff1673ffffffffffffffffffffffffffffffffffffffff1673ffffffffffffffffffffffffffffffffffffffff1681526020019081526020016000205487611d5591906133f5565b611de4565b866008600060058581548110611d7357611d726133c6565b5b9060005260206000200160009054906101000a900473ffffffffffffffffffffffffffffffffffffffff1673ffffffffffffffffffffffffffffffffffffffff1673ffffffffffffffffffffffffffffffffffffffff16815260200190815260200160002054611de391906133f5565b5b905083811015611eb3578093506008600060058481548110611e0957611e086133c6565b5b9060005260206000200160009054906101000a900473ffffffffffffffffffffffffffffffffffffffff1673ffffffffffffffffffffffffffffffffffffffff1673ffffffffffffffffffffffffffffffffffffffff16815260200190815260200160002054925060058281548110611e8557611e846133c6565b5b9060005260206000200160009054906101000a900473ffffffffffffffffffffffffffffffffffffffff1698505b508080611ebf906130d3565b915050611c39565b506000805b600580549050811015611f7f57826008600060058481548110611ef257611ef16133c6565b5b9060005260206000200160009054906101000a900473ffffffffffffffffffffffffffffffffffffffff1673ffffffffffffffffffffffffffffffffffffffff1673ffffffffffffffffffffffffffffffffffffffff1681526020019081526020016000205403611f6c578180611f68906130d3565b9250505b8080611f77906130d3565b915050611ecc565b506001810361215c5760005b60058054905081101561215657826008600060058481548110611fb157611fb06133c6565b5b9060005260206000200160009054906101000a900473ffffffffffffffffffffffffffffffffffffffff1673ffffffffffffffffffffffffffffffffffffffff1673ffffffffffffffffffffffffffffffffffffffff1681526020019081526020016000205403612143576001600d60016101000a81548160ff0219169083151502179055506005818154811061204b5761204a6133c6565b5b9060005260206000200160009054906101000a900473ffffffffffffffffffffffffffffffffffffffff16600460006101000a81548173ffffffffffffffffffffffffffffffffffffffff021916908373ffffffffffffffffffffffffffffffffffffffff160217905550600581815481106120ca576120c96133c6565b5b9060005260206000200160009054906101000a900473ffffffffffffffffffffffffffffffffffffffff16985060096002015497507f3d5fcd8fa3235aeb3897f25c8ea49989174981afcb01b9d03189d1056a16775b428a604051612130929190613a0c565b60405180910390a1505050505050612396565b808061214e906130d3565b915050611f8b565b50612382565b6000814248604051602001612172929190613a56565b6040516020818303038152906040528051906020012060001c6121959190613a82565b90506000805b60058054905081101561237e578460086000600584815481106121c1576121c06133c6565b5b9060005260206000200160009054906101000a900473ffffffffffffffffffffffffffffffffffffffff1673ffffffffffffffffffffffffffffffffffffffff1673ffffffffffffffffffffffffffffffffffffffff168152602001908152602001600020540361236b5782820361235c576001600d60016101000a81548160ff02191690831515021790555060058181548110612262576122616133c6565b5b9060005260206000200160009054906101000a900473ffffffffffffffffffffffffffffffffffffffff16600460006101000a81548173ffffffffffffffffffffffffffffffffffffffff021916908373ffffffffffffffffffffffffffffffffffffffff160217905550600581815481106122e1576122e06133c6565b5b9060005260206000200160009054906101000a900473ffffffffffffffffffffffffffffffffffffffff169a5060096002015499507f3d5fcd8fa3235aeb3897f25c8ea49989174981afcb01b9d03189d1056a16775b428c604051612347929190613a0c565b60405180910390a15050505050505050612396565b8180612367906130d3565b9250505b8080612376906130d3565b91505061219b565b5050505b600080975087600097509750975050505050505b909192565b6123a361267c565b600073ffffffffffffffffffffffffffffffffffffffff168173ffffffffffffffffffffffffffffffffffffffff1603612412576040517f08c379a000000000000000000000000000000000000000000000000000000000815260040161240990613b25565b60405180910390fd5b61241b816126fa565b50565b6005818154811061242e57600080fd5b906000526020600020016000915054906101000a900473ffffffffffffffffffffffffffffffffffffffff1681565b60026020528060005260406000206000915054906101000a900460ff1681565b61248561267c565b47600960000181905550600a60016009600001546124a391906139ca565b6124ad9190613999565b600960010181905550600a600980600001546124c991906139ca565b6124d39190613999565b600960020181905550565b600260015403612523576040517f08c379a000000000000000000000000000000000000000000000000000000000815260040161251a90613b91565b60405180910390fd5b6002600181905550565b60018081905550565b60008151905060005b60018261254c91906133f5565b8110156126775760005b6001828461256491906133f5565b61256e91906133f5565b81101561266357836001826125839190613187565b81518110612594576125936133c6565b5b60200260200101518482815181106125af576125ae6133c6565b5b602002602001015111156126505760008482815181106125d2576125d16133c6565b5b60200260200101519050846001836125ea9190613187565b815181106125fb576125fa6133c6565b5b6020026020010151858381518110612616576126156133c6565b5b60200260200101818152505080856001846126319190613187565b81518110612642576126416133c6565b5b602002602001018181525050505b808061265b906130d3565b915050612556565b50808061266f906130d3565b91505061253f565b505050565b6126846127be565b73ffffffffffffffffffffffffffffffffffffffff166126a2611298565b73ffffffffffffffffffffffffffffffffffffffff16146126f8576040517f08c379a00000000000000000000000000000000000000000000000000000000081526004016126ef90613bfd565b60405180910390fd5b565b60008060009054906101000a900473ffffffffffffffffffffffffffffffffffffffff169050816000806101000a81548173ffffffffffffffffffffffffffffffffffffffff021916908373ffffffffffffffffffffffffffffffffffffffff1602179055508173ffffffffffffffffffffffffffffffffffffffff168173ffffffffffffffffffffffffffffffffffffffff167f8be0079c531659141344cd1fd0a4f28419497f9722a3daafe3b4186f6b6457e060405160405180910390a35050565b600033905090565b600082825260208201905092915050565b7f496e636f6d696e67207472616e7366657273206e6f7420616c6c6f7765640000600082015250565b600061280d601e836127c6565b9150612818826127d7565b602082019050919050565b6000602082019050818103600083015261283c81612800565b9050919050565b6000819050919050565b61285681612843565b82525050565b6000602082019050612871600083018461284d565b92915050565b60008115159050919050565b61288c81612877565b82525050565b60006020820190506128a76000830184612883565b92915050565b600080fd5b6128bb81612843565b81146128c657600080fd5b50565b6000813590506128d8816128b2565b92915050565b6000602082840312156128f4576128f36128ad565b5b6000612902848285016128c9565b91505092915050565b600073ffffffffffffffffffffffffffffffffffffffff82169050919050565b60006129368261290b565b9050919050565b6129468161292b565b811461295157600080fd5b50565b6000813590506129638161293d565b92915050565b60006020828403121561297f5761297e6128ad565b5b600061298d84828501612954565b91505092915050565b600081519050919050565b600082825260208201905092915050565b6000819050602082019050919050565b6129cb8161292b565b82525050565b60006129dd83836129c2565b60208301905092915050565b6000602082019050919050565b6000612a0182612996565b612a0b81856129a1565b9350612a16836129b2565b8060005b83811015612a47578151612a2e88826129d1565b9750612a39836129e9565b925050600181019050612a1a565b5085935050505092915050565b600081519050919050565b600082825260208201905092915050565b6000819050602082019050919050565b612a8981612843565b82525050565b6000612a9b8383612a80565b60208301905092915050565b6000602082019050919050565b6000612abf82612a54565b612ac98185612a5f565b9350612ad483612a70565b8060005b83811015612b05578151612aec8882612a8f565b9750612af783612aa7565b925050600181019050612ad8565b5085935050505092915050565b60006060820190508181036000830152612b2c81866129f6565b90508181036020830152612b408185612ab4565b90508181036040830152612b548184612ab4565b9050949350505050565b600081519050919050565b600082825260208201905092915050565b6000819050602082019050919050565b6000612b958261290b565b9050919050565b612ba581612b8a565b82525050565b6000612bb78383612b9c565b60208301905092915050565b6000602082019050919050565b6000612bdb82612b5e565b612be58185612b69565b9350612bf083612b7a565b8060005b83811015612c21578151612c088882612bab565b9750612c1383612bc3565b925050600181019050612bf4565b5085935050505092915050565b60006020820190508181036000830152612c488184612bd0565b905092915050565b612c598161292b565b82525050565b6000602082019050612c746000830184612c50565b92915050565b6000606082019050612c8f600083018661284d565b612c9c602083018561284d565b612ca9604083018461284d565b949350505050565b6000606082019050612cc66000830186612c50565b612cd3602083018561284d565b612ce0604083018461284d565b949350505050565b612cf181612b8a565b82525050565b6000602082019050612d0c6000830184612ce8565b92915050565b7f596f752063616e2774207375626d69742061206e756d6265722c20746869732060008201527f67616d6520697320616c72656164792066696e69736865642100000000000000602082015250565b6000612d6e6039836127c6565b9150612d7982612d12565b604082019050919050565b60006020820190508181036000830152612d9d81612d61565b9050919050565b7f43686f6f73652061206e756d626572206265747765656e203020616e6420313060008201527f3030000000000000000000000000000000000000000000000000000000000000602082015250565b6000612e006022836127c6565b9150612e0b82612da4565b604082019050919050565b60006020820190508181036000830152612e2f81612df3565b9050919050565b7f4d6178206e756d626572206f6620706c617965727320746861742063616e207360008201527f75626d69742061206e756d62657220726561636865642c20696620796f75207060208201527f6169642074686520656e7472792066656520796f752063616e2067657420612060408201527f726566756e640000000000000000000000000000000000000000000000000000606082015250565b6000612ede6066836127c6565b9150612ee982612e36565b608082019050919050565b60006020820190508181036000830152612f0d81612ed1565b9050919050565b7f596f75206861766520616c7265616479207375626d69747465642061206e756d60008201527f6265720000000000000000000000000000000000000000000000000000000000602082015250565b6000612f706023836127c6565b9150612f7b82612f14565b604082019050919050565b60006020820190508181036000830152612f9f81612f63565b9050919050565b7f636f6e7472616374204f776e65722063616e6e6f74207061727469636970617460008201527f6500000000000000000000000000000000000000000000000000000000000000602082015250565b60006130026021836127c6565b915061300d82612fa6565b604082019050919050565b6000602082019050818103600083015261303181612ff5565b9050919050565b7f596f75206d757374207061792074686520656e74727920666565000000000000600082015250565b600061306e601a836127c6565b915061307982613038565b602082019050919050565b6000602082019050818103600083015261309d81613061565b9050919050565b7f4e487b7100000000000000000000000000000000000000000000000000000000600052601160045260246000fd5b60006130de82612843565b91507fffffffffffffffffffffffffffffffffffffffffffffffffffffffffffffffff82036131105761310f6130a4565b5b600182019050919050565b7f596f7520617265206e6f74206120706c617965722e0000000000000000000000600082015250565b60006131516015836127c6565b915061315c8261311b565b602082019050919050565b6000602082019050818103600083015261318081613144565b9050919050565b600061319282612843565b915061319d83612843565b92508282019050808211156131b5576131b46130a4565b5b92915050565b7f596f752063616e6e6f7420676574206120726566756e64206265666f7265203560008201527f206d696e757465732068617665207061737365642073696e636520746865203560208201527f206d696e757465206a6f696e54696d6500000000000000000000000000000000604082015250565b600061323d6050836127c6565b9150613248826131bb565b606082019050919050565b6000602082019050818103600083015261326c81613230565b9050919050565b7f596f75206861766520616c7265616479207375626d69747465642061206e756d60008201527f6265722c20796f752063616e6e6f742072657175657374206120726566756e6460208201527f2e00000000000000000000000000000000000000000000000000000000000000604082015250565b60006132f56041836127c6565b915061330082613273565b606082019050919050565b60006020820190508181036000830152613324816132e8565b9050919050565b7f44617320537069656c20697374206e6f6368206e69636874206265656e646574600082015250565b60006133616020836127c6565b915061336c8261332b565b602082019050919050565b6000602082019050818103600083015261339081613354565b9050919050565b7f4e487b7100000000000000000000000000000000000000000000000000000000600052604160045260246000fd5b7f4e487b7100000000000000000000000000000000000000000000000000000000600052603260045260246000fd5b600061340082612843565b915061340b83612843565b9250828203905081811115613423576134226130a4565b5b92915050565b7f4e487b7100000000000000000000000000000000000000000000000000000000600052603160045260246000fd5b7f546869732067616d6520697320616c72656164792066696e6973686564210000600082015250565b600061348e601e836127c6565b915061349982613458565b602082019050919050565b600060208201905081810360008301526134bd81613481565b9050919050565b7f596f75206861766520616c726561647920706169642074686520656e7472792060008201527f6665650000000000000000000000000000000000000000000000000000000000602082015250565b60006135206023836127c6565b915061352b826134c4565b604082019050919050565b6000602082019050818103600083015261354f81613513565b9050919050565b7f4d6178206e756d626572206f6620706c61796572732072656163686564000000600082015250565b600061358c601d836127c6565b915061359782613556565b602082019050919050565b600060208201905081810360008301526135bb8161357f565b9050919050565b7f506c65617365207061792074686520657861637420706172746963697061746960008201527f6f6e20666565206f6620302e3120657468657200000000000000000000000000602082015250565b600061361e6033836127c6565b9150613629826135c2565b604082019050919050565b6000602082019050818103600083015261364d81613611565b9050919050565b7f4f6e6c792077696e6e6572206f7220636f6e747261637420636f6e747261637460008201527f4f776e65722063616e20636c61696d2074686520726577617264000000000000602082015250565b60006136b0603a836127c6565b91506136bb82613654565b604082019050919050565b600060208201905081810360008301526136df816136a3565b9050919050565b7f5468652077696e6e6572207265776172642068617320616c726561647920626560008201527f656e20636c61696d656400000000000000000000000000000000000000000000602082015250565b6000613742602a836127c6565b915061374d826136e6565b604082019050919050565b6000602082019050818103600083015261377181613735565b9050919050565b6000819050919050565b600061379d6137986137938461290b565b613778565b61290b565b9050919050565b60006137af82613782565b9050919050565b60006137c1826137a4565b9050919050565b6137d1816137b6565b82525050565b60006040820190506137ec60008301856137c8565b6137f9602083018461284d565b9392505050565b7f5468652073657276696365206665652068617320616c7265616479206265656e60008201527f20636c61696d65642062792074686520636f6e7472616374206f776e65720000602082015250565b600061385c603e836127c6565b915061386782613800565b604082019050919050565b6000602082019050818103600083015261388b8161384f565b9050919050565b7f5468652067616d652068617320616c7265616479207374617274656421000000600082015250565b60006138c8601d836127c6565b91506138d382613892565b602082019050919050565b600060208201905081810360008301526138f7816138bb565b9050919050565b7f5468652067616d6520686173206e6f7420796574207374617274656421000000600082015250565b6000613934601d836127c6565b915061393f826138fe565b602082019050919050565b6000602082019050818103600083015261396381613927565b9050919050565b7f4e487b7100000000000000000000000000000000000000000000000000000000600052601260045260246000fd5b60006139a482612843565b91506139af83612843565b9250826139bf576139be61396a565b5b828204905092915050565b60006139d582612843565b91506139e083612843565b92508282026139ee81612843565b91508282048414831517613a0557613a046130a4565b5b5092915050565b6000604082019050613a21600083018561284d565b613a2e6020830184612c50565b9392505050565b6000819050919050565b613a50613a4b82612843565b613a35565b82525050565b6000613a628285613a3f565b602082019150613a728284613a3f565b6020820191508190509392505050565b6000613a8d82612843565b9150613a9883612843565b925082613aa857613aa761396a565b5b828206905092915050565b7f4f776e61626c653a206e6577206f776e657220697320746865207a65726f206160008201527f6464726573730000000000000000000000000000000000000000000000000000602082015250565b6000613b0f6026836127c6565b9150613b1a82613ab3565b604082019050919050565b60006020820190508181036000830152613b3e81613b02565b9050919050565b7f5265656e7472616e637947756172643a207265656e7472616e742063616c6c00600082015250565b6000613b7b601f836127c6565b9150613b8682613b45565b602082019050919050565b60006020820190508181036000830152613baa81613b6e565b9050919050565b7f4f776e61626c653a2063616c6c6572206973206e6f7420746865206f776e6572600082015250565b6000613be76020836127c6565b9150613bf282613bb1565b602082019050919050565b60006020820190508181036000830152613c1681613bda565b905091905056fea26469706673582212207794d39eb3f351fd230bb749ec7f852871a41c48267167629ceb14358f4b435664736f6c63430008130033a2646970667358221220c1d1dfff9041242e68c8e70a500355598a549a5fa58c4cb6dc2b72e504f20c4e64736f6c63430008130033",
  "immutableReferences": {},
  "source": "// SPDX-License-Identifier: MIT\r\npragma solidity >=0.4.22 <0.9.0;\r\n\r\n\r\nimport \"./GameBC3.sol\";\r\n\r\n\r\ncontract MyGameFactory {\r\n    address[] public games;\r\n\r\n    function createGame(address payable _contractOwner) external payable returns (address) {\r\n        address newGame = address(new MyGame(_contractOwner));\r\n        games.push(newGame);\r\n        return newGame;\r\n    }\r\n\r\n    function getGames() external view returns (address[] memory) {\r\n        return games;\r\n    }\r\n}",
  "sourcePath": "C:\\Users\\derja\\Nextcloud\\Dokumente\\UNI\\Master of Sc. Blockchain und Distributed Ledger Technologies\\Blockchain3test\\contracts\\GameFactoryBC3.sol",
  "compiler": {
    "name": "solc",
    "version": "0.8.19+commit.7dd6d404.Emscripten.clang"
  },
  "schemaVersion": "3.4.13",
  "updatedAt": "2023-05-19T10:23:05.540Z",
  "networkType": "ethereum",
  "devdoc": {
    "kind": "dev",
    "methods": {},
    "version": 1
  },
  "userdoc": {
    "kind": "user",
    "methods": {},
    "version": 1
  }
}